{"abi":[{"type":"constructor","inputs":[{"name":"baseURI_","type":"string","internalType":"string"}],"stateMutability":"nonpayable"},{"type":"function","name":"CREATOR_MULTIPLIER","inputs":[],"outputs":[{"name":"","type":"uint256","internalType":"uint256"}],"stateMutability":"view"},{"type":"function","name":"LOYALTY_180_DAYS","inputs":[],"outputs":[{"name":"","type":"uint256","internalType":"uint256"}],"stateMutability":"view"},{"type":"function","name":"LOYALTY_30_DAYS","inputs":[],"outputs":[{"name":"","type":"uint256","internalType":"uint256"}],"stateMutability":"view"},{"type":"function","name":"LOYALTY_365_DAYS","inputs":[],"outputs":[{"name":"","type":"uint256","internalType":"uint256"}],"stateMutability":"view"},{"type":"function","name":"LOYALTY_90_DAYS","inputs":[],"outputs":[{"name":"","type":"uint256","internalType":"uint256"}],"stateMutability":"view"},{"type":"function","name":"TIER_BRONZE","inputs":[],"outputs":[{"name":"","type":"uint256","internalType":"uint256"}],"stateMutability":"view"},{"type":"function","name":"TIER_GOLD","inputs":[],"outputs":[{"name":"","type":"uint256","internalType":"uint256"}],"stateMutability":"view"},{"type":"function","name":"TIER_SILVER","inputs":[],"outputs":[{"name":"","type":"uint256","internalType":"uint256"}],"stateMutability":"view"},{"type":"function","name":"balanceOf","inputs":[{"name":"account","type":"address","internalType":"address"},{"name":"id","type":"uint256","internalType":"uint256"}],"outputs":[{"name":"","type":"uint256","internalType":"uint256"}],"stateMutability":"view"},{"type":"function","name":"balanceOfBatch","inputs":[{"name":"accounts","type":"address[]","internalType":"address[]"},{"name":"ids","type":"uint256[]","internalType":"uint256[]"}],"outputs":[{"name":"","type":"uint256[]","internalType":"uint256[]"}],"stateMutability":"view"},{"type":"function","name":"burnBadge","inputs":[{"name":"from","type":"address","internalType":"address"},{"name":"_creator","type":"address","internalType":"address"},{"name":"_tierId","type":"uint256","internalType":"uint256"}],"outputs":[],"stateMutability":"nonpayable"},{"type":"function","name":"calculateLoyaltyBonus","inputs":[{"name":"_holdDuration","type":"uint256","internalType":"uint256"}],"outputs":[{"name":"","type":"uint256","internalType":"uint256"}],"stateMutability":"pure"},{"type":"function","name":"calculateTokenId","inputs":[{"name":"_creatorIndex","type":"uint256","internalType":"uint256"},{"name":"tier","type":"uint256","internalType":"uint256"}],"outputs":[{"name":"","type":"uint256","internalType":"uint256"}],"stateMutability":"pure"},{"type":"function","name":"createTier","inputs":[{"name":"creator","type":"address","internalType":"address"},{"name":"tier","type":"uint256","internalType":"uint256"},{"name":"name","type":"string","internalType":"string"},{"name":"price","type":"uint256","internalType":"uint256"},{"name":"metadataURI","type":"string","internalType":"string"},{"name":"maxSupply","type":"uint256","internalType":"uint256"},{"name":"minHoldTime","type":"uint256","internalType":"uint256"}],"outputs":[],"stateMutability":"nonpayable"},{"type":"function","name":"creatorByIndex","inputs":[{"name":"","type":"uint256","internalType":"uint256"}],"outputs":[{"name":"","type":"address","internalType":"address"}],"stateMutability":"view"},{"type":"function","name":"creatorIndex","inputs":[{"name":"","type":"address","internalType":"address"}],"outputs":[{"name":"","type":"uint256","internalType":"uint256"}],"stateMutability":"view"},{"type":"function","name":"creatorTiers","inputs":[{"name":"","type":"address","internalType":"address"},{"name":"","type":"uint256","internalType":"uint256"}],"outputs":[{"name":"","type":"uint256","internalType":"uint256"}],"stateMutability":"view"},{"type":"function","name":"getCreatorFromTokenId","inputs":[{"name":"tokenId","type":"uint256","internalType":"uint256"}],"outputs":[{"name":"","type":"uint256","internalType":"uint256"}],"stateMutability":"pure"},{"type":"function","name":"getCreatorTiers","inputs":[{"name":"creator","type":"address","internalType":"address"}],"outputs":[{"name":"","type":"uint256[]","internalType":"uint256[]"}],"stateMutability":"view"},{"type":"function","name":"getTierData","inputs":[{"name":"tokenId","type":"uint256","internalType":"uint256"}],"outputs":[{"name":"","type":"tuple","internalType":"struct TieredBadge.Tier","components":[{"name":"name","type":"string","internalType":"string"},{"name":"price","type":"uint256","internalType":"uint256"},{"name":"metadataURI","type":"string","internalType":"string"},{"name":"maxSupply","type":"uint256","internalType":"uint256"},{"name":"currentSupply","type":"uint256","internalType":"uint256"},{"name":"minHoldTime","type":"uint256","internalType":"uint256"}]}],"stateMutability":"view"},{"type":"function","name":"getTierFromTokenId","inputs":[{"name":"tokenId","type":"uint256","internalType":"uint256"}],"outputs":[{"name":"","type":"uint256","internalType":"uint256"}],"stateMutability":"pure"},{"type":"function","name":"getTierLevel","inputs":[{"name":"_user","type":"address","internalType":"address"},{"name":"_creator","type":"address","internalType":"address"}],"outputs":[{"name":"","type":"uint256","internalType":"uint256"}],"stateMutability":"view"},{"type":"function","name":"getUserLoyaltyBonus","inputs":[{"name":"_user","type":"address","internalType":"address"},{"name":"_creator","type":"address","internalType":"address"}],"outputs":[{"name":"bonus","type":"uint256","internalType":"uint256"},{"name":"holdDuration","type":"uint256","internalType":"uint256"}],"stateMutability":"view"},{"type":"function","name":"isApprovedForAll","inputs":[{"name":"account","type":"address","internalType":"address"},{"name":"operator","type":"address","internalType":"address"}],"outputs":[{"name":"","type":"bool","internalType":"bool"}],"stateMutability":"view"},{"type":"function","name":"mintBadge","inputs":[{"name":"_creator","type":"address","internalType":"address"},{"name":"_tierId","type":"uint256","internalType":"uint256"}],"outputs":[],"stateMutability":"nonpayable"},{"type":"function","name":"mintBadgeTo","inputs":[{"name":"to","type":"address","internalType":"address"},{"name":"_creator","type":"address","internalType":"address"},{"name":"_tierId","type":"uint256","internalType":"uint256"}],"outputs":[],"stateMutability":"nonpayable"},{"type":"function","name":"mintTimestamps","inputs":[{"name":"","type":"uint256","internalType":"uint256"},{"name":"","type":"address","internalType":"address"}],"outputs":[{"name":"","type":"uint256","internalType":"uint256"}],"stateMutability":"view"},{"type":"function","name":"owner","inputs":[],"outputs":[{"name":"","type":"address","internalType":"address"}],"stateMutability":"view"},{"type":"function","name":"registerCreator","inputs":[{"name":"creator","type":"address","internalType":"address"},{"name":"index","type":"uint256","internalType":"uint256"}],"outputs":[],"stateMutability":"nonpayable"},{"type":"function","name":"renounceOwnership","inputs":[],"outputs":[],"stateMutability":"nonpayable"},{"type":"function","name":"safeBatchTransferFrom","inputs":[{"name":"from","type":"address","internalType":"address"},{"name":"to","type":"address","internalType":"address"},{"name":"ids","type":"uint256[]","internalType":"uint256[]"},{"name":"values","type":"uint256[]","internalType":"uint256[]"},{"name":"data","type":"bytes","internalType":"bytes"}],"outputs":[],"stateMutability":"nonpayable"},{"type":"function","name":"safeTransferFrom","inputs":[{"name":"from","type":"address","internalType":"address"},{"name":"to","type":"address","internalType":"address"},{"name":"id","type":"uint256","internalType":"uint256"},{"name":"value","type":"uint256","internalType":"uint256"},{"name":"data","type":"bytes","internalType":"bytes"}],"outputs":[],"stateMutability":"nonpayable"},{"type":"function","name":"setApprovalForAll","inputs":[{"name":"operator","type":"address","internalType":"address"},{"name":"approved","type":"bool","internalType":"bool"}],"outputs":[],"stateMutability":"nonpayable"},{"type":"function","name":"setBaseURI","inputs":[{"name":"newBaseURI","type":"string","internalType":"string"}],"outputs":[],"stateMutability":"nonpayable"},{"type":"function","name":"setSubscriptionManager","inputs":[{"name":"manager","type":"address","internalType":"address"}],"outputs":[],"stateMutability":"nonpayable"},{"type":"function","name":"subscriptionManager","inputs":[],"outputs":[{"name":"","type":"address","internalType":"address"}],"stateMutability":"view"},{"type":"function","name":"supportsInterface","inputs":[{"name":"interfaceId","type":"bytes4","internalType":"bytes4"}],"outputs":[{"name":"","type":"bool","internalType":"bool"}],"stateMutability":"view"},{"type":"function","name":"tierData","inputs":[{"name":"","type":"uint256","internalType":"uint256"}],"outputs":[{"name":"name","type":"string","internalType":"string"},{"name":"price","type":"uint256","internalType":"uint256"},{"name":"metadataURI","type":"string","internalType":"string"},{"name":"maxSupply","type":"uint256","internalType":"uint256"},{"name":"currentSupply","type":"uint256","internalType":"uint256"},{"name":"minHoldTime","type":"uint256","internalType":"uint256"}],"stateMutability":"view"},{"type":"function","name":"transferOwnership","inputs":[{"name":"newOwner","type":"address","internalType":"address"}],"outputs":[],"stateMutability":"nonpayable"},{"type":"function","name":"upgradeBadge","inputs":[{"name":"_creator","type":"address","internalType":"address"},{"name":"_fromTier","type":"uint256","internalType":"uint256"},{"name":"_toTier","type":"uint256","internalType":"uint256"}],"outputs":[],"stateMutability":"nonpayable"},{"type":"function","name":"uri","inputs":[{"name":"tokenId","type":"uint256","internalType":"uint256"}],"outputs":[{"name":"","type":"string","internalType":"string"}],"stateMutability":"view"},{"type":"event","name":"ApprovalForAll","inputs":[{"name":"account","type":"address","indexed":true,"internalType":"address"},{"name":"operator","type":"address","indexed":true,"internalType":"address"},{"name":"approved","type":"bool","indexed":false,"internalType":"bool"}],"anonymous":false},{"type":"event","name":"BadgeBurned","inputs":[{"name":"from","type":"address","indexed":true,"internalType":"address"},{"name":"creator","type":"address","indexed":true,"internalType":"address"},{"name":"tokenId","type":"uint256","indexed":true,"internalType":"uint256"},{"name":"tier","type":"uint256","indexed":false,"internalType":"uint256"}],"anonymous":false},{"type":"event","name":"BadgeMinted","inputs":[{"name":"to","type":"address","indexed":true,"internalType":"address"},{"name":"creator","type":"address","indexed":true,"internalType":"address"},{"name":"tokenId","type":"uint256","indexed":true,"internalType":"uint256"},{"name":"tier","type":"uint256","indexed":false,"internalType":"uint256"}],"anonymous":false},{"type":"event","name":"BadgeUpgraded","inputs":[{"name":"user","type":"address","indexed":true,"internalType":"address"},{"name":"creator","type":"address","indexed":true,"internalType":"address"},{"name":"fromTier","type":"uint256","indexed":false,"internalType":"uint256"},{"name":"toTier","type":"uint256","indexed":false,"internalType":"uint256"}],"anonymous":false},{"type":"event","name":"OwnershipTransferred","inputs":[{"name":"previousOwner","type":"address","indexed":true,"internalType":"address"},{"name":"newOwner","type":"address","indexed":true,"internalType":"address"}],"anonymous":false},{"type":"event","name":"SubscriptionManagerUpdated","inputs":[{"name":"oldManager","type":"address","indexed":true,"internalType":"address"},{"name":"newManager","type":"address","indexed":true,"internalType":"address"}],"anonymous":false},{"type":"event","name":"TierCreated","inputs":[{"name":"creator","type":"address","indexed":true,"internalType":"address"},{"name":"tokenId","type":"uint256","indexed":true,"internalType":"uint256"},{"name":"name","type":"string","indexed":false,"internalType":"string"},{"name":"price","type":"uint256","indexed":false,"internalType":"uint256"}],"anonymous":false},{"type":"event","name":"TransferBatch","inputs":[{"name":"operator","type":"address","indexed":true,"internalType":"address"},{"name":"from","type":"address","indexed":true,"internalType":"address"},{"name":"to","type":"address","indexed":true,"internalType":"address"},{"name":"ids","type":"uint256[]","indexed":false,"internalType":"uint256[]"},{"name":"values","type":"uint256[]","indexed":false,"internalType":"uint256[]"}],"anonymous":false},{"type":"event","name":"TransferSingle","inputs":[{"name":"operator","type":"address","indexed":true,"internalType":"address"},{"name":"from","type":"address","indexed":true,"internalType":"address"},{"name":"to","type":"address","indexed":true,"internalType":"address"},{"name":"id","type":"uint256","indexed":false,"internalType":"uint256"},{"name":"value","type":"uint256","indexed":false,"internalType":"uint256"}],"anonymous":false},{"type":"event","name":"URI","inputs":[{"name":"value","type":"string","indexed":false,"internalType":"string"},{"name":"id","type":"uint256","indexed":true,"internalType":"uint256"}],"anonymous":false},{"type":"error","name":"CannotDowngrade","inputs":[]},{"type":"error","name":"ERC1155InsufficientBalance","inputs":[{"name":"sender","type":"address","internalType":"address"},{"name":"balance","type":"uint256","internalType":"uint256"},{"name":"needed","type":"uint256","internalType":"uint256"},{"name":"tokenId","type":"uint256","internalType":"uint256"}]},{"type":"error","name":"ERC1155InvalidApprover","inputs":[{"name":"approver","type":"address","internalType":"address"}]},{"type":"error","name":"ERC1155InvalidArrayLength","inputs":[{"name":"idsLength","type":"uint256","internalType":"uint256"},{"name":"valuesLength","type":"uint256","internalType":"uint256"}]},{"type":"error","name":"ERC1155InvalidOperator","inputs":[{"name":"operator","type":"address","internalType":"address"}]},{"type":"error","name":"ERC1155InvalidReceiver","inputs":[{"name":"receiver","type":"address","internalType":"address"}]},{"type":"error","name":"ERC1155InvalidSender","inputs":[{"name":"sender","type":"address","internalType":"address"}]},{"type":"error","name":"ERC1155MissingApprovalForAll","inputs":[{"name":"operator","type":"address","internalType":"address"},{"name":"owner","type":"address","internalType":"address"}]},{"type":"error","name":"InvalidTier","inputs":[]},{"type":"error","name":"MaxSupplyReached","inputs":[]},{"type":"error","name":"MinHoldTimeNotMet","inputs":[]},{"type":"error","name":"NotAuthorized","inputs":[]},{"type":"error","name":"OwnableInvalidOwner","inputs":[{"name":"owner","type":"address","internalType":"address"}]},{"type":"error","name":"OwnableUnauthorizedAccount","inputs":[{"name":"account","type":"address","internalType":"address"}]},{"type":"error","name":"TierAlreadyExists","inputs":[]},{"type":"error","name":"TierNotConfigured","inputs":[]},{"type":"error","name":"TransferNotAllowed","inputs":[]},{"type":"error","name":"ZeroAddress","inputs":[]}],"bytecode":{"object":"0x608060405234801562000010575f80fd5b506040516200562c3803806200562c833981810160405281019062000036919062000345565b33816200004981620000e860201b60201c565b505f73ffffffffffffffffffffffffffffffffffffffff168173ffffffffffffffffffffffffffffffffffffffff1603620000bd575f6040517f1e4fbdf7000000000000000000000000000000000000000000000000000000008152600401620000b49190620003d7565b60405180910390fd5b620000ce81620000fd60201b60201c565b5080600a9081620000e0919062000629565b50506200070d565b8060029081620000f9919062000629565b5050565b5f60035f9054906101000a900473ffffffffffffffffffffffffffffffffffffffff1690508160035f6101000a81548173ffffffffffffffffffffffffffffffffffffffff021916908373ffffffffffffffffffffffffffffffffffffffff1602179055508173ffffffffffffffffffffffffffffffffffffffff168173ffffffffffffffffffffffffffffffffffffffff167f8be0079c531659141344cd1fd0a4f28419497f9722a3daafe3b4186f6b6457e060405160405180910390a35050565b5f604051905090565b5f80fd5b5f80fd5b5f80fd5b5f80fd5b5f601f19601f8301169050919050565b7f4e487b71000000000000000000000000000000000000000000000000000000005f52604160045260245ffd5b6200022182620001d9565b810181811067ffffffffffffffff82111715620002435762000242620001e9565b5b80604052505050565b5f62000257620001c0565b905062000265828262000216565b919050565b5f67ffffffffffffffff821115620002875762000286620001e9565b5b6200029282620001d9565b9050602081019050919050565b5f5b83811015620002be578082015181840152602081019050620002a1565b5f8484015250505050565b5f620002df620002d9846200026a565b6200024c565b905082815260208101848484011115620002fe57620002fd620001d5565b5b6200030b8482856200029f565b509392505050565b5f82601f8301126200032a5762000329620001d1565b5b81516200033c848260208601620002c9565b91505092915050565b5f602082840312156200035d576200035c620001c9565b5b5f82015167ffffffffffffffff8111156200037d576200037c620001cd565b5b6200038b8482850162000313565b91505092915050565b5f73ffffffffffffffffffffffffffffffffffffffff82169050919050565b5f620003bf8262000394565b9050919050565b620003d181620003b3565b82525050565b5f602082019050620003ec5f830184620003c6565b92915050565b5f81519050919050565b7f4e487b71000000000000000000000000000000000000000000000000000000005f52602260045260245ffd5b5f60028204905060018216806200044157607f821691505b602082108103620004575762000456620003fc565b5b50919050565b5f819050815f5260205f209050919050565b5f6020601f8301049050919050565b5f82821b905092915050565b5f60088302620004bb7fffffffffffffffffffffffffffffffffffffffffffffffffffffffffffffffff826200047e565b620004c786836200047e565b95508019841693508086168417925050509392505050565b5f819050919050565b5f819050919050565b5f620005116200050b6200050584620004df565b620004e8565b620004df565b9050919050565b5f819050919050565b6200052c83620004f1565b620005446200053b8262000518565b8484546200048a565b825550505050565b5f90565b6200055a6200054c565b6200056781848462000521565b505050565b5b818110156200058e57620005825f8262000550565b6001810190506200056d565b5050565b601f821115620005dd57620005a7816200045d565b620005b2846200046f565b81016020851015620005c2578190505b620005da620005d1856200046f565b8301826200056c565b50505b505050565b5f82821c905092915050565b5f620005ff5f1984600802620005e2565b1980831691505092915050565b5f620006198383620005ee565b9150826002028217905092915050565b6200063482620003f2565b67ffffffffffffffff81111562000650576200064f620001e9565b5b6200065c825462000429565b6200066982828562000592565b5f60209050601f8311600181146200069f575f84156200068a578287015190505b6200069685826200060c565b86555062000705565b601f198416620006af866200045d565b5f5b82811015620006d857848901518255600182019150602085019450602081019050620006b1565b86831015620006f85784890151620006f4601f891682620005ee565b8355505b6001600288020188555050505b505050505050565b614f11806200071b5f395ff3fe608060405234801561000f575f80fd5b5060043610610250575f3560e01c80637efab5f311610144578063bf158fd2116100c1578063e3d3f84311610085578063e3d3f84314610782578063e42bff66146107a0578063e714bb5f146107bc578063e985e9c5146107d8578063f242432a14610808578063f2fde38b1461082457610250565b8063bf158fd2146106dc578063c05b3585146106fa578063c2c7583914610716578063d338884f14610746578063d85ca2e11461076457610250565b80639c671807116101085780639c67180714610612578063a22cb46514610642578063ab9959df1461065e578063b0b9a5031461068e578063ba6682b0146106ac57610250565b80637efab5f3146105555780638da5cb5b1461058a57806397e5cc6c146105a85780639a46e412146105d85780639ab45a45146105f657610250565b80633c0847f5116101d25780636695b33a116101965780636695b33a146104af5780636d571b6a146104cd578063715018a6146104fd578063790d3d5e146105075780637cc77fac1461052557610250565b80633c0847f5146103f95780634c274d45146104175780634e1273f41461043357806355f804b314610463578063668794931461047f57610250565b80630ecd9a6d116102195780630ecd9a6d1461034557806312aef832146103755780632768a9b6146103a55780632eb2c2d6146103c157806337201fe6146103dd57610250565b8062fdd58e1461025457806301815f981461028457806301ffc9a7146102b55780630c9138e6146102e55780630e89341c14610315575b5f80fd5b61026e60048036038101906102699190613a27565b610840565b60405161027b9190613a74565b60405180910390f35b61029e60048036038101906102999190613a8d565b610895565b6040516102ac929190613acb565b60405180910390f35b6102cf60048036038101906102ca9190613b47565b6109b7565b6040516102dc9190613b8c565b60405180910390f35b6102ff60048036038101906102fa9190613ba5565b610a98565b60405161030c9190613cf6565b60405180910390f35b61032f600480360381019061032a9190613ba5565b610c0a565b60405161033c9190613d5e565b60405180910390f35b61035f600480360381019061035a9190613d7e565b610d09565b60405161036c9190613e51565b60405180910390f35b61038f600480360381019061038a9190613ba5565b610d9c565b60405161039c9190613a74565b60405180910390f35b6103bf60048036038101906103ba9190613a27565b610db2565b005b6103db60048036038101906103d69190614061565b610f32565b005b6103f760048036038101906103f2919061412c565b610f57565b005b610401611405565b60405161040e9190613a74565b60405180910390f35b610431600480360381019061042c919061417c565b61140a565b005b61044d6004803603810190610448919061428c565b611617565b60405161045a9190613e51565b60405180910390f35b61047d600480360381019061047891906143a0565b61171e565b005b61049960048036038101906104949190613ba5565b611739565b6040516104a69190613a74565b60405180910390f35b6104b761174f565b6040516104c49190613a74565b60405180910390f35b6104e760048036038101906104e29190613ba5565b611755565b6040516104f491906143f6565b60405180910390f35b610505611785565b005b61050f611798565b60405161051c9190613a74565b60405180910390f35b61053f600480360381019061053a919061440f565b61179f565b60405161054c9190613a74565b60405180910390f35b61056f600480360381019061056a9190613ba5565b6117bf565b6040516105819695949392919061444d565b60405180910390f35b610592611903565b60405161059f91906143f6565b60405180910390f35b6105c260048036038101906105bd9190613d7e565b61192b565b6040516105cf9190613a74565b60405180910390f35b6105e0611940565b6040516105ed9190613a74565b60405180910390f35b610610600480360381019061060b91906144ba565b611945565b005b61062c60048036038101906106279190613a8d565b611c43565b6040516106399190613a74565b60405180910390f35b61065c600480360381019061065791906145b9565b611cec565b005b61067860048036038101906106739190613ba5565b611d80565b6040516106859190613a74565b60405180910390f35b610696611dd7565b6040516106a39190613a74565b60405180910390f35b6106c660048036038101906106c19190613a27565b611dde565b6040516106d39190613a74565b60405180910390f35b6106e4611e09565b6040516106f191906143f6565b60405180910390f35b610714600480360381019061070f9190613d7e565b611e2e565b005b610730600480360381019061072b91906145f7565b611f5e565b60405161073d9190613a74565b60405180910390f35b61074e611f71565b60405161075b9190613a74565b60405180910390f35b61076c611f79565b6040516107799190613a74565b60405180910390f35b61078a611f80565b6040516107979190613a74565b60405180910390f35b6107ba60048036038101906107b59190613a27565b611f85565b005b6107d660048036038101906107d1919061417c565b61227f565b005b6107f260048036038101906107ed9190613a8d565b6125da565b6040516107ff9190613b8c565b60405180910390f35b610822600480360381019061081d9190614635565b612668565b005b61083e60048036038101906108399190613d7e565b61268d565b005b5f805f8381526020019081526020015f205f8473ffffffffffffffffffffffffffffffffffffffff1673ffffffffffffffffffffffffffffffffffffffff1681526020019081526020015f2054905092915050565b5f805f60095f8573ffffffffffffffffffffffffffffffffffffffff1673ffffffffffffffffffffffffffffffffffffffff1681526020019081526020015f205490505f81036108eb575f8092509250506109b0565b5f600390505b600181106109a7575f6109048383612711565b90505f6109118883610840565b1115610993575f60075f8381526020019081526020015f205f8973ffffffffffffffffffffffffffffffffffffffff1673ffffffffffffffffffffffffffffffffffffffff1681526020019081526020015f205490505f81111561099157804261097b91906146f5565b945061098685611d80565b9550505050506109b0565b505b50808061099f90614728565b9150506108f1565b505f8092509250505b9250929050565b5f7fd9b67a26000000000000000000000000000000000000000000000000000000007bffffffffffffffffffffffffffffffffffffffffffffffffffffffff1916827bffffffffffffffffffffffffffffffffffffffffffffffffffffffff19161480610a8157507f0e89341c000000000000000000000000000000000000000000000000000000007bffffffffffffffffffffffffffffffffffffffffffffffffffffffff1916827bffffffffffffffffffffffffffffffffffffffffffffffffffffffff1916145b80610a915750610a9082612733565b5b9050919050565b610aa0613957565b60065f8381526020019081526020015f206040518060c00160405290815f82018054610acb9061477c565b80601f0160208091040260200160405190810160405280929190818152602001828054610af79061477c565b8015610b425780601f10610b1957610100808354040283529160200191610b42565b820191905f5260205f20905b815481529060010190602001808311610b2557829003601f168201915b5050505050815260200160018201548152602001600282018054610b659061477c565b80601f0160208091040260200160405190810160405280929190818152602001828054610b919061477c565b8015610bdc5780601f10610bb357610100808354040283529160200191610bdc565b820191905f5260205f20905b815481529060010190602001808311610bbf57829003601f168201915b5050505050815260200160038201548152602001600482015481526020016005820154815250509050919050565b60605f60065f8481526020019081526020015f206002018054610c2c9061477c565b90501115610cd65760065f8381526020019081526020015f206002018054610c539061477c565b80601f0160208091040260200160405190810160405280929190818152602001828054610c7f9061477c565b8015610cca5780601f10610ca157610100808354040283529160200191610cca565b820191905f5260205f20905b815481529060010190602001808311610cad57829003601f168201915b50505050509050610d04565b600a610ce18361279c565b604051602001610cf29291906148c2565b60405160208183030381529060405290505b919050565b606060055f8373ffffffffffffffffffffffffffffffffffffffff1673ffffffffffffffffffffffffffffffffffffffff1681526020019081526020015f20805480602002602001604051908101604052809291908181526020018280548015610d9057602002820191905f5260205f20905b815481526020019060010190808311610d7c575b50505050509050919050565b5f6103e882610dab919061491d565b9050919050565b60045f9054906101000a900473ffffffffffffffffffffffffffffffffffffffff1673ffffffffffffffffffffffffffffffffffffffff163373ffffffffffffffffffffffffffffffffffffffff1614610e38576040517fea8e4eb500000000000000000000000000000000000000000000000000000000815260040160405180910390fd5b5f73ffffffffffffffffffffffffffffffffffffffff168273ffffffffffffffffffffffffffffffffffffffff1603610e9d576040517fd92e233d00000000000000000000000000000000000000000000000000000000815260040160405180910390fd5b8160085f8381526020019081526020015f205f6101000a81548173ffffffffffffffffffffffffffffffffffffffff021916908373ffffffffffffffffffffffffffffffffffffffff1602179055508060095f8473ffffffffffffffffffffffffffffffffffffffff1673ffffffffffffffffffffffffffffffffffffffff1681526020019081526020015f20819055505050565b610f43610f3d612866565b8661286d565b610f5085858585856128f8565b5050505050565b60045f9054906101000a900473ffffffffffffffffffffffffffffffffffffffff1673ffffffffffffffffffffffffffffffffffffffff163373ffffffffffffffffffffffffffffffffffffffff1614610fdd576040517fea8e4eb500000000000000000000000000000000000000000000000000000000815260040160405180910390fd5b816001811080610fed5750600381115b15611024576040517fe142361700000000000000000000000000000000000000000000000000000000815260040160405180910390fd5b8160018110806110345750600381115b1561106b576040517fe142361700000000000000000000000000000000000000000000000000000000815260040160405180910390fd5b8383116110a4576040517f5666717d00000000000000000000000000000000000000000000000000000000815260040160405180910390fd5b5f60095f8773ffffffffffffffffffffffffffffffffffffffff1673ffffffffffffffffffffffffffffffffffffffff1681526020019081526020015f205490505f810361111e576040517fea8e4eb500000000000000000000000000000000000000000000000000000000815260040160405180910390fd5b5f6111298287612711565b90505f6111368387612711565b90505f3290505f60065f8581526020019081526020015f2090505f60075f8681526020019081526020015f205f8473ffffffffffffffffffffffffffffffffffffffff1673ffffffffffffffffffffffffffffffffffffffff1681526020019081526020015f2054426111a991906146f5565b905081600501548110156111e9576040517f2fd338f500000000000000000000000000000000000000000000000000000000815260040160405180910390fd5b5f60065f8681526020019081526020015f2090505f815f01805461120c9061477c565b905003611245576040517f07a9209500000000000000000000000000000000000000000000000000000000815260040160405180910390fd5b5f816003015411801561126057508060030154816004015410155b15611297576040517fd05cb60900000000000000000000000000000000000000000000000000000000815260040160405180910390fd5b826004015f8154809291906112ab90614728565b9190505550806004015f8154809291906112c49061494d565b919050555060075f8781526020019081526020015f205f8573ffffffffffffffffffffffffffffffffffffffff1673ffffffffffffffffffffffffffffffffffffffff1681526020019081526020015f205f90554260075f8781526020019081526020015f205f8673ffffffffffffffffffffffffffffffffffffffff1673ffffffffffffffffffffffffffffffffffffffff1681526020019081526020015f2081905550611375848760016129ee565b6113908486600160405180602001604052805f815250612a91565b8b73ffffffffffffffffffffffffffffffffffffffff168473ffffffffffffffffffffffffffffffffffffffff167fe5e3ded8338714c810695b6680f5cb0f8689fbbcb52fbe4f7b182c8d5d0ba10b8d8d6040516113ef929190613acb565b60405180910390a3505050505050505050505050565b600181565b60045f9054906101000a900473ffffffffffffffffffffffffffffffffffffffff1673ffffffffffffffffffffffffffffffffffffffff163373ffffffffffffffffffffffffffffffffffffffff1614611490576040517fea8e4eb500000000000000000000000000000000000000000000000000000000815260040160405180910390fd5b8060018110806114a05750600381115b156114d7576040517fe142361700000000000000000000000000000000000000000000000000000000815260040160405180910390fd5b5f60095f8573ffffffffffffffffffffffffffffffffffffffff1673ffffffffffffffffffffffffffffffffffffffff1681526020019081526020015f205490505f6115238285612711565b905060065f8281526020019081526020015f206004015f81548092919061154990614728565b919050555060075f8281526020019081526020015f205f8773ffffffffffffffffffffffffffffffffffffffff1673ffffffffffffffffffffffffffffffffffffffff1681526020019081526020015f205f90556115a9868260016129ee565b808573ffffffffffffffffffffffffffffffffffffffff168773ffffffffffffffffffffffffffffffffffffffff167f12a6f33e649aff1fe2481904e08fb97da6fdbeb961e174f928dada85dd27fe82876040516116079190613a74565b60405180910390a4505050505050565b6060815183511461166357815183516040517f5b05999100000000000000000000000000000000000000000000000000000000815260040161165a929190613acb565b60405180910390fd5b5f835167ffffffffffffffff81111561167f5761167e613e75565b5b6040519080825280602002602001820160405280156116ad5781602001602082028036833780820191505090505b5090505f5b8451811015611713576116e96116d18287612b2790919063ffffffff16565b6116e48387612b3a90919063ffffffff16565b610840565b8282815181106116fc576116fb614994565b5b6020026020010181815250508060010190506116b2565b508091505092915050565b611726612b4d565b80600a90816117359190614b4c565b5050565b5f6103e8826117489190614c1b565b9050919050565b6103e881565b6008602052805f5260405f205f915054906101000a900473ffffffffffffffffffffffffffffffffffffffff1681565b61178d612b4d565b6117965f612bd4565b565b6276a70081565b6007602052815f5260405f20602052805f5260405f205f91509150505481565b6006602052805f5260405f205f91509050805f0180546117de9061477c565b80601f016020809104026020016040519081016040528092919081815260200182805461180a9061477c565b80156118555780601f1061182c57610100808354040283529160200191611855565b820191905f5260205f20905b81548152906001019060200180831161183857829003601f168201915b5050505050908060010154908060020180546118709061477c565b80601f016020809104026020016040519081016040528092919081815260200182805461189c9061477c565b80156118e75780601f106118be576101008083540402835291602001916118e7565b820191905f5260205f20905b8154815290600101906020018083116118ca57829003601f168201915b5050505050908060030154908060040154908060050154905086565b5f60035f9054906101000a900473ffffffffffffffffffffffffffffffffffffffff16905090565b6009602052805f5260405f205f915090505481565b600281565b60045f9054906101000a900473ffffffffffffffffffffffffffffffffffffffff1673ffffffffffffffffffffffffffffffffffffffff163373ffffffffffffffffffffffffffffffffffffffff16146119cb576040517fea8e4eb500000000000000000000000000000000000000000000000000000000815260040160405180910390fd5b8560018110806119db5750600381115b15611a12576040517fe142361700000000000000000000000000000000000000000000000000000000815260040160405180910390fd5b5f60095f8a73ffffffffffffffffffffffffffffffffffffffff1673ffffffffffffffffffffffffffffffffffffffff1681526020019081526020015f205490505f8103611a8c576040517fea8e4eb500000000000000000000000000000000000000000000000000000000815260040160405180910390fd5b5f611a97828a612711565b90505f60065f8381526020019081526020015f205f018054611ab89061477c565b90501115611af2576040517f4a41c37a00000000000000000000000000000000000000000000000000000000815260040160405180910390fd5b6040518060c001604052808981526020018881526020018781526020018681526020015f81526020018581525060065f8381526020019081526020015f205f820151815f019081611b439190614b4c565b50602082015181600101556040820151816002019081611b639190614b4c565b50606082015181600301556080820151816004015560a0820151816005015590505060055f8b73ffffffffffffffffffffffffffffffffffffffff1673ffffffffffffffffffffffffffffffffffffffff1681526020019081526020015f2081908060018154018082558091505060019003905f5260205f20015f9091909190915055808a73ffffffffffffffffffffffffffffffffffffffff167f5a28935266f3912de5b79bbafc5c4ce92770fb83fe4d6bc76b4d140bde3ffb618a8a604051611c2f929190614c4b565b60405180910390a350505050505050505050565b5f8060095f8473ffffffffffffffffffffffffffffffffffffffff1673ffffffffffffffffffffffffffffffffffffffff1681526020019081526020015f205490505f8103611c95575f915050611ce6565b5f600390505b60018110611ce0575f611cae8383612711565b90505f611cbb8783610840565b1115611ccc57819350505050611ce6565b508080611cd890614728565b915050611c9b565b505f9150505b92915050565b60045f9054906101000a900473ffffffffffffffffffffffffffffffffffffffff1673ffffffffffffffffffffffffffffffffffffffff168273ffffffffffffffffffffffffffffffffffffffff1614611d72576040517f8cd22d1900000000000000000000000000000000000000000000000000000000815260040160405180910390fd5b611d7c8282612c97565b5050565b5f6301e133808210611d955760649050611dd2565b62ed4e008210611da85760329050611dd2565b6276a7008210611dbb5760199050611dd2565b62278d008210611dce57600a9050611dd2565b5f90505b919050565b62278d0081565b6005602052815f5260405f208181548110611df7575f80fd5b905f5260205f20015f91509150505481565b60045f9054906101000a900473ffffffffffffffffffffffffffffffffffffffff1681565b611e36612b4d565b5f73ffffffffffffffffffffffffffffffffffffffff168173ffffffffffffffffffffffffffffffffffffffff1603611e9b576040517fd92e233d00000000000000000000000000000000000000000000000000000000815260040160405180910390fd5b5f60045f9054906101000a900473ffffffffffffffffffffffffffffffffffffffff1690508160045f6101000a81548173ffffffffffffffffffffffffffffffffffffffff021916908373ffffffffffffffffffffffffffffffffffffffff1602179055508173ffffffffffffffffffffffffffffffffffffffff168173ffffffffffffffffffffffffffffffffffffffff167f259ac012affed7bd376664c4b7abec05c7bd18c35f8e0f725930c384af8dbf3860405160405180910390a35050565b5f611f698383612711565b905092915050565b6301e1338081565b62ed4e0081565b600381565b60045f9054906101000a900473ffffffffffffffffffffffffffffffffffffffff1673ffffffffffffffffffffffffffffffffffffffff163373ffffffffffffffffffffffffffffffffffffffff161461200b576040517fea8e4eb500000000000000000000000000000000000000000000000000000000815260040160405180910390fd5b80600181108061201b5750600381115b15612052576040517fe142361700000000000000000000000000000000000000000000000000000000815260040160405180910390fd5b5f60095f8573ffffffffffffffffffffffffffffffffffffffff1673ffffffffffffffffffffffffffffffffffffffff1681526020019081526020015f205490505f81036120cc576040517fea8e4eb500000000000000000000000000000000000000000000000000000000815260040160405180910390fd5b5f6120d78285612711565b90505f60065f8381526020019081526020015f2090505f815f0180546120fc9061477c565b905003612135576040517f07a9209500000000000000000000000000000000000000000000000000000000815260040160405180910390fd5b5f816003015411801561215057508060030154816004015410155b15612187576040517fd05cb60900000000000000000000000000000000000000000000000000000000815260040160405180910390fd5b5f329050816004015f81548092919061219f9061494d565b91905055504260075f8581526020019081526020015f205f8373ffffffffffffffffffffffffffffffffffffffff1673ffffffffffffffffffffffffffffffffffffffff1681526020019081526020015f20819055506122108184600160405180602001604052805f815250612a91565b828773ffffffffffffffffffffffffffffffffffffffff168273ffffffffffffffffffffffffffffffffffffffff167f8ae2c241a6057f8691fa52ccc50191571b702e6977d452690b75ed335d591f1f8960405161226e9190613a74565b60405180910390a450505050505050565b60045f9054906101000a900473ffffffffffffffffffffffffffffffffffffffff1673ffffffffffffffffffffffffffffffffffffffff163373ffffffffffffffffffffffffffffffffffffffff1614612305576040517fea8e4eb500000000000000000000000000000000000000000000000000000000815260040160405180910390fd5b8060018110806123155750600381115b1561234c576040517fe142361700000000000000000000000000000000000000000000000000000000815260040160405180910390fd5b5f73ffffffffffffffffffffffffffffffffffffffff168473ffffffffffffffffffffffffffffffffffffffff16036123b1576040517fd92e233d00000000000000000000000000000000000000000000000000000000815260040160405180910390fd5b5f60095f8573ffffffffffffffffffffffffffffffffffffffff1673ffffffffffffffffffffffffffffffffffffffff1681526020019081526020015f205490505f810361242b576040517fea8e4eb500000000000000000000000000000000000000000000000000000000815260040160405180910390fd5b5f6124368285612711565b90505f60065f8381526020019081526020015f2090505f815f01805461245b9061477c565b905003612494576040517f07a9209500000000000000000000000000000000000000000000000000000000815260040160405180910390fd5b5f81600301541180156124af57508060030154816004015410155b156124e6576040517fd05cb60900000000000000000000000000000000000000000000000000000000815260040160405180910390fd5b806004015f8154809291906124fa9061494d565b91905055504260075f8481526020019081526020015f205f8973ffffffffffffffffffffffffffffffffffffffff1673ffffffffffffffffffffffffffffffffffffffff1681526020019081526020015f208190555061256b8783600160405180602001604052805f815250612a91565b818673ffffffffffffffffffffffffffffffffffffffff168873ffffffffffffffffffffffffffffffffffffffff167f8ae2c241a6057f8691fa52ccc50191571b702e6977d452690b75ed335d591f1f886040516125c99190613a74565b60405180910390a450505050505050565b5f60015f8473ffffffffffffffffffffffffffffffffffffffff1673ffffffffffffffffffffffffffffffffffffffff1681526020019081526020015f205f8373ffffffffffffffffffffffffffffffffffffffff1673ffffffffffffffffffffffffffffffffffffffff1681526020019081526020015f205f9054906101000a900460ff16905092915050565b612679612673612866565b8661286d565b6126868585858585612cad565b5050505050565b612695612b4d565b5f73ffffffffffffffffffffffffffffffffffffffff168173ffffffffffffffffffffffffffffffffffffffff1603612705575f6040517f1e4fbdf70000000000000000000000000000000000000000000000000000000081526004016126fc91906143f6565b60405180910390fd5b61270e81612bd4565b50565b5f816103e8846127219190614c79565b61272b9190614cba565b905092915050565b5f7f01ffc9a7000000000000000000000000000000000000000000000000000000007bffffffffffffffffffffffffffffffffffffffffffffffffffffffff1916827bffffffffffffffffffffffffffffffffffffffffffffffffffffffff1916149050919050565b60605f60016127aa84612db4565b0190505f8167ffffffffffffffff8111156127c8576127c7613e75565b5b6040519080825280601f01601f1916602001820160405280156127fa5781602001600182028036833780820191505090505b5090505f82602083010190505b60011561285b578080600190039150507f3031323334353637383961626364656600000000000000000000000000000000600a86061a8153600a85816128505761284f6148f0565b5b0494505f8503612807575b819350505050919050565b5f33905090565b8173ffffffffffffffffffffffffffffffffffffffff168173ffffffffffffffffffffffffffffffffffffffff16141580156128b057506128ae81836125da565b155b156128f45781816040517fe237d9220000000000000000000000000000000000000000000000000000000081526004016128eb929190614ced565b60405180910390fd5b5050565b5f73ffffffffffffffffffffffffffffffffffffffff168473ffffffffffffffffffffffffffffffffffffffff1603612968575f6040517f57f447ce00000000000000000000000000000000000000000000000000000000815260040161295f91906143f6565b60405180910390fd5b5f73ffffffffffffffffffffffffffffffffffffffff168573ffffffffffffffffffffffffffffffffffffffff16036129d8575f6040517f01a835140000000000000000000000000000000000000000000000000000000081526004016129cf91906143f6565b60405180910390fd5b6129e785858585856001612f05565b5050505050565b5f73ffffffffffffffffffffffffffffffffffffffff168373ffffffffffffffffffffffffffffffffffffffff1603612a5e575f6040517f01a83514000000000000000000000000000000000000000000000000000000008152600401612a5591906143f6565b60405180910390fd5b5f80612a6a8484612faf565b91509150612a8a855f848460405180602001604052805f8152505f612f05565b5050505050565b5f73ffffffffffffffffffffffffffffffffffffffff168473ffffffffffffffffffffffffffffffffffffffff1603612b01575f6040517f57f447ce000000000000000000000000000000000000000000000000000000008152600401612af891906143f6565b60405180910390fd5b5f80612b0d8585612faf565b91509150612b1f5f878484875f612f05565b505050505050565b5f60208202602084010151905092915050565b5f60208202602084010151905092915050565b612b55612866565b73ffffffffffffffffffffffffffffffffffffffff16612b73611903565b73ffffffffffffffffffffffffffffffffffffffff1614612bd257612b96612866565b6040517f118cdaa7000000000000000000000000000000000000000000000000000000008152600401612bc991906143f6565b60405180910390fd5b565b5f60035f9054906101000a900473ffffffffffffffffffffffffffffffffffffffff1690508160035f6101000a81548173ffffffffffffffffffffffffffffffffffffffff021916908373ffffffffffffffffffffffffffffffffffffffff1602179055508173ffffffffffffffffffffffffffffffffffffffff168173ffffffffffffffffffffffffffffffffffffffff167f8be0079c531659141344cd1fd0a4f28419497f9722a3daafe3b4186f6b6457e060405160405180910390a35050565b612ca9612ca2612866565b8383612fdf565b5050565b5f73ffffffffffffffffffffffffffffffffffffffff168473ffffffffffffffffffffffffffffffffffffffff1603612d1d575f6040517f57f447ce000000000000000000000000000000000000000000000000000000008152600401612d1491906143f6565b60405180910390fd5b5f73ffffffffffffffffffffffffffffffffffffffff168573ffffffffffffffffffffffffffffffffffffffff1603612d8d575f6040517f01a83514000000000000000000000000000000000000000000000000000000008152600401612d8491906143f6565b60405180910390fd5b5f80612d998585612faf565b91509150612dab87878484875f612f05565b50505050505050565b5f805f90507a184f03e93ff9f4daa797ed6e38ed64bf6a1f0100000000000000008310612e10577a184f03e93ff9f4daa797ed6e38ed64bf6a1f0100000000000000008381612e0657612e056148f0565b5b0492506040810190505b6d04ee2d6d415b85acef81000000008310612e4d576d04ee2d6d415b85acef81000000008381612e4357612e426148f0565b5b0492506020810190505b662386f26fc100008310612e7c57662386f26fc100008381612e7257612e716148f0565b5b0492506010810190505b6305f5e1008310612ea5576305f5e1008381612e9b57612e9a6148f0565b5b0492506008810190505b6127108310612eca576127108381612ec057612ebf6148f0565b5b0492506004810190505b60648310612eed5760648381612ee357612ee26148f0565b5b0492506002810190505b600a8310612efc576001810190505b80915050919050565b612f11868686866131b8565b5f73ffffffffffffffffffffffffffffffffffffffff168573ffffffffffffffffffffffffffffffffffffffff1614612fa7575f612f4d612866565b90508115612f6857612f63818888888888613269565b612fa5565b5f612f7c5f87612b3a90919063ffffffff16565b90505f612f925f87612b3a90919063ffffffff16565b9050612fa2838a8a85858a613418565b50505b505b505050505050565b60608060405191506001825283602083015260408201905060018152826020820152604081016040529250929050565b5f73ffffffffffffffffffffffffffffffffffffffff168373ffffffffffffffffffffffffffffffffffffffff160361304f575f6040517f3e31884e00000000000000000000000000000000000000000000000000000000815260040161304691906143f6565b60405180910390fd5b5f73ffffffffffffffffffffffffffffffffffffffff168273ffffffffffffffffffffffffffffffffffffffff16036130bf575f6040517fced3e1000000000000000000000000000000000000000000000000000000000081526004016130b691906143f6565b60405180910390fd5b8060015f8573ffffffffffffffffffffffffffffffffffffffff1673ffffffffffffffffffffffffffffffffffffffff1681526020019081526020015f205f8473ffffffffffffffffffffffffffffffffffffffff1673ffffffffffffffffffffffffffffffffffffffff1681526020019081526020015f205f6101000a81548160ff0219169083151502179055508173ffffffffffffffffffffffffffffffffffffffff168373ffffffffffffffffffffffffffffffffffffffff167f17307eab39ab6107e8899845ad3d59bd9653f200f220920489ca2b5937696c31836040516131ab9190613b8c565b60405180910390a3505050565b5f73ffffffffffffffffffffffffffffffffffffffff168473ffffffffffffffffffffffffffffffffffffffff161415801561322057505f73ffffffffffffffffffffffffffffffffffffffff168373ffffffffffffffffffffffffffffffffffffffff1614155b15613257576040517f8cd22d1900000000000000000000000000000000000000000000000000000000815260040160405180910390fd5b613263848484846135c7565b50505050565b5f8473ffffffffffffffffffffffffffffffffffffffff163b1115613410578373ffffffffffffffffffffffffffffffffffffffff1663bc197c8187878686866040518663ffffffff1660e01b81526004016132c9959493929190614d66565b6020604051808303815f875af192505050801561330457506040513d601f19601f820116820180604052508101906133019190614de0565b60015b613385573d805f8114613332576040519150601f19603f3d011682016040523d82523d5f602084013e613337565b606091505b505f81510361337d57846040517f57f447ce00000000000000000000000000000000000000000000000000000000815260040161337491906143f6565b60405180910390fd5b805160208201fd5b63bc197c8160e01b7bffffffffffffffffffffffffffffffffffffffffffffffffffffffff1916817bffffffffffffffffffffffffffffffffffffffffffffffffffffffff19161461340e57846040517f57f447ce00000000000000000000000000000000000000000000000000000000815260040161340591906143f6565b60405180910390fd5b505b505050505050565b5f8473ffffffffffffffffffffffffffffffffffffffff163b11156135bf578373ffffffffffffffffffffffffffffffffffffffff1663f23a6e6187878686866040518663ffffffff1660e01b8152600401613478959493929190614e0b565b6020604051808303815f875af19250505080156134b357506040513d601f19601f820116820180604052508101906134b09190614de0565b60015b613534573d805f81146134e1576040519150601f19603f3d011682016040523d82523d5f602084013e6134e6565b606091505b505f81510361352c57846040517f57f447ce00000000000000000000000000000000000000000000000000000000815260040161352391906143f6565b60405180910390fd5b805160208201fd5b63f23a6e6160e01b7bffffffffffffffffffffffffffffffffffffffffffffffffffffffff1916817bffffffffffffffffffffffffffffffffffffffffffffffffffffffff1916146135bd57846040517f57f447ce0000000000000000000000000000000000000000000000000000000081526004016135b491906143f6565b60405180910390fd5b505b505050505050565b805182511461361157815181516040517f5b059991000000000000000000000000000000000000000000000000000000008152600401613608929190613acb565b60405180910390fd5b5f61361a612866565b90505f5b8351811015613816575f61363b8286612b3a90919063ffffffff16565b90505f6136518386612b3a90919063ffffffff16565b90505f73ffffffffffffffffffffffffffffffffffffffff168873ffffffffffffffffffffffffffffffffffffffff1614613774575f805f8481526020019081526020015f205f8a73ffffffffffffffffffffffffffffffffffffffff1673ffffffffffffffffffffffffffffffffffffffff1681526020019081526020015f205490508181101561372057888183856040517f03dee4c50000000000000000000000000000000000000000000000000000000081526004016137179493929190614e63565b60405180910390fd5b8181035f808581526020019081526020015f205f8b73ffffffffffffffffffffffffffffffffffffffff1673ffffffffffffffffffffffffffffffffffffffff1681526020019081526020015f2081905550505b5f73ffffffffffffffffffffffffffffffffffffffff168773ffffffffffffffffffffffffffffffffffffffff161461380957805f808481526020019081526020015f205f8973ffffffffffffffffffffffffffffffffffffffff1673ffffffffffffffffffffffffffffffffffffffff1681526020019081526020015f205f8282546138019190614cba565b925050819055505b505080600101905061361e565b5060018351036138d1575f6138345f85612b3a90919063ffffffff16565b90505f61384a5f85612b3a90919063ffffffff16565b90508573ffffffffffffffffffffffffffffffffffffffff168773ffffffffffffffffffffffffffffffffffffffff168473ffffffffffffffffffffffffffffffffffffffff167fc3d58168c5ae7397731d063d5bbf3d657854427343f4c083240f7aacaa2d0f6285856040516138c2929190613acb565b60405180910390a45050613950565b8373ffffffffffffffffffffffffffffffffffffffff168573ffffffffffffffffffffffffffffffffffffffff168273ffffffffffffffffffffffffffffffffffffffff167f4a39dc06d4c0dbc64b70af90fd698a233a518aa5d07e595d983b8c0526c8f7fb8686604051613947929190614ea6565b60405180910390a45b5050505050565b6040518060c00160405280606081526020015f8152602001606081526020015f81526020015f81526020015f81525090565b5f604051905090565b5f80fd5b5f80fd5b5f73ffffffffffffffffffffffffffffffffffffffff82169050919050565b5f6139c38261399a565b9050919050565b6139d3816139b9565b81146139dd575f80fd5b50565b5f813590506139ee816139ca565b92915050565b5f819050919050565b613a06816139f4565b8114613a10575f80fd5b50565b5f81359050613a21816139fd565b92915050565b5f8060408385031215613a3d57613a3c613992565b5b5f613a4a858286016139e0565b9250506020613a5b85828601613a13565b9150509250929050565b613a6e816139f4565b82525050565b5f602082019050613a875f830184613a65565b92915050565b5f8060408385031215613aa357613aa2613992565b5b5f613ab0858286016139e0565b9250506020613ac1858286016139e0565b9150509250929050565b5f604082019050613ade5f830185613a65565b613aeb6020830184613a65565b9392505050565b5f7fffffffff0000000000000000000000000000000000000000000000000000000082169050919050565b613b2681613af2565b8114613b30575f80fd5b50565b5f81359050613b4181613b1d565b92915050565b5f60208284031215613b5c57613b5b613992565b5b5f613b6984828501613b33565b91505092915050565b5f8115159050919050565b613b8681613b72565b82525050565b5f602082019050613b9f5f830184613b7d565b92915050565b5f60208284031215613bba57613bb9613992565b5b5f613bc784828501613a13565b91505092915050565b5f81519050919050565b5f82825260208201905092915050565b5f5b83811015613c07578082015181840152602081019050613bec565b5f8484015250505050565b5f601f19601f8301169050919050565b5f613c2c82613bd0565b613c368185613bda565b9350613c46818560208601613bea565b613c4f81613c12565b840191505092915050565b613c63816139f4565b82525050565b5f60c083015f8301518482035f860152613c838282613c22565b9150506020830151613c986020860182613c5a565b5060408301518482036040860152613cb08282613c22565b9150506060830151613cc56060860182613c5a565b506080830151613cd86080860182613c5a565b5060a0830151613ceb60a0860182613c5a565b508091505092915050565b5f6020820190508181035f830152613d0e8184613c69565b905092915050565b5f82825260208201905092915050565b5f613d3082613bd0565b613d3a8185613d16565b9350613d4a818560208601613bea565b613d5381613c12565b840191505092915050565b5f6020820190508181035f830152613d768184613d26565b905092915050565b5f60208284031215613d9357613d92613992565b5b5f613da0848285016139e0565b91505092915050565b5f81519050919050565b5f82825260208201905092915050565b5f819050602082019050919050565b5f613ddd8383613c5a565b60208301905092915050565b5f602082019050919050565b5f613dff82613da9565b613e098185613db3565b9350613e1483613dc3565b805f5b83811015613e44578151613e2b8882613dd2565b9750613e3683613de9565b925050600181019050613e17565b5085935050505092915050565b5f6020820190508181035f830152613e698184613df5565b905092915050565b5f80fd5b7f4e487b71000000000000000000000000000000000000000000000000000000005f52604160045260245ffd5b613eab82613c12565b810181811067ffffffffffffffff82111715613eca57613ec9613e75565b5b80604052505050565b5f613edc613989565b9050613ee88282613ea2565b919050565b5f67ffffffffffffffff821115613f0757613f06613e75565b5b602082029050602081019050919050565b5f80fd5b5f613f2e613f2984613eed565b613ed3565b90508083825260208201905060208402830185811115613f5157613f50613f18565b5b835b81811015613f7a5780613f668882613a13565b845260208401935050602081019050613f53565b5050509392505050565b5f82601f830112613f9857613f97613e71565b5b8135613fa8848260208601613f1c565b91505092915050565b5f80fd5b5f67ffffffffffffffff821115613fcf57613fce613e75565b5b613fd882613c12565b9050602081019050919050565b828183375f83830152505050565b5f61400561400084613fb5565b613ed3565b90508281526020810184848401111561402157614020613fb1565b5b61402c848285613fe5565b509392505050565b5f82601f83011261404857614047613e71565b5b8135614058848260208601613ff3565b91505092915050565b5f805f805f60a0868803121561407a57614079613992565b5b5f614087888289016139e0565b9550506020614098888289016139e0565b945050604086013567ffffffffffffffff8111156140b9576140b8613996565b5b6140c588828901613f84565b935050606086013567ffffffffffffffff8111156140e6576140e5613996565b5b6140f288828901613f84565b925050608086013567ffffffffffffffff81111561411357614112613996565b5b61411f88828901614034565b9150509295509295909350565b5f805f6060848603121561414357614142613992565b5b5f614150868287016139e0565b935050602061416186828701613a13565b925050604061417286828701613a13565b9150509250925092565b5f805f6060848603121561419357614192613992565b5b5f6141a0868287016139e0565b93505060206141b1868287016139e0565b92505060406141c286828701613a13565b9150509250925092565b5f67ffffffffffffffff8211156141e6576141e5613e75565b5b602082029050602081019050919050565b5f614209614204846141cc565b613ed3565b9050808382526020820190506020840283018581111561422c5761422b613f18565b5b835b81811015614255578061424188826139e0565b84526020840193505060208101905061422e565b5050509392505050565b5f82601f83011261427357614272613e71565b5b81356142838482602086016141f7565b91505092915050565b5f80604083850312156142a2576142a1613992565b5b5f83013567ffffffffffffffff8111156142bf576142be613996565b5b6142cb8582860161425f565b925050602083013567ffffffffffffffff8111156142ec576142eb613996565b5b6142f885828601613f84565b9150509250929050565b5f67ffffffffffffffff82111561431c5761431b613e75565b5b61432582613c12565b9050602081019050919050565b5f61434461433f84614302565b613ed3565b9050828152602081018484840111156143605761435f613fb1565b5b61436b848285613fe5565b509392505050565b5f82601f83011261438757614386613e71565b5b8135614397848260208601614332565b91505092915050565b5f602082840312156143b5576143b4613992565b5b5f82013567ffffffffffffffff8111156143d2576143d1613996565b5b6143de84828501614373565b91505092915050565b6143f0816139b9565b82525050565b5f6020820190506144095f8301846143e7565b92915050565b5f806040838503121561442557614424613992565b5b5f61443285828601613a13565b9250506020614443858286016139e0565b9150509250929050565b5f60c0820190508181035f8301526144658189613d26565b90506144746020830188613a65565b81810360408301526144868187613d26565b90506144956060830186613a65565b6144a26080830185613a65565b6144af60a0830184613a65565b979650505050505050565b5f805f805f805f60e0888a0312156144d5576144d4613992565b5b5f6144e28a828b016139e0565b97505060206144f38a828b01613a13565b965050604088013567ffffffffffffffff81111561451457614513613996565b5b6145208a828b01614373565b95505060606145318a828b01613a13565b945050608088013567ffffffffffffffff81111561455257614551613996565b5b61455e8a828b01614373565b93505060a061456f8a828b01613a13565b92505060c06145808a828b01613a13565b91505092959891949750929550565b61459881613b72565b81146145a2575f80fd5b50565b5f813590506145b38161458f565b92915050565b5f80604083850312156145cf576145ce613992565b5b5f6145dc858286016139e0565b92505060206145ed858286016145a5565b9150509250929050565b5f806040838503121561460d5761460c613992565b5b5f61461a85828601613a13565b925050602061462b85828601613a13565b9150509250929050565b5f805f805f60a0868803121561464e5761464d613992565b5b5f61465b888289016139e0565b955050602061466c888289016139e0565b945050604061467d88828901613a13565b935050606061468e88828901613a13565b925050608086013567ffffffffffffffff8111156146af576146ae613996565b5b6146bb88828901614034565b9150509295509295909350565b7f4e487b71000000000000000000000000000000000000000000000000000000005f52601160045260245ffd5b5f6146ff826139f4565b915061470a836139f4565b9250828203905081811115614722576147216146c8565b5b92915050565b5f614732826139f4565b91505f8203614744576147436146c8565b5b600182039050919050565b7f4e487b71000000000000000000000000000000000000000000000000000000005f52602260045260245ffd5b5f600282049050600182168061479357607f821691505b6020821081036147a6576147a561474f565b5b50919050565b5f81905092915050565b5f819050815f5260205f209050919050565b5f81546147d48161477c565b6147de81866147ac565b9450600182165f81146147f8576001811461480d5761483f565b60ff198316865281151582028601935061483f565b614816856147b6565b5f5b8381101561483757815481890152600182019150602081019050614818565b838801955050505b50505092915050565b5f61485282613bd0565b61485c81856147ac565b935061486c818560208601613bea565b80840191505092915050565b7f2e6a736f6e0000000000000000000000000000000000000000000000000000005f82015250565b5f6148ac6005836147ac565b91506148b782614878565b600582019050919050565b5f6148cd82856147c8565b91506148d98284614848565b91506148e4826148a0565b91508190509392505050565b7f4e487b71000000000000000000000000000000000000000000000000000000005f52601260045260245ffd5b5f614927826139f4565b9150614932836139f4565b925082614942576149416148f0565b5b828204905092915050565b5f614957826139f4565b91507fffffffffffffffffffffffffffffffffffffffffffffffffffffffffffffffff8203614989576149886146c8565b5b600182019050919050565b7f4e487b71000000000000000000000000000000000000000000000000000000005f52603260045260245ffd5b5f6020601f8301049050919050565b5f82821b905092915050565b5f60088302614a0b7fffffffffffffffffffffffffffffffffffffffffffffffffffffffffffffffff826149d0565b614a1586836149d0565b95508019841693508086168417925050509392505050565b5f819050919050565b5f614a50614a4b614a46846139f4565b614a2d565b6139f4565b9050919050565b5f819050919050565b614a6983614a36565b614a7d614a7582614a57565b8484546149dc565b825550505050565b5f90565b614a91614a85565b614a9c818484614a60565b505050565b5b81811015614abf57614ab45f82614a89565b600181019050614aa2565b5050565b601f821115614b0457614ad5816147b6565b614ade846149c1565b81016020851015614aed578190505b614b01614af9856149c1565b830182614aa1565b50505b505050565b5f82821c905092915050565b5f614b245f1984600802614b09565b1980831691505092915050565b5f614b3c8383614b15565b9150826002028217905092915050565b614b5582613bd0565b67ffffffffffffffff811115614b6e57614b6d613e75565b5b614b78825461477c565b614b83828285614ac3565b5f60209050601f831160018114614bb4575f8415614ba2578287015190505b614bac8582614b31565b865550614c13565b601f198416614bc2866147b6565b5f5b82811015614be957848901518255600182019150602085019450602081019050614bc4565b86831015614c065784890151614c02601f891682614b15565b8355505b6001600288020188555050505b505050505050565b5f614c25826139f4565b9150614c30836139f4565b925082614c4057614c3f6148f0565b5b828206905092915050565b5f6040820190508181035f830152614c638185613d26565b9050614c726020830184613a65565b9392505050565b5f614c83826139f4565b9150614c8e836139f4565b9250828202614c9c816139f4565b91508282048414831517614cb357614cb26146c8565b5b5092915050565b5f614cc4826139f4565b9150614ccf836139f4565b9250828201905080821115614ce757614ce66146c8565b5b92915050565b5f604082019050614d005f8301856143e7565b614d0d60208301846143e7565b9392505050565b5f81519050919050565b5f82825260208201905092915050565b5f614d3882614d14565b614d428185614d1e565b9350614d52818560208601613bea565b614d5b81613c12565b840191505092915050565b5f60a082019050614d795f8301886143e7565b614d8660208301876143e7565b8181036040830152614d988186613df5565b90508181036060830152614dac8185613df5565b90508181036080830152614dc08184614d2e565b90509695505050505050565b5f81519050614dda81613b1d565b92915050565b5f60208284031215614df557614df4613992565b5b5f614e0284828501614dcc565b91505092915050565b5f60a082019050614e1e5f8301886143e7565b614e2b60208301876143e7565b614e386040830186613a65565b614e456060830185613a65565b8181036080830152614e578184614d2e565b90509695505050505050565b5f608082019050614e765f8301876143e7565b614e836020830186613a65565b614e906040830185613a65565b614e9d6060830184613a65565b95945050505050565b5f6040820190508181035f830152614ebe8185613df5565b90508181036020830152614ed28184613df5565b9050939250505056fea2646970667358221220b4a2f6bfd95f7270d54e6df434e83f03eaf84d129ddf76e7621175a5f82a670e64736f6c63430008180033","linkReferences":{}},"methodIdentifiers":{"CREATOR_MULTIPLIER()":"6695b33a","LOYALTY_180_DAYS()":"d85ca2e1","LOYALTY_30_DAYS()":"b0b9a503","LOYALTY_365_DAYS()":"d338884f","LOYALTY_90_DAYS()":"790d3d5e","TIER_BRONZE()":"3c0847f5","TIER_GOLD()":"e3d3f843","TIER_SILVER()":"9a46e412","balanceOf(address,uint256)":"00fdd58e","balanceOfBatch(address[],uint256[])":"4e1273f4","burnBadge(address,address,uint256)":"4c274d45","calculateLoyaltyBonus(uint256)":"ab9959df","calculateTokenId(uint256,uint256)":"c2c75839","createTier(address,uint256,string,uint256,string,uint256,uint256)":"9ab45a45","creatorByIndex(uint256)":"6d571b6a","creatorIndex(address)":"97e5cc6c","creatorTiers(address,uint256)":"ba6682b0","getCreatorFromTokenId(uint256)":"12aef832","getCreatorTiers(address)":"0ecd9a6d","getTierData(uint256)":"0c9138e6","getTierFromTokenId(uint256)":"66879493","getTierLevel(address,address)":"9c671807","getUserLoyaltyBonus(address,address)":"01815f98","isApprovedForAll(address,address)":"e985e9c5","mintBadge(address,uint256)":"e42bff66","mintBadgeTo(address,address,uint256)":"e714bb5f","mintTimestamps(uint256,address)":"7cc77fac","owner()":"8da5cb5b","registerCreator(address,uint256)":"2768a9b6","renounceOwnership()":"715018a6","safeBatchTransferFrom(address,address,uint256[],uint256[],bytes)":"2eb2c2d6","safeTransferFrom(address,address,uint256,uint256,bytes)":"f242432a","setApprovalForAll(address,bool)":"a22cb465","setBaseURI(string)":"55f804b3","setSubscriptionManager(address)":"c05b3585","subscriptionManager()":"bf158fd2","supportsInterface(bytes4)":"01ffc9a7","tierData(uint256)":"7efab5f3","transferOwnership(address)":"f2fde38b","upgradeBadge(address,uint256,uint256)":"37201fe6","uri(uint256)":"0e89341c"},"id":43}