{"abi":[{"type":"constructor","inputs":[{"name":"_badge","type":"address","internalType":"address"},{"name":"_feeRecipient","type":"address","internalType":"address"}],"stateMutability":"nonpayable"},{"type":"function","name":"TIER_BRONZE","inputs":[],"outputs":[{"name":"","type":"uint256","internalType":"uint256"}],"stateMutability":"view"},{"type":"function","name":"TIER_GOLD","inputs":[],"outputs":[{"name":"","type":"uint256","internalType":"uint256"}],"stateMutability":"view"},{"type":"function","name":"TIER_SILVER","inputs":[],"outputs":[{"name":"","type":"uint256","internalType":"uint256"}],"stateMutability":"view"},{"type":"function","name":"badge","inputs":[],"outputs":[{"name":"","type":"address","internalType":"contract TieredBadge"}],"stateMutability":"view"},{"type":"function","name":"cancelSubscription","inputs":[{"name":"creator","type":"address","internalType":"address"}],"outputs":[],"stateMutability":"nonpayable"},{"type":"function","name":"checkAccess","inputs":[{"name":"_creator","type":"address","internalType":"address"},{"name":"_subscriber","type":"address","internalType":"address"},{"name":"_postId","type":"uint256","internalType":"uint256"}],"outputs":[{"name":"","type":"bool","internalType":"bool"}],"stateMutability":"view"},{"type":"function","name":"configureTier","inputs":[{"name":"tier","type":"uint256","internalType":"uint256"},{"name":"price","type":"uint256","internalType":"uint256"},{"name":"duration","type":"uint256","internalType":"uint256"},{"name":"name","type":"string","internalType":"string"},{"name":"metadataURI","type":"string","internalType":"string"},{"name":"maxSupply","type":"uint256","internalType":"uint256"},{"name":"minHoldTime","type":"uint256","internalType":"uint256"}],"outputs":[],"stateMutability":"nonpayable"},{"type":"function","name":"creatorByIndex","inputs":[{"name":"","type":"uint256","internalType":"uint256"}],"outputs":[{"name":"","type":"address","internalType":"address"}],"stateMutability":"view"},{"type":"function","name":"creatorCount","inputs":[],"outputs":[{"name":"","type":"uint256","internalType":"uint256"}],"stateMutability":"view"},{"type":"function","name":"creatorRevenue","inputs":[{"name":"","type":"address","internalType":"address"}],"outputs":[{"name":"","type":"uint256","internalType":"uint256"}],"stateMutability":"view"},{"type":"function","name":"creators","inputs":[{"name":"","type":"address","internalType":"address"}],"outputs":[{"name":"wallet","type":"address","internalType":"address"},{"name":"handle","type":"string","internalType":"string"},{"name":"tierIds","type":"uint256","internalType":"uint256"},{"name":"isActive","type":"bool","internalType":"bool"},{"name":"totalSubscribers","type":"uint256","internalType":"uint256"},{"name":"creatorIndex","type":"uint256","internalType":"uint256"},{"name":"basePrice","type":"uint256","internalType":"uint256"}],"stateMutability":"view"},{"type":"function","name":"deactivateCreator","inputs":[{"name":"creator","type":"address","internalType":"address"}],"outputs":[],"stateMutability":"nonpayable"},{"type":"function","name":"deactivateTier","inputs":[{"name":"tier","type":"uint256","internalType":"uint256"}],"outputs":[],"stateMutability":"nonpayable"},{"type":"function","name":"feeRecipient","inputs":[],"outputs":[{"name":"","type":"address","internalType":"address"}],"stateMutability":"view"},{"type":"function","name":"getCreator","inputs":[{"name":"creator","type":"address","internalType":"address"}],"outputs":[{"name":"","type":"tuple","internalType":"struct SubscriptionManager.Creator","components":[{"name":"wallet","type":"address","internalType":"address"},{"name":"handle","type":"string","internalType":"string"},{"name":"tierIds","type":"uint256","internalType":"uint256"},{"name":"isActive","type":"bool","internalType":"bool"},{"name":"totalSubscribers","type":"uint256","internalType":"uint256"},{"name":"creatorIndex","type":"uint256","internalType":"uint256"},{"name":"basePrice","type":"uint256","internalType":"uint256"}]}],"stateMutability":"view"},{"type":"function","name":"getCreatorByHandle","inputs":[{"name":"handle","type":"string","internalType":"string"}],"outputs":[{"name":"","type":"address","internalType":"address"}],"stateMutability":"view"},{"type":"function","name":"getCreatorRevenue","inputs":[{"name":"creator","type":"address","internalType":"address"}],"outputs":[{"name":"","type":"uint256","internalType":"uint256"}],"stateMutability":"view"},{"type":"function","name":"getPendingWithdraw","inputs":[{"name":"creator","type":"address","internalType":"address"}],"outputs":[{"name":"","type":"uint256","internalType":"uint256"}],"stateMutability":"view"},{"type":"function","name":"getSubscription","inputs":[{"name":"creator","type":"address","internalType":"address"},{"name":"subscriber","type":"address","internalType":"address"}],"outputs":[{"name":"","type":"tuple","internalType":"struct SubscriptionManager.Subscription","components":[{"name":"subscriber","type":"address","internalType":"address"},{"name":"tierId","type":"uint256","internalType":"uint256"},{"name":"startDate","type":"uint256","internalType":"uint256"},{"name":"renewalDate","type":"uint256","internalType":"uint256"},{"name":"isActive","type":"bool","internalType":"bool"}]}],"stateMutability":"view"},{"type":"function","name":"getSubscriptionTier","inputs":[{"name":"user","type":"address","internalType":"address"},{"name":"creator","type":"address","internalType":"address"}],"outputs":[{"name":"","type":"uint256","internalType":"uint256"}],"stateMutability":"view"},{"type":"function","name":"getTierConfig","inputs":[{"name":"creator","type":"address","internalType":"address"},{"name":"tier","type":"uint256","internalType":"uint256"}],"outputs":[{"name":"","type":"tuple","internalType":"struct SubscriptionManager.TierConfig","components":[{"name":"name","type":"string","internalType":"string"},{"name":"price","type":"uint256","internalType":"uint256"},{"name":"duration","type":"uint256","internalType":"uint256"},{"name":"isActive","type":"bool","internalType":"bool"},{"name":"metadataURI","type":"string","internalType":"string"},{"name":"maxSupply","type":"uint256","internalType":"uint256"},{"name":"minHoldTime","type":"uint256","internalType":"uint256"}]}],"stateMutability":"view"},{"type":"function","name":"handleToCreator","inputs":[{"name":"","type":"string","internalType":"string"}],"outputs":[{"name":"","type":"address","internalType":"address"}],"stateMutability":"view"},{"type":"function","name":"hasActiveSubscription","inputs":[{"name":"user","type":"address","internalType":"address"},{"name":"creator","type":"address","internalType":"address"}],"outputs":[{"name":"","type":"bool","internalType":"bool"}],"stateMutability":"view"},{"type":"function","name":"owner","inputs":[],"outputs":[{"name":"","type":"address","internalType":"address"}],"stateMutability":"view"},{"type":"function","name":"pendingPlatformFees","inputs":[],"outputs":[{"name":"","type":"uint256","internalType":"uint256"}],"stateMutability":"view"},{"type":"function","name":"pendingWithdraw","inputs":[{"name":"","type":"address","internalType":"address"}],"outputs":[{"name":"","type":"uint256","internalType":"uint256"}],"stateMutability":"view"},{"type":"function","name":"platformFeeBps","inputs":[],"outputs":[{"name":"","type":"uint256","internalType":"uint256"}],"stateMutability":"view"},{"type":"function","name":"registerCreator","inputs":[{"name":"_handle","type":"string","internalType":"string"},{"name":"_basePrice","type":"uint256","internalType":"uint256"}],"outputs":[],"stateMutability":"nonpayable"},{"type":"function","name":"renewSubscription","inputs":[{"name":"_creator","type":"address","internalType":"address"}],"outputs":[],"stateMutability":"payable"},{"type":"function","name":"renounceOwnership","inputs":[],"outputs":[],"stateMutability":"nonpayable"},{"type":"function","name":"setFeeRecipient","inputs":[{"name":"newRecipient","type":"address","internalType":"address"}],"outputs":[],"stateMutability":"nonpayable"},{"type":"function","name":"setPlatformFee","inputs":[{"name":"newFeeBps","type":"uint256","internalType":"uint256"}],"outputs":[],"stateMutability":"nonpayable"},{"type":"function","name":"subscribe","inputs":[{"name":"_creator","type":"address","internalType":"address"},{"name":"_tierId","type":"uint256","internalType":"uint256"}],"outputs":[],"stateMutability":"payable"},{"type":"function","name":"subscriptions","inputs":[{"name":"","type":"address","internalType":"address"},{"name":"","type":"address","internalType":"address"}],"outputs":[{"name":"subscriber","type":"address","internalType":"address"},{"name":"tierId","type":"uint256","internalType":"uint256"},{"name":"startDate","type":"uint256","internalType":"uint256"},{"name":"renewalDate","type":"uint256","internalType":"uint256"},{"name":"isActive","type":"bool","internalType":"bool"}],"stateMutability":"view"},{"type":"function","name":"tierConfigs","inputs":[{"name":"","type":"address","internalType":"address"},{"name":"","type":"uint256","internalType":"uint256"}],"outputs":[{"name":"name","type":"string","internalType":"string"},{"name":"price","type":"uint256","internalType":"uint256"},{"name":"duration","type":"uint256","internalType":"uint256"},{"name":"isActive","type":"bool","internalType":"bool"},{"name":"metadataURI","type":"string","internalType":"string"},{"name":"maxSupply","type":"uint256","internalType":"uint256"},{"name":"minHoldTime","type":"uint256","internalType":"uint256"}],"stateMutability":"view"},{"type":"function","name":"transferOwnership","inputs":[{"name":"newOwner","type":"address","internalType":"address"}],"outputs":[],"stateMutability":"nonpayable"},{"type":"function","name":"upgradeSubscription","inputs":[{"name":"_creator","type":"address","internalType":"address"},{"name":"_newTierId","type":"uint256","internalType":"uint256"}],"outputs":[],"stateMutability":"payable"},{"type":"function","name":"withdraw","inputs":[],"outputs":[],"stateMutability":"nonpayable"},{"type":"function","name":"withdrawPlatformFees","inputs":[],"outputs":[],"stateMutability":"nonpayable"},{"type":"event","name":"ContentUnlocked","inputs":[{"name":"creator","type":"address","indexed":true,"internalType":"address"},{"name":"postId","type":"uint256","indexed":false,"internalType":"uint256"},{"name":"subscriber","type":"address","indexed":true,"internalType":"address"}],"anonymous":false},{"type":"event","name":"CreatorRegistered","inputs":[{"name":"creator","type":"address","indexed":true,"internalType":"address"},{"name":"handle","type":"string","indexed":false,"internalType":"string"},{"name":"creatorIndex","type":"uint256","indexed":true,"internalType":"uint256"}],"anonymous":false},{"type":"event","name":"OwnershipTransferred","inputs":[{"name":"previousOwner","type":"address","indexed":true,"internalType":"address"},{"name":"newOwner","type":"address","indexed":true,"internalType":"address"}],"anonymous":false},{"type":"event","name":"PlatformFeesWithdrawn","inputs":[{"name":"recipient","type":"address","indexed":true,"internalType":"address"},{"name":"amount","type":"uint256","indexed":false,"internalType":"uint256"}],"anonymous":false},{"type":"event","name":"Subscribed","inputs":[{"name":"creator","type":"address","indexed":true,"internalType":"address"},{"name":"subscriber","type":"address","indexed":true,"internalType":"address"},{"name":"tierId","type":"uint256","indexed":false,"internalType":"uint256"},{"name":"startDate","type":"uint256","indexed":false,"internalType":"uint256"},{"name":"renewalDate","type":"uint256","indexed":false,"internalType":"uint256"},{"name":"amount","type":"uint256","indexed":false,"internalType":"uint256"}],"anonymous":false},{"type":"event","name":"SubscriptionCancelled","inputs":[{"name":"creator","type":"address","indexed":true,"internalType":"address"},{"name":"subscriber","type":"address","indexed":true,"internalType":"address"}],"anonymous":false},{"type":"event","name":"SubscriptionRenewed","inputs":[{"name":"creator","type":"address","indexed":true,"internalType":"address"},{"name":"subscriber","type":"address","indexed":true,"internalType":"address"},{"name":"newRenewalDate","type":"uint256","indexed":false,"internalType":"uint256"}],"anonymous":false},{"type":"event","name":"SubscriptionUpgraded","inputs":[{"name":"creator","type":"address","indexed":true,"internalType":"address"},{"name":"subscriber","type":"address","indexed":true,"internalType":"address"},{"name":"oldTier","type":"uint256","indexed":false,"internalType":"uint256"},{"name":"newTier","type":"uint256","indexed":false,"internalType":"uint256"}],"anonymous":false},{"type":"event","name":"TierConfigured","inputs":[{"name":"creator","type":"address","indexed":true,"internalType":"address"},{"name":"tier","type":"uint256","indexed":true,"internalType":"uint256"},{"name":"name","type":"string","indexed":false,"internalType":"string"},{"name":"price","type":"uint256","indexed":false,"internalType":"uint256"},{"name":"duration","type":"uint256","indexed":false,"internalType":"uint256"}],"anonymous":false},{"type":"event","name":"Withdrawn","inputs":[{"name":"creator","type":"address","indexed":true,"internalType":"address"},{"name":"amount","type":"uint256","indexed":false,"internalType":"uint256"}],"anonymous":false},{"type":"error","name":"AlreadySubscribed","inputs":[]},{"type":"error","name":"CannotDowngrade","inputs":[]},{"type":"error","name":"CreatorAlreadyRegistered","inputs":[]},{"type":"error","name":"CreatorNotActive","inputs":[]},{"type":"error","name":"CreatorNotFound","inputs":[]},{"type":"error","name":"HandleAlreadyTaken","inputs":[]},{"type":"error","name":"HandleTooLong","inputs":[]},{"type":"error","name":"HandleTooShort","inputs":[]},{"type":"error","name":"InsufficientPayment","inputs":[]},{"type":"error","name":"InvalidTier","inputs":[]},{"type":"error","name":"NotSubscribed","inputs":[]},{"type":"error","name":"NothingToWithdraw","inputs":[]},{"type":"error","name":"OwnableInvalidOwner","inputs":[{"name":"owner","type":"address","internalType":"address"}]},{"type":"error","name":"OwnableUnauthorizedAccount","inputs":[{"name":"account","type":"address","internalType":"address"}]},{"type":"error","name":"SameTier","inputs":[]},{"type":"error","name":"SubscriptionExpired","inputs":[]},{"type":"error","name":"TierNotConfigured","inputs":[]},{"type":"error","name":"WithdrawFailed","inputs":[]}],"bytecode":{"object":"0x60a06040526101f460025534801562000016575f80fd5b5060405162004d5638038062004d5683398181016040528101906200003c919062000264565b335f73ffffffffffffffffffffffffffffffffffffffff168173ffffffffffffffffffffffffffffffffffffffff1603620000b0575f6040517f1e4fbdf7000000000000000000000000000000000000000000000000000000008152600401620000a79190620002ba565b60405180910390fd5b620000c1816200013e60201b60201c565b508173ffffffffffffffffffffffffffffffffffffffff1660808173ffffffffffffffffffffffffffffffffffffffff16815250508060035f6101000a81548173ffffffffffffffffffffffffffffffffffffffff021916908373ffffffffffffffffffffffffffffffffffffffff1602179055505050620002d5565b5f805f9054906101000a900473ffffffffffffffffffffffffffffffffffffffff169050815f806101000a81548173ffffffffffffffffffffffffffffffffffffffff021916908373ffffffffffffffffffffffffffffffffffffffff1602179055508173ffffffffffffffffffffffffffffffffffffffff168173ffffffffffffffffffffffffffffffffffffffff167f8be0079c531659141344cd1fd0a4f28419497f9722a3daafe3b4186f6b6457e060405160405180910390a35050565b5f80fd5b5f73ffffffffffffffffffffffffffffffffffffffff82169050919050565b5f6200022e8262000203565b9050919050565b620002408162000222565b81146200024b575f80fd5b50565b5f815190506200025e8162000235565b92915050565b5f80604083850312156200027d576200027c620001ff565b5b5f6200028c858286016200024e565b92505060206200029f858286016200024e565b9150509250929050565b620002b48162000222565b82525050565b5f602082019050620002cf5f830184620002a9565b92915050565b608051614a45620003115f395f8181610e09015281816119e7015281816121c2015281816123ff0152818161269b015261337c0152614a455ff3fe60806040526004361061022f575f3560e01c80638da5cb5b1161012d578063d0b7830b116100aa578063e42979661161006e578063e429796614610863578063e74b981b1461088b578063f2fde38b146108b3578063f308cfca146108db578063f37d65af146109175761022f565b8063d0b7830b146107a1578063d82faa48146107b7578063da1a8a6a146107e1578063e02eb1091461081d578063e3d3f843146108395761022f565b80639a46e412116100f15780639a46e412146106875780639ef7dace146106b1578063a0210309146106ed578063b89d3b4814610729578063d027aab4146107655761022f565b80638da5cb5b146105ad5780638de69284146105d757806391d768de146105f3578063933166e11461061d57806393d81d581461065f5761022f565b80634d29aa98116101bb5780636d65834c1161017f5780636d65834c146104c95780636f0df5f414610505578063715018a61461052d5780637a0c934b146105435780638bd684ee146105855761022f565b80634d29aa98146103995780634e02fbbf146103d55780635b75dd8d146104115780636207d31b1461044d5780636d571b6a1461048d5761022f565b806324d85b191161020257806324d85b19146102dd5780632f98c9e8146103055780633c0847f51461032f5780633ccfd60b14610359578063469048401461036f5761022f565b80630f3038c21461023357806312e8e2c31461024f5780631bbfbb571461027757806322dcd13e146102b3575b5f80fd5b61024d600480360381019061024891906138bb565b610953565b005b34801561025a575f80fd5b50610275600480360381019061027091906138f9565b610f12565b005b348015610282575f80fd5b5061029d60048036038101906102989190613924565b610f69565b6040516102aa919061398e565b60405180910390f35b3480156102be575f80fd5b506102c761104c565b6040516102d491906139b6565b60405180910390f35b3480156102e8575f80fd5b5061030360048036038101906102fe91906139cf565b611052565b005b348015610310575f80fd5b506103196110b4565b60405161032691906139b6565b60405180910390f35b34801561033a575f80fd5b506103436110ba565b60405161035091906139b6565b60405180910390f35b348015610364575f80fd5b5061036d6110bf565b005b34801561037a575f80fd5b506103836112ef565b6040516103909190613a09565b60405180910390f35b3480156103a4575f80fd5b506103bf60048036038101906103ba9190613a22565b611314565b6040516103cc91906139b6565b60405180910390f35b3480156103e0575f80fd5b506103fb60048036038101906103f69190613b9c565b6113ce565b6040516104089190613a09565b60405180910390f35b34801561041c575f80fd5b5061043760048036038101906104329190613a22565b611414565b6040516104449190613c76565b60405180910390f35b348015610458575f80fd5b50610473600480360381019061046e9190613a22565b611533565b604051610484959493929190613c8f565b60405180910390f35b348015610498575f80fd5b506104b360048036038101906104ae91906138f9565b61159b565b6040516104c09190613a09565b60405180910390f35b3480156104d4575f80fd5b506104ef60048036038101906104ea91906139cf565b6115cb565b6040516104fc91906139b6565b60405180910390f35b348015610510575f80fd5b5061052b60048036038101906105269190613ce0565b611611565b005b348015610538575f80fd5b50610541611ac5565b005b34801561054e575f80fd5b50610569600480360381019061056491906138bb565b611ad8565b60405161057c9796959493929190613db4565b60405180910390f35b348015610590575f80fd5b506105ab60048036038101906105a691906138f9565b611c39565b005b3480156105b8575f80fd5b506105c1611d6d565b6040516105ce9190613a09565b60405180910390f35b6105f160048036038101906105ec91906138bb565b611d94565b005b3480156105fe575f80fd5b506106076123fd565b6040516106149190613e8a565b60405180910390f35b348015610628575f80fd5b50610643600480360381019061063e91906139cf565b612421565b6040516106569796959493929190613ea3565b60405180910390f35b34801561066a575f80fd5b50610685600480360381019061068091906139cf565b612510565b005b348015610692575f80fd5b5061069b6127c3565b6040516106a891906139b6565b60405180910390f35b3480156106bc575f80fd5b506106d760048036038101906106d291906139cf565b6127c8565b6040516106e491906139b6565b60405180910390f35b3480156106f8575f80fd5b50610713600480360381019061070e91906139cf565b6127dd565b6040516107209190613ff8565b60405180910390f35b348015610734575f80fd5b5061074f600480360381019061074a9190613a22565b61295a565b60405161075c919061398e565b60405180910390f35b348015610770575f80fd5b5061078b600480360381019061078691906138bb565b6129ff565b60405161079891906140b8565b60405180910390f35b3480156107ac575f80fd5b506107b5612bc7565b005b3480156107c2575f80fd5b506107cb612d5a565b6040516107d891906139b6565b60405180910390f35b3480156107ec575f80fd5b50610807600480360381019061080291906139cf565b612d60565b60405161081491906139b6565b60405180910390f35b610837600480360381019061083291906139cf565b612da6565b005b348015610844575f80fd5b5061084d613164565b60405161085a91906139b6565b60405180910390f35b34801561086e575f80fd5b50610889600480360381019061088491906140d8565b613169565b005b348015610896575f80fd5b506108b160048036038101906108ac91906139cf565b613469565b005b3480156108be575f80fd5b506108d960048036038101906108d491906139cf565b613522565b005b3480156108e6575f80fd5b5061090160048036038101906108fc91906139cf565b6135a6565b60405161090e91906139b6565b60405180910390f35b348015610922575f80fd5b5061093d60048036038101906109389190613b9c565b6135bb565b60405161094a9190613a09565b60405180910390f35b8060018110806109635750600381115b1561099a576040517fe142361700000000000000000000000000000000000000000000000000000000815260040160405180910390fd5b5f60055f8573ffffffffffffffffffffffffffffffffffffffff1673ffffffffffffffffffffffffffffffffffffffff1681526020019081526020015f2090505f73ffffffffffffffffffffffffffffffffffffffff16815f015f9054906101000a900473ffffffffffffffffffffffffffffffffffffffff1673ffffffffffffffffffffffffffffffffffffffff1603610a61576040517f93a3b41600000000000000000000000000000000000000000000000000000000815260040160405180910390fd5b5f60085f8673ffffffffffffffffffffffffffffffffffffffff1673ffffffffffffffffffffffffffffffffffffffff1681526020019081526020015f205f3373ffffffffffffffffffffffffffffffffffffffff1673ffffffffffffffffffffffffffffffffffffffff1681526020019081526020015f209050806004015f9054906101000a900460ff16610b23576040517f237e6c2800000000000000000000000000000000000000000000000000000000815260040160405180910390fd5b42816003015411610b60576040517f893dcecf00000000000000000000000000000000000000000000000000000000815260040160405180910390fd5b80600101548411610b9d576040517f5666717d00000000000000000000000000000000000000000000000000000000815260040160405180910390fd5b80600101548403610bda576040517f4f31e02400000000000000000000000000000000000000000000000000000000815260040160405180910390fd5b5f600b5f8773ffffffffffffffffffffffffffffffffffffffff1673ffffffffffffffffffffffffffffffffffffffff1681526020019081526020015f205f8681526020019081526020015f209050806003015f9054906101000a900460ff16610c70576040517f07a9209500000000000000000000000000000000000000000000000000000000815260040160405180910390fd5b5f600b5f8873ffffffffffffffffffffffffffffffffffffffff1673ffffffffffffffffffffffffffffffffffffffff1681526020019081526020015f205f846001015481526020019081526020015f2090505f81600101548360010154610cd891906141da565b905080341015610d14576040517fcd1c886700000000000000000000000000000000000000000000000000000000815260040160405180910390fd5b5f61271060025434610d26919061420d565b610d30919061427b565b90505f8134610d3f91906141da565b90508160045f828254610d5291906142ab565b925050819055508060095f8c73ffffffffffffffffffffffffffffffffffffffff1673ffffffffffffffffffffffffffffffffffffffff1681526020019081526020015f205f828254610da591906142ab565b9250508190555080600a5f8c73ffffffffffffffffffffffffffffffffffffffff1673ffffffffffffffffffffffffffffffffffffffff1681526020019081526020015f205f828254610df891906142ab565b925050819055505f866001015490507f000000000000000000000000000000000000000000000000000000000000000073ffffffffffffffffffffffffffffffffffffffff166337201fe68c89600101548d6040518463ffffffff1660e01b8152600401610e68939291906142de565b5f604051808303815f87803b158015610e7f575f80fd5b505af1158015610e91573d5f803e3d5ffd5b505050508987600101819055503373ffffffffffffffffffffffffffffffffffffffff168b73ffffffffffffffffffffffffffffffffffffffff167fe03b7ecf6d4cbfb407971a905628826ca89b04d4b413c2c8c178fbf88ebcf57d838d604051610efd929190614313565b60405180910390a35050505050505050505050565b610f1a613603565b6103e8811115610f5f576040517f08c379a0000000000000000000000000000000000000000000000000000000008152600401610f5690614384565b60405180910390fd5b8060028190555050565b5f8373ffffffffffffffffffffffffffffffffffffffff168373ffffffffffffffffffffffffffffffffffffffff1603610fa65760019050611045565b5f60085f8673ffffffffffffffffffffffffffffffffffffffff1673ffffffffffffffffffffffffffffffffffffffff1681526020019081526020015f205f8573ffffffffffffffffffffffffffffffffffffffff1673ffffffffffffffffffffffffffffffffffffffff1681526020019081526020015f209050806004015f9054906101000a900460ff1680156110415750428160030154115b9150505b9392505050565b60025481565b61105a613603565b5f60055f8373ffffffffffffffffffffffffffffffffffffffff1673ffffffffffffffffffffffffffffffffffffffff1681526020019081526020015f206003015f6101000a81548160ff02191690831515021790555050565b60045481565b600181565b60055f3373ffffffffffffffffffffffffffffffffffffffff1673ffffffffffffffffffffffffffffffffffffffff1681526020019081526020015f206003015f9054906101000a900460ff16611142576040517f849908c500000000000000000000000000000000000000000000000000000000815260040160405180910390fd5b5f600a5f3373ffffffffffffffffffffffffffffffffffffffff1673ffffffffffffffffffffffffffffffffffffffff1681526020019081526020015f205490505f81036111bc576040517fd0d04f6000000000000000000000000000000000000000000000000000000000815260040160405180910390fd5b5f600a5f3373ffffffffffffffffffffffffffffffffffffffff1673ffffffffffffffffffffffffffffffffffffffff1681526020019081526020015f20819055505f3373ffffffffffffffffffffffffffffffffffffffff1682604051611223906143cf565b5f6040518083038185875af1925050503d805f811461125d576040519150601f19603f3d011682016040523d82523d5f602084013e611262565b606091505b505090508061129d576040517f750b219c00000000000000000000000000000000000000000000000000000000815260040160405180910390fd5b3373ffffffffffffffffffffffffffffffffffffffff167f7084f5476618d8e60b11ef0d7d3f06914655adb8793e28ff7f018d4c76d505d5836040516112e391906139b6565b60405180910390a25050565b60035f9054906101000a900473ffffffffffffffffffffffffffffffffffffffff1681565b5f8060085f8473ffffffffffffffffffffffffffffffffffffffff1673ffffffffffffffffffffffffffffffffffffffff1681526020019081526020015f205f8573ffffffffffffffffffffffffffffffffffffffff1673ffffffffffffffffffffffffffffffffffffffff1681526020019081526020015f209050806004015f9054906101000a900460ff1615806113b1575042816003015411155b156113bf575f9150506113c8565b80600101549150505b92915050565b5f6006826040516113df919061441d565b90815260200160405180910390205f9054906101000a900473ffffffffffffffffffffffffffffffffffffffff169050919050565b61141c613752565b60085f8473ffffffffffffffffffffffffffffffffffffffff1673ffffffffffffffffffffffffffffffffffffffff1681526020019081526020015f205f8373ffffffffffffffffffffffffffffffffffffffff1673ffffffffffffffffffffffffffffffffffffffff1681526020019081526020015f206040518060a00160405290815f82015f9054906101000a900473ffffffffffffffffffffffffffffffffffffffff1673ffffffffffffffffffffffffffffffffffffffff1673ffffffffffffffffffffffffffffffffffffffff168152602001600182015481526020016002820154815260200160038201548152602001600482015f9054906101000a900460ff161515151581525050905092915050565b6008602052815f5260405f20602052805f5260405f205f9150915050805f015f9054906101000a900473ffffffffffffffffffffffffffffffffffffffff1690806001015490806002015490806003015490806004015f9054906101000a900460ff16905085565b6007602052805f5260405f205f915054906101000a900473ffffffffffffffffffffffffffffffffffffffff1681565b5f60095f8373ffffffffffffffffffffffffffffffffffffffff1673ffffffffffffffffffffffffffffffffffffffff1681526020019081526020015f20549050919050565b5f73ffffffffffffffffffffffffffffffffffffffff1660055f3373ffffffffffffffffffffffffffffffffffffffff1673ffffffffffffffffffffffffffffffffffffffff1681526020019081526020015f205f015f9054906101000a900473ffffffffffffffffffffffffffffffffffffffff1673ffffffffffffffffffffffffffffffffffffffff16146116d4576040517f779e9ca200000000000000000000000000000000000000000000000000000000815260040160405180910390fd5b5f829050600381511015611714576040517f7d5cd9c800000000000000000000000000000000000000000000000000000000815260040160405180910390fd5b602081511115611750576040517f3064322000000000000000000000000000000000000000000000000000000000815260040160405180910390fd5b5f73ffffffffffffffffffffffffffffffffffffffff16600684604051611777919061441d565b90815260200160405180910390205f9054906101000a900473ffffffffffffffffffffffffffffffffffffffff1673ffffffffffffffffffffffffffffffffffffffff16146117f2576040517f723a42fb00000000000000000000000000000000000000000000000000000000815260040160405180910390fd5b60015f81548092919061180490614433565b91905055506040518060e001604052803373ffffffffffffffffffffffffffffffffffffffff1681526020018481526020015f81526020016001151581526020015f815260200160015481526020018381525060055f3373ffffffffffffffffffffffffffffffffffffffff1673ffffffffffffffffffffffffffffffffffffffff1681526020019081526020015f205f820151815f015f6101000a81548173ffffffffffffffffffffffffffffffffffffffff021916908373ffffffffffffffffffffffffffffffffffffffff16021790555060208201518160010190816118ed919061466b565b50604082015181600201556060820151816003015f6101000a81548160ff0219169083151502179055506080820151816004015560a0820151816005015560c0820151816006015590505033600684604051611949919061441d565b90815260200160405180910390205f6101000a81548173ffffffffffffffffffffffffffffffffffffffff021916908373ffffffffffffffffffffffffffffffffffffffff1602179055503360075f60015481526020019081526020015f205f6101000a81548173ffffffffffffffffffffffffffffffffffffffff021916908373ffffffffffffffffffffffffffffffffffffffff1602179055507f000000000000000000000000000000000000000000000000000000000000000073ffffffffffffffffffffffffffffffffffffffff16632768a9b6336001546040518363ffffffff1660e01b8152600401611a4292919061473a565b5f604051808303815f87803b158015611a59575f80fd5b505af1158015611a6b573d5f803e3d5ffd5b505050506001543373ffffffffffffffffffffffffffffffffffffffff167fbf620853fd890bc166209817a64206f57de9aa2bc196bd5bab92d17a38d6515d85604051611ab89190614761565b60405180910390a3505050565b611acd613603565b611ad65f61368a565b565b600b602052815f5260405f20602052805f5260405f205f9150915050805f018054611b02906144a7565b80601f0160208091040260200160405190810160405280929190818152602001828054611b2e906144a7565b8015611b795780601f10611b5057610100808354040283529160200191611b79565b820191905f5260205f20905b815481529060010190602001808311611b5c57829003601f168201915b505050505090806001015490806002015490806003015f9054906101000a900460ff1690806004018054611bac906144a7565b80601f0160208091040260200160405190810160405280929190818152602001828054611bd8906144a7565b8015611c235780601f10611bfa57610100808354040283529160200191611c23565b820191905f5260205f20905b815481529060010190602001808311611c0657829003601f168201915b5050505050908060050154908060060154905087565b60055f3373ffffffffffffffffffffffffffffffffffffffff1673ffffffffffffffffffffffffffffffffffffffff1681526020019081526020015f206003015f9054906101000a900460ff16611cbc576040517f849908c500000000000000000000000000000000000000000000000000000000815260040160405180910390fd5b806001811080611ccc5750600381115b15611d03576040517fe142361700000000000000000000000000000000000000000000000000000000815260040160405180910390fd5b5f600b5f3373ffffffffffffffffffffffffffffffffffffffff1673ffffffffffffffffffffffffffffffffffffffff1681526020019081526020015f205f8481526020019081526020015f206003015f6101000a81548160ff0219169083151502179055505050565b5f805f9054906101000a900473ffffffffffffffffffffffffffffffffffffffff16905090565b806001811080611da45750600381115b15611ddb576040517fe142361700000000000000000000000000000000000000000000000000000000815260040160405180910390fd5b5f60055f8573ffffffffffffffffffffffffffffffffffffffff1673ffffffffffffffffffffffffffffffffffffffff1681526020019081526020015f2090505f73ffffffffffffffffffffffffffffffffffffffff16815f015f9054906101000a900473ffffffffffffffffffffffffffffffffffffffff1673ffffffffffffffffffffffffffffffffffffffff1603611ea2576040517f93a3b41600000000000000000000000000000000000000000000000000000000815260040160405180910390fd5b806003015f9054906101000a900460ff16611ee9576040517f849908c500000000000000000000000000000000000000000000000000000000815260040160405180910390fd5b5f600b5f8673ffffffffffffffffffffffffffffffffffffffff1673ffffffffffffffffffffffffffffffffffffffff1681526020019081526020015f205f8581526020019081526020015f209050806003015f9054906101000a900460ff16611f7f576040517f07a9209500000000000000000000000000000000000000000000000000000000815260040160405180910390fd5b8060010154341015611fbd576040517fcd1c886700000000000000000000000000000000000000000000000000000000815260040160405180910390fd5b5f60085f8773ffffffffffffffffffffffffffffffffffffffff1673ffffffffffffffffffffffffffffffffffffffff1681526020019081526020015f205f3373ffffffffffffffffffffffffffffffffffffffff1673ffffffffffffffffffffffffffffffffffffffff1681526020019081526020015f209050806004015f9054906101000a900460ff1680156120585750428160030154115b1561208f576040517f5fd8a13200000000000000000000000000000000000000000000000000000000815260040160405180910390fd5b5f612710600254346120a1919061420d565b6120ab919061427b565b90505f81346120ba91906141da565b90508160045f8282546120cd91906142ab565b925050819055508060095f8a73ffffffffffffffffffffffffffffffffffffffff1673ffffffffffffffffffffffffffffffffffffffff1681526020019081526020015f205f82825461212091906142ab565b9250508190555080600a5f8a73ffffffffffffffffffffffffffffffffffffffff1673ffffffffffffffffffffffffffffffffffffffff1681526020019081526020015f205f82825461217391906142ab565b92505081905550826004015f9054906101000a900460ff166121a957846004015f8154809291906121a390614433565b91905055505b5f4290505f8560020154426121be91906142ab565b90507f000000000000000000000000000000000000000000000000000000000000000073ffffffffffffffffffffffffffffffffffffffff1663e714bb5f338c8c6040518463ffffffff1660e01b815260040161221d93929190614781565b5f604051808303815f87803b158015612234575f80fd5b505af1158015612246573d5f803e3d5ffd5b505050506040518060a001604052803373ffffffffffffffffffffffffffffffffffffffff1681526020018a81526020018381526020018281526020016001151581525060085f8c73ffffffffffffffffffffffffffffffffffffffff1673ffffffffffffffffffffffffffffffffffffffff1681526020019081526020015f205f3373ffffffffffffffffffffffffffffffffffffffff1673ffffffffffffffffffffffffffffffffffffffff1681526020019081526020015f205f820151815f015f6101000a81548173ffffffffffffffffffffffffffffffffffffffff021916908373ffffffffffffffffffffffffffffffffffffffff1602179055506020820151816001015560408201518160020155606082015181600301556080820151816004015f6101000a81548160ff0219169083151502179055509050503373ffffffffffffffffffffffffffffffffffffffff168a73ffffffffffffffffffffffffffffffffffffffff167f1913e17d5784005a914657f9e879fcc261644776365f1d84aeb45afcb6da48648b8585346040516123e994939291906147b6565b60405180910390a350505050505050505050565b7f000000000000000000000000000000000000000000000000000000000000000081565b6005602052805f5260405f205f91509050805f015f9054906101000a900473ffffffffffffffffffffffffffffffffffffffff1690806001018054612465906144a7565b80601f0160208091040260200160405190810160405280929190818152602001828054612491906144a7565b80156124dc5780601f106124b3576101008083540402835291602001916124dc565b820191905f5260205f20905b8154815290600101906020018083116124bf57829003601f168201915b505050505090806002015490806003015f9054906101000a900460ff16908060040154908060050154908060060154905087565b5f60055f8373ffffffffffffffffffffffffffffffffffffffff1673ffffffffffffffffffffffffffffffffffffffff1681526020019081526020015f2090505f73ffffffffffffffffffffffffffffffffffffffff16815f015f9054906101000a900473ffffffffffffffffffffffffffffffffffffffff1673ffffffffffffffffffffffffffffffffffffffff16036125d7576040517f93a3b41600000000000000000000000000000000000000000000000000000000815260040160405180910390fd5b5f60085f8473ffffffffffffffffffffffffffffffffffffffff1673ffffffffffffffffffffffffffffffffffffffff1681526020019081526020015f205f3373ffffffffffffffffffffffffffffffffffffffff1673ffffffffffffffffffffffffffffffffffffffff1681526020019081526020015f209050806004015f9054906101000a900460ff16612699576040517f237e6c2800000000000000000000000000000000000000000000000000000000815260040160405180910390fd5b7f000000000000000000000000000000000000000000000000000000000000000073ffffffffffffffffffffffffffffffffffffffff16634c274d45338584600101546040518463ffffffff1660e01b81526004016126fa93929190614781565b5f604051808303815f87803b158015612711575f80fd5b505af1158015612723573d5f803e3d5ffd5b505050505f816004015f6101000a81548160ff021916908315150217905550428160030181905550816004015f81548092919061275f906147f9565b91905055503373ffffffffffffffffffffffffffffffffffffffff168373ffffffffffffffffffffffffffffffffffffffff167f4f63ff9c987ba9233a93b549bdb283252838f696fe1349ef76a85e2ae7f822e360405160405180910390a3505050565b600281565b6009602052805f5260405f205f915090505481565b6127e5613794565b60055f8373ffffffffffffffffffffffffffffffffffffffff1673ffffffffffffffffffffffffffffffffffffffff1681526020019081526020015f206040518060e00160405290815f82015f9054906101000a900473ffffffffffffffffffffffffffffffffffffffff1673ffffffffffffffffffffffffffffffffffffffff1673ffffffffffffffffffffffffffffffffffffffff168152602001600182018054612891906144a7565b80601f01602080910402602001604051908101604052809291908181526020018280546128bd906144a7565b80156129085780601f106128df57610100808354040283529160200191612908565b820191905f5260205f20905b8154815290600101906020018083116128eb57829003601f168201915b5050505050815260200160028201548152602001600382015f9054906101000a900460ff1615151515815260200160048201548152602001600582015481526020016006820154815250509050919050565b5f8060085f8473ffffffffffffffffffffffffffffffffffffffff1673ffffffffffffffffffffffffffffffffffffffff1681526020019081526020015f205f8573ffffffffffffffffffffffffffffffffffffffff1673ffffffffffffffffffffffffffffffffffffffff1681526020019081526020015f209050806004015f9054906101000a900460ff1680156129f65750428160030154115b91505092915050565b612a076137e3565b600b5f8473ffffffffffffffffffffffffffffffffffffffff1673ffffffffffffffffffffffffffffffffffffffff1681526020019081526020015f205f8381526020019081526020015f206040518060e00160405290815f82018054612a6d906144a7565b80601f0160208091040260200160405190810160405280929190818152602001828054612a99906144a7565b8015612ae45780601f10612abb57610100808354040283529160200191612ae4565b820191905f5260205f20905b815481529060010190602001808311612ac757829003601f168201915b505050505081526020016001820154815260200160028201548152602001600382015f9054906101000a900460ff16151515158152602001600482018054612b2b906144a7565b80601f0160208091040260200160405190810160405280929190818152602001828054612b57906144a7565b8015612ba25780601f10612b7957610100808354040283529160200191612ba2565b820191905f5260205f20905b815481529060010190602001808311612b8557829003601f168201915b5050505050815260200160058201548152602001600682015481525050905092915050565b612bcf613603565b5f60045490505f8111612c17576040517f08c379a0000000000000000000000000000000000000000000000000000000008152600401612c0e9061486a565b60405180910390fd5b5f6004819055505f60035f9054906101000a900473ffffffffffffffffffffffffffffffffffffffff1673ffffffffffffffffffffffffffffffffffffffff1682604051612c64906143cf565b5f6040518083038185875af1925050503d805f8114612c9e576040519150601f19603f3d011682016040523d82523d5f602084013e612ca3565b606091505b5050905080612ce7576040517f08c379a0000000000000000000000000000000000000000000000000000000008152600401612cde906148d2565b60405180910390fd5b60035f9054906101000a900473ffffffffffffffffffffffffffffffffffffffff1673ffffffffffffffffffffffffffffffffffffffff167ffc7ad544ff6a06d6499925723d25b6fe70457a42939995b1d3d6f560fe33633383604051612d4e91906139b6565b60405180910390a25050565b60015481565b5f600a5f8373ffffffffffffffffffffffffffffffffffffffff1673ffffffffffffffffffffffffffffffffffffffff1681526020019081526020015f20549050919050565b5f60055f8373ffffffffffffffffffffffffffffffffffffffff1673ffffffffffffffffffffffffffffffffffffffff1681526020019081526020015f2090505f73ffffffffffffffffffffffffffffffffffffffff16815f015f9054906101000a900473ffffffffffffffffffffffffffffffffffffffff1673ffffffffffffffffffffffffffffffffffffffff1603612e6d576040517f93a3b41600000000000000000000000000000000000000000000000000000000815260040160405180910390fd5b5f60085f8473ffffffffffffffffffffffffffffffffffffffff1673ffffffffffffffffffffffffffffffffffffffff1681526020019081526020015f205f3373ffffffffffffffffffffffffffffffffffffffff1673ffffffffffffffffffffffffffffffffffffffff1681526020019081526020015f209050806004015f9054906101000a900460ff16612f2f576040517f237e6c2800000000000000000000000000000000000000000000000000000000815260040160405180910390fd5b5f600b5f8573ffffffffffffffffffffffffffffffffffffffff1673ffffffffffffffffffffffffffffffffffffffff1681526020019081526020015f205f836001015481526020019081526020015f2090508060010154341015612fc0576040517fcd1c886700000000000000000000000000000000000000000000000000000000815260040160405180910390fd5b5f61271060025434612fd2919061420d565b612fdc919061427b565b90505f8134612feb91906141da565b90508160045f828254612ffe91906142ab565b925050819055508060095f8873ffffffffffffffffffffffffffffffffffffffff1673ffffffffffffffffffffffffffffffffffffffff1681526020019081526020015f205f82825461305191906142ab565b9250508190555080600a5f8873ffffffffffffffffffffffffffffffffffffffff1673ffffffffffffffffffffffffffffffffffffffff1681526020019081526020015f205f8282546130a491906142ab565b9250508190555042846003015411156130da578260020154846003015f8282546130ce91906142ab565b925050819055506130f3565b8260020154426130ea91906142ab565b84600301819055505b3373ffffffffffffffffffffffffffffffffffffffff168673ffffffffffffffffffffffffffffffffffffffff167f2b956d6196f460d042bd64fb7aa1d23596fcd80b7277ea28bb620c5d02381d8e866003015460405161315491906139b6565b60405180910390a3505050505050565b600381565b60055f3373ffffffffffffffffffffffffffffffffffffffff1673ffffffffffffffffffffffffffffffffffffffff1681526020019081526020015f206003015f9054906101000a900460ff166131ec576040517f849908c500000000000000000000000000000000000000000000000000000000815260040160405180910390fd5b8660018110806131fc5750600381115b15613233576040517fe142361700000000000000000000000000000000000000000000000000000000815260040160405180910390fd5b6040518060e0016040528086815260200188815260200187815260200160011515815260200185815260200184815260200183815250600b5f3373ffffffffffffffffffffffffffffffffffffffff1673ffffffffffffffffffffffffffffffffffffffff1681526020019081526020015f205f8a81526020019081526020015f205f820151815f0190816132c8919061466b565b5060208201518160010155604082015181600201556060820151816003015f6101000a81548160ff0219169083151502179055506080820151816004019081613311919061466b565b5060a0820151816005015560c08201518160060155905050876001901b60055f3373ffffffffffffffffffffffffffffffffffffffff1673ffffffffffffffffffffffffffffffffffffffff1681526020019081526020015f206002015f82825417925050819055507f000000000000000000000000000000000000000000000000000000000000000073ffffffffffffffffffffffffffffffffffffffff16639ab45a45338a888b8989896040518863ffffffff1660e01b81526004016133df97969594939291906148f0565b5f604051808303815f87803b1580156133f6575f80fd5b505af1158015613408573d5f803e3d5ffd5b50505050873373ffffffffffffffffffffffffffffffffffffffff167ff98041cd1747bf8adcefe538728e3baa58fd21d68ee5d785787afc87001dde0c878a8a6040516134579392919061496b565b60405180910390a35050505050505050565b613471613603565b5f73ffffffffffffffffffffffffffffffffffffffff168173ffffffffffffffffffffffffffffffffffffffff16036134df576040517f08c379a00000000000000000000000000000000000000000000000000000000081526004016134d6906149f1565b60405180910390fd5b8060035f6101000a81548173ffffffffffffffffffffffffffffffffffffffff021916908373ffffffffffffffffffffffffffffffffffffffff16021790555050565b61352a613603565b5f73ffffffffffffffffffffffffffffffffffffffff168173ffffffffffffffffffffffffffffffffffffffff160361359a575f6040517f1e4fbdf70000000000000000000000000000000000000000000000000000000081526004016135919190613a09565b60405180910390fd5b6135a38161368a565b50565b600a602052805f5260405f205f915090505481565b6006818051602081018201805184825260208301602085012081835280955050505050505f915054906101000a900473ffffffffffffffffffffffffffffffffffffffff1681565b61360b61374b565b73ffffffffffffffffffffffffffffffffffffffff16613629611d6d565b73ffffffffffffffffffffffffffffffffffffffff16146136885761364c61374b565b6040517f118cdaa700000000000000000000000000000000000000000000000000000000815260040161367f9190613a09565b60405180910390fd5b565b5f805f9054906101000a900473ffffffffffffffffffffffffffffffffffffffff169050815f806101000a81548173ffffffffffffffffffffffffffffffffffffffff021916908373ffffffffffffffffffffffffffffffffffffffff1602179055508173ffffffffffffffffffffffffffffffffffffffff168173ffffffffffffffffffffffffffffffffffffffff167f8be0079c531659141344cd1fd0a4f28419497f9722a3daafe3b4186f6b6457e060405160405180910390a35050565b5f33905090565b6040518060a001604052805f73ffffffffffffffffffffffffffffffffffffffff1681526020015f81526020015f81526020015f81526020015f151581525090565b6040518060e001604052805f73ffffffffffffffffffffffffffffffffffffffff168152602001606081526020015f81526020015f151581526020015f81526020015f81526020015f81525090565b6040518060e00160405280606081526020015f81526020015f81526020015f15158152602001606081526020015f81526020015f81525090565b5f604051905090565b5f80fd5b5f80fd5b5f73ffffffffffffffffffffffffffffffffffffffff82169050919050565b5f6138578261382e565b9050919050565b6138678161384d565b8114613871575f80fd5b50565b5f813590506138828161385e565b92915050565b5f819050919050565b61389a81613888565b81146138a4575f80fd5b50565b5f813590506138b581613891565b92915050565b5f80604083850312156138d1576138d0613826565b5b5f6138de85828601613874565b92505060206138ef858286016138a7565b9150509250929050565b5f6020828403121561390e5761390d613826565b5b5f61391b848285016138a7565b91505092915050565b5f805f6060848603121561393b5761393a613826565b5b5f61394886828701613874565b935050602061395986828701613874565b925050604061396a868287016138a7565b9150509250925092565b5f8115159050919050565b61398881613974565b82525050565b5f6020820190506139a15f83018461397f565b92915050565b6139b081613888565b82525050565b5f6020820190506139c95f8301846139a7565b92915050565b5f602082840312156139e4576139e3613826565b5b5f6139f184828501613874565b91505092915050565b613a038161384d565b82525050565b5f602082019050613a1c5f8301846139fa565b92915050565b5f8060408385031215613a3857613a37613826565b5b5f613a4585828601613874565b9250506020613a5685828601613874565b9150509250929050565b5f80fd5b5f80fd5b5f601f19601f8301169050919050565b7f4e487b71000000000000000000000000000000000000000000000000000000005f52604160045260245ffd5b613aae82613a68565b810181811067ffffffffffffffff82111715613acd57613acc613a78565b5b80604052505050565b5f613adf61381d565b9050613aeb8282613aa5565b919050565b5f67ffffffffffffffff821115613b0a57613b09613a78565b5b613b1382613a68565b9050602081019050919050565b828183375f83830152505050565b5f613b40613b3b84613af0565b613ad6565b905082815260208101848484011115613b5c57613b5b613a64565b5b613b67848285613b20565b509392505050565b5f82601f830112613b8357613b82613a60565b5b8135613b93848260208601613b2e565b91505092915050565b5f60208284031215613bb157613bb0613826565b5b5f82013567ffffffffffffffff811115613bce57613bcd61382a565b5b613bda84828501613b6f565b91505092915050565b613bec8161384d565b82525050565b613bfb81613888565b82525050565b613c0a81613974565b82525050565b60a082015f820151613c245f850182613be3565b506020820151613c376020850182613bf2565b506040820151613c4a6040850182613bf2565b506060820151613c5d6060850182613bf2565b506080820151613c706080850182613c01565b50505050565b5f60a082019050613c895f830184613c10565b92915050565b5f60a082019050613ca25f8301886139fa565b613caf60208301876139a7565b613cbc60408301866139a7565b613cc960608301856139a7565b613cd6608083018461397f565b9695505050505050565b5f8060408385031215613cf657613cf5613826565b5b5f83013567ffffffffffffffff811115613d1357613d1261382a565b5b613d1f85828601613b6f565b9250506020613d30858286016138a7565b9150509250929050565b5f81519050919050565b5f82825260208201905092915050565b5f5b83811015613d71578082015181840152602081019050613d56565b5f8484015250505050565b5f613d8682613d3a565b613d908185613d44565b9350613da0818560208601613d54565b613da981613a68565b840191505092915050565b5f60e0820190508181035f830152613dcc818a613d7c565b9050613ddb60208301896139a7565b613de860408301886139a7565b613df5606083018761397f565b8181036080830152613e078186613d7c565b9050613e1660a08301856139a7565b613e2360c08301846139a7565b98975050505050505050565b5f819050919050565b5f613e52613e4d613e488461382e565b613e2f565b61382e565b9050919050565b5f613e6382613e38565b9050919050565b5f613e7482613e59565b9050919050565b613e8481613e6a565b82525050565b5f602082019050613e9d5f830184613e7b565b92915050565b5f60e082019050613eb65f83018a6139fa565b8181036020830152613ec88189613d7c565b9050613ed760408301886139a7565b613ee4606083018761397f565b613ef160808301866139a7565b613efe60a08301856139a7565b613f0b60c08301846139a7565b98975050505050505050565b5f82825260208201905092915050565b5f613f3182613d3a565b613f3b8185613f17565b9350613f4b818560208601613d54565b613f5481613a68565b840191505092915050565b5f60e083015f830151613f745f860182613be3565b5060208301518482036020860152613f8c8282613f27565b9150506040830151613fa16040860182613bf2565b506060830151613fb46060860182613c01565b506080830151613fc76080860182613bf2565b5060a0830151613fda60a0860182613bf2565b5060c0830151613fed60c0860182613bf2565b508091505092915050565b5f6020820190508181035f8301526140108184613f5f565b905092915050565b5f60e083015f8301518482035f8601526140328282613f27565b91505060208301516140476020860182613bf2565b50604083015161405a6040860182613bf2565b50606083015161406d6060860182613c01565b50608083015184820360808601526140858282613f27565b91505060a083015161409a60a0860182613bf2565b5060c08301516140ad60c0860182613bf2565b508091505092915050565b5f6020820190508181035f8301526140d08184614018565b905092915050565b5f805f805f805f60e0888a0312156140f3576140f2613826565b5b5f6141008a828b016138a7565b97505060206141118a828b016138a7565b96505060406141228a828b016138a7565b955050606088013567ffffffffffffffff8111156141435761414261382a565b5b61414f8a828b01613b6f565b945050608088013567ffffffffffffffff8111156141705761416f61382a565b5b61417c8a828b01613b6f565b93505060a061418d8a828b016138a7565b92505060c061419e8a828b016138a7565b91505092959891949750929550565b7f4e487b71000000000000000000000000000000000000000000000000000000005f52601160045260245ffd5b5f6141e482613888565b91506141ef83613888565b9250828203905081811115614207576142066141ad565b5b92915050565b5f61421782613888565b915061422283613888565b925082820261423081613888565b91508282048414831517614247576142466141ad565b5b5092915050565b7f4e487b71000000000000000000000000000000000000000000000000000000005f52601260045260245ffd5b5f61428582613888565b915061429083613888565b9250826142a05761429f61424e565b5b828204905092915050565b5f6142b582613888565b91506142c083613888565b92508282019050808211156142d8576142d76141ad565b5b92915050565b5f6060820190506142f15f8301866139fa565b6142fe60208301856139a7565b61430b60408301846139a7565b949350505050565b5f6040820190506143265f8301856139a7565b61433360208301846139a7565b9392505050565b7f46656520746f6f206869676800000000000000000000000000000000000000005f82015250565b5f61436e600c83613d44565b91506143798261433a565b602082019050919050565b5f6020820190508181035f83015261439b81614362565b9050919050565b5f81905092915050565b50565b5f6143ba5f836143a2565b91506143c5826143ac565b5f82019050919050565b5f6143d9826143af565b9150819050919050565b5f81905092915050565b5f6143f782613d3a565b61440181856143e3565b9350614411818560208601613d54565b80840191505092915050565b5f61442882846143ed565b915081905092915050565b5f61443d82613888565b91507fffffffffffffffffffffffffffffffffffffffffffffffffffffffffffffffff820361446f5761446e6141ad565b5b600182019050919050565b7f4e487b71000000000000000000000000000000000000000000000000000000005f52602260045260245ffd5b5f60028204905060018216806144be57607f821691505b6020821081036144d1576144d061447a565b5b50919050565b5f819050815f5260205f209050919050565b5f6020601f8301049050919050565b5f82821b905092915050565b5f600883026145337fffffffffffffffffffffffffffffffffffffffffffffffffffffffffffffffff826144f8565b61453d86836144f8565b95508019841693508086168417925050509392505050565b5f61456f61456a61456584613888565b613e2f565b613888565b9050919050565b5f819050919050565b61458883614555565b61459c61459482614576565b848454614504565b825550505050565b5f90565b6145b06145a4565b6145bb81848461457f565b505050565b5b818110156145de576145d35f826145a8565b6001810190506145c1565b5050565b601f821115614623576145f4816144d7565b6145fd846144e9565b8101602085101561460c578190505b614620614618856144e9565b8301826145c0565b50505b505050565b5f82821c905092915050565b5f6146435f1984600802614628565b1980831691505092915050565b5f61465b8383614634565b9150826002028217905092915050565b61467482613d3a565b67ffffffffffffffff81111561468d5761468c613a78565b5b61469782546144a7565b6146a28282856145e2565b5f60209050601f8311600181146146d3575f84156146c1578287015190505b6146cb8582614650565b865550614732565b601f1984166146e1866144d7565b5f5b82811015614708578489015182556001820191506020850194506020810190506146e3565b868310156147255784890151614721601f891682614634565b8355505b6001600288020188555050505b505050505050565b5f60408201905061474d5f8301856139fa565b61475a60208301846139a7565b9392505050565b5f6020820190508181035f8301526147798184613d7c565b905092915050565b5f6060820190506147945f8301866139fa565b6147a160208301856139fa565b6147ae60408301846139a7565b949350505050565b5f6080820190506147c95f8301876139a7565b6147d660208301866139a7565b6147e360408301856139a7565b6147f060608301846139a7565b95945050505050565b5f61480382613888565b91505f8203614815576148146141ad565b5b600182039050919050565b7f4e6f7468696e6720746f207769746864726177000000000000000000000000005f82015250565b5f614854601383613d44565b915061485f82614820565b602082019050919050565b5f6020820190508181035f83015261488181614848565b9050919050565b7f5769746864726177206661696c656400000000000000000000000000000000005f82015250565b5f6148bc600f83613d44565b91506148c782614888565b602082019050919050565b5f6020820190508181035f8301526148e9816148b0565b9050919050565b5f60e0820190506149035f83018a6139fa565b61491060208301896139a7565b81810360408301526149228188613d7c565b905061493160608301876139a7565b81810360808301526149438186613d7c565b905061495260a08301856139a7565b61495f60c08301846139a7565b98975050505050505050565b5f6060820190508181035f8301526149838186613d7c565b905061499260208301856139a7565b61499f60408301846139a7565b949350505050565b7f496e76616c6964206164647265737300000000000000000000000000000000005f82015250565b5f6149db600f83613d44565b91506149e6826149a7565b602082019050919050565b5f6020820190508181035f830152614a08816149cf565b905091905056fea264697066735822122097e5b483d441355bb650d77334c79301ff72df28c618e21c36ef3e82a8276eb464736f6c63430008180033","linkReferences":{}},"methodIdentifiers":{"TIER_BRONZE()":"3c0847f5","TIER_GOLD()":"e3d3f843","TIER_SILVER()":"9a46e412","badge()":"91d768de","cancelSubscription(address)":"93d81d58","checkAccess(address,address,uint256)":"1bbfbb57","configureTier(uint256,uint256,uint256,string,string,uint256,uint256)":"e4297966","creatorByIndex(uint256)":"6d571b6a","creatorCount()":"d82faa48","creatorRevenue(address)":"9ef7dace","creators(address)":"933166e1","deactivateCreator(address)":"24d85b19","deactivateTier(uint256)":"8bd684ee","feeRecipient()":"46904840","getCreator(address)":"a0210309","getCreatorByHandle(string)":"4e02fbbf","getCreatorRevenue(address)":"6d65834c","getPendingWithdraw(address)":"da1a8a6a","getSubscription(address,address)":"5b75dd8d","getSubscriptionTier(address,address)":"4d29aa98","getTierConfig(address,uint256)":"d027aab4","handleToCreator(string)":"f37d65af","hasActiveSubscription(address,address)":"b89d3b48","owner()":"8da5cb5b","pendingPlatformFees()":"2f98c9e8","pendingWithdraw(address)":"f308cfca","platformFeeBps()":"22dcd13e","registerCreator(string,uint256)":"6f0df5f4","renewSubscription(address)":"e02eb109","renounceOwnership()":"715018a6","setFeeRecipient(address)":"e74b981b","setPlatformFee(uint256)":"12e8e2c3","subscribe(address,uint256)":"8de69284","subscriptions(address,address)":"6207d31b","tierConfigs(address,uint256)":"7a0c934b","transferOwnership(address)":"f2fde38b","upgradeSubscription(address,uint256)":"0f3038c2","withdraw()":"3ccfd60b","withdrawPlatformFees()":"d0b7830b"},"id":42}