{"abi":[{"type":"constructor","inputs":[{"name":"_badge","type":"address","internalType":"address"},{"name":"_subscriptionManager","type":"address","internalType":"address"}],"stateMutability":"nonpayable"},{"type":"function","name":"BRONZE_VOTE_WEIGHT","inputs":[],"outputs":[{"name":"","type":"uint256","internalType":"uint256"}],"stateMutability":"view"},{"type":"function","name":"EARLY_VOTER_REWARD_BPS","inputs":[],"outputs":[{"name":"","type":"uint256","internalType":"uint256"}],"stateMutability":"view"},{"type":"function","name":"EARLY_VOTER_SLOTS","inputs":[],"outputs":[{"name":"","type":"uint256","internalType":"uint256"}],"stateMutability":"view"},{"type":"function","name":"GOLD_VOTE_WEIGHT","inputs":[],"outputs":[{"name":"","type":"uint256","internalType":"uint256"}],"stateMutability":"view"},{"type":"function","name":"SILVER_VOTE_WEIGHT","inputs":[],"outputs":[{"name":"","type":"uint256","internalType":"uint256"}],"stateMutability":"view"},{"type":"function","name":"badge","inputs":[],"outputs":[{"name":"","type":"address","internalType":"contract TieredBadge"}],"stateMutability":"view"},{"type":"function","name":"claimVoterReward","inputs":[{"name":"postId","type":"uint256","internalType":"uint256"}],"outputs":[],"stateMutability":"nonpayable"},{"type":"function","name":"createExclusivePost","inputs":[{"name":"_minTier","type":"uint256","internalType":"uint256"},{"name":"_contentHash","type":"string","internalType":"string"},{"name":"_threshold","type":"uint256","internalType":"uint256"}],"outputs":[{"name":"","type":"uint256","internalType":"uint256"}],"stateMutability":"nonpayable"},{"type":"function","name":"creatorPosts","inputs":[{"name":"","type":"address","internalType":"address"},{"name":"","type":"uint256","internalType":"uint256"}],"outputs":[{"name":"","type":"uint256","internalType":"uint256"}],"stateMutability":"view"},{"type":"function","name":"deletePost","inputs":[{"name":"postId","type":"uint256","internalType":"uint256"}],"outputs":[],"stateMutability":"nonpayable"},{"type":"function","name":"earlyVoterRewards","inputs":[{"name":"","type":"uint256","internalType":"uint256"},{"name":"","type":"uint256","internalType":"uint256"}],"outputs":[{"name":"voter","type":"address","internalType":"address"},{"name":"rewardAmount","type":"uint256","internalType":"uint256"},{"name":"claimed","type":"bool","internalType":"bool"}],"stateMutability":"view"},{"type":"function","name":"exclusivePosts","inputs":[{"name":"","type":"uint256","internalType":"uint256"}],"outputs":[{"name":"postId","type":"uint256","internalType":"uint256"},{"name":"creator","type":"address","internalType":"address"},{"name":"minTierRequired","type":"uint256","internalType":"uint256"},{"name":"contentHash","type":"string","internalType":"string"},{"name":"createdAt","type":"uint256","internalType":"uint256"},{"name":"isPublic","type":"bool","internalType":"bool"},{"name":"viralScore","type":"uint256","internalType":"uint256"},{"name":"conversionThreshold","type":"uint256","internalType":"uint256"},{"name":"currentVotes","type":"uint256","internalType":"uint256"}],"stateMutability":"view"},{"type":"function","name":"fundRewardPool","inputs":[{"name":"postId","type":"uint256","internalType":"uint256"}],"outputs":[],"stateMutability":"payable"},{"type":"function","name":"getCreatorPosts","inputs":[{"name":"creator","type":"address","internalType":"address"}],"outputs":[{"name":"","type":"uint256[]","internalType":"uint256[]"}],"stateMutability":"view"},{"type":"function","name":"getEarlyVoterRewards","inputs":[{"name":"postId","type":"uint256","internalType":"uint256"}],"outputs":[{"name":"","type":"tuple[]","internalType":"struct GatedContent.EarlyVoterReward[]","components":[{"name":"voter","type":"address","internalType":"address"},{"name":"rewardAmount","type":"uint256","internalType":"uint256"},{"name":"claimed","type":"bool","internalType":"bool"}]}],"stateMutability":"view"},{"type":"function","name":"getEarlyVoters","inputs":[{"name":"postId","type":"uint256","internalType":"uint256"}],"outputs":[{"name":"","type":"address[]","internalType":"address[]"}],"stateMutability":"view"},{"type":"function","name":"getPost","inputs":[{"name":"postId","type":"uint256","internalType":"uint256"}],"outputs":[{"name":"","type":"tuple","internalType":"struct GatedContent.ExclusivePost","components":[{"name":"postId","type":"uint256","internalType":"uint256"},{"name":"creator","type":"address","internalType":"address"},{"name":"minTierRequired","type":"uint256","internalType":"uint256"},{"name":"contentHash","type":"string","internalType":"string"},{"name":"createdAt","type":"uint256","internalType":"uint256"},{"name":"isPublic","type":"bool","internalType":"bool"},{"name":"viralScore","type":"uint256","internalType":"uint256"},{"name":"conversionThreshold","type":"uint256","internalType":"uint256"},{"name":"currentVotes","type":"uint256","internalType":"uint256"}]}],"stateMutability":"view"},{"type":"function","name":"getPostVoters","inputs":[{"name":"postId","type":"uint256","internalType":"uint256"}],"outputs":[{"name":"","type":"address[]","internalType":"address[]"}],"stateMutability":"view"},{"type":"function","name":"getPosts","inputs":[{"name":"postIds","type":"uint256[]","internalType":"uint256[]"}],"outputs":[{"name":"","type":"tuple[]","internalType":"struct GatedContent.ExclusivePost[]","components":[{"name":"postId","type":"uint256","internalType":"uint256"},{"name":"creator","type":"address","internalType":"address"},{"name":"minTierRequired","type":"uint256","internalType":"uint256"},{"name":"contentHash","type":"string","internalType":"string"},{"name":"createdAt","type":"uint256","internalType":"uint256"},{"name":"isPublic","type":"bool","internalType":"bool"},{"name":"viralScore","type":"uint256","internalType":"uint256"},{"name":"conversionThreshold","type":"uint256","internalType":"uint256"},{"name":"currentVotes","type":"uint256","internalType":"uint256"}]}],"stateMutability":"view"},{"type":"function","name":"getVoterInfo","inputs":[{"name":"postId","type":"uint256","internalType":"uint256"},{"name":"voter","type":"address","internalType":"address"}],"outputs":[{"name":"","type":"tuple","internalType":"struct GatedContent.VoterInfo","components":[{"name":"hasVoted","type":"bool","internalType":"bool"},{"name":"voteOrder","type":"uint256","internalType":"uint256"},{"name":"votedAt","type":"uint256","internalType":"uint256"},{"name":"tierAtVote","type":"uint256","internalType":"uint256"},{"name":"rewardClaimed","type":"uint256","internalType":"uint256"}]}],"stateMutability":"view"},{"type":"function","name":"getVotingProgress","inputs":[{"name":"postId","type":"uint256","internalType":"uint256"}],"outputs":[{"name":"currentVotes","type":"uint256","internalType":"uint256"},{"name":"threshold","type":"uint256","internalType":"uint256"},{"name":"viralScore","type":"uint256","internalType":"uint256"},{"name":"percentComplete","type":"uint256","internalType":"uint256"}],"stateMutability":"view"},{"type":"function","name":"hasAccess","inputs":[{"name":"_user","type":"address","internalType":"address"},{"name":"_postId","type":"uint256","internalType":"uint256"}],"outputs":[{"name":"","type":"bool","internalType":"bool"}],"stateMutability":"view"},{"type":"function","name":"hasAccessBatch","inputs":[{"name":"user","type":"address","internalType":"address"},{"name":"postIds","type":"uint256[]","internalType":"uint256[]"}],"outputs":[{"name":"","type":"bool[]","internalType":"bool[]"}],"stateMutability":"view"},{"type":"function","name":"owner","inputs":[],"outputs":[{"name":"","type":"address","internalType":"address"}],"stateMutability":"view"},{"type":"function","name":"postCount","inputs":[],"outputs":[{"name":"","type":"uint256","internalType":"uint256"}],"stateMutability":"view"},{"type":"function","name":"postRewardPool","inputs":[{"name":"","type":"uint256","internalType":"uint256"}],"outputs":[{"name":"","type":"uint256","internalType":"uint256"}],"stateMutability":"view"},{"type":"function","name":"postVoters","inputs":[{"name":"","type":"uint256","internalType":"uint256"},{"name":"","type":"uint256","internalType":"uint256"}],"outputs":[{"name":"","type":"address","internalType":"address"}],"stateMutability":"view"},{"type":"function","name":"renounceOwnership","inputs":[],"outputs":[],"stateMutability":"nonpayable"},{"type":"function","name":"subscriptionManager","inputs":[],"outputs":[{"name":"","type":"address","internalType":"contract SubscriptionManager"}],"stateMutability":"view"},{"type":"function","name":"transferOwnership","inputs":[{"name":"newOwner","type":"address","internalType":"address"}],"outputs":[],"stateMutability":"nonpayable"},{"type":"function","name":"voteForPublicRelease","inputs":[{"name":"_postId","type":"uint256","internalType":"uint256"}],"outputs":[],"stateMutability":"nonpayable"},{"type":"function","name":"voterInfo","inputs":[{"name":"","type":"uint256","internalType":"uint256"},{"name":"","type":"address","internalType":"address"}],"outputs":[{"name":"hasVoted","type":"bool","internalType":"bool"},{"name":"voteOrder","type":"uint256","internalType":"uint256"},{"name":"votedAt","type":"uint256","internalType":"uint256"},{"name":"tierAtVote","type":"uint256","internalType":"uint256"},{"name":"rewardClaimed","type":"uint256","internalType":"uint256"}],"stateMutability":"view"},{"type":"function","name":"votes","inputs":[{"name":"","type":"address","internalType":"address"},{"name":"","type":"uint256","internalType":"uint256"}],"outputs":[{"name":"","type":"bool","internalType":"bool"}],"stateMutability":"view"},{"type":"event","name":"OwnershipTransferred","inputs":[{"name":"previousOwner","type":"address","indexed":true,"internalType":"address"},{"name":"newOwner","type":"address","indexed":true,"internalType":"address"}],"anonymous":false},{"type":"event","name":"PostCreated","inputs":[{"name":"postId","type":"uint256","indexed":true,"internalType":"uint256"},{"name":"creator","type":"address","indexed":true,"internalType":"address"},{"name":"minTierRequired","type":"uint256","indexed":false,"internalType":"uint256"},{"name":"conversionThreshold","type":"uint256","indexed":false,"internalType":"uint256"},{"name":"contentHash","type":"string","indexed":false,"internalType":"string"}],"anonymous":false},{"type":"event","name":"PostDeleted","inputs":[{"name":"postId","type":"uint256","indexed":true,"internalType":"uint256"},{"name":"creator","type":"address","indexed":true,"internalType":"address"}],"anonymous":false},{"type":"event","name":"PostWentPublic","inputs":[{"name":"postId","type":"uint256","indexed":true,"internalType":"uint256"},{"name":"timestamp","type":"uint256","indexed":false,"internalType":"uint256"},{"name":"totalVotes","type":"uint256","indexed":false,"internalType":"uint256"},{"name":"finalViralScore","type":"uint256","indexed":false,"internalType":"uint256"}],"anonymous":false},{"type":"event","name":"RewardClaimed","inputs":[{"name":"postId","type":"uint256","indexed":true,"internalType":"uint256"},{"name":"voter","type":"address","indexed":true,"internalType":"address"},{"name":"amount","type":"uint256","indexed":false,"internalType":"uint256"}],"anonymous":false},{"type":"event","name":"VoteCast","inputs":[{"name":"postId","type":"uint256","indexed":true,"internalType":"uint256"},{"name":"voter","type":"address","indexed":true,"internalType":"address"},{"name":"voteOrder","type":"uint256","indexed":false,"internalType":"uint256"},{"name":"voterTier","type":"uint256","indexed":false,"internalType":"uint256"},{"name":"viralScore","type":"uint256","indexed":false,"internalType":"uint256"},{"name":"currentVotes","type":"uint256","indexed":false,"internalType":"uint256"}],"anonymous":false},{"type":"event","name":"VoterRewardDistributed","inputs":[{"name":"postId","type":"uint256","indexed":true,"internalType":"uint256"},{"name":"voter","type":"address","indexed":true,"internalType":"address"},{"name":"rewardAmount","type":"uint256","indexed":false,"internalType":"uint256"}],"anonymous":false},{"type":"error","name":"AlreadyPublic","inputs":[]},{"type":"error","name":"AlreadyVoted","inputs":[]},{"type":"error","name":"InsufficientTier","inputs":[]},{"type":"error","name":"InvalidThreshold","inputs":[]},{"type":"error","name":"NoRewardToClaim","inputs":[]},{"type":"error","name":"NotCreator","inputs":[]},{"type":"error","name":"NotSubscribed","inputs":[]},{"type":"error","name":"OwnableInvalidOwner","inputs":[{"name":"owner","type":"address","internalType":"address"}]},{"type":"error","name":"OwnableUnauthorizedAccount","inputs":[{"name":"account","type":"address","internalType":"address"}]},{"type":"error","name":"PostNotFound","inputs":[]},{"type":"error","name":"RewardAlreadyClaimed","inputs":[]},{"type":"error","name":"Unauthorized","inputs":[]}],"bytecode":{"object":"0x60c060405234801562000010575f80fd5b506040516200450638038062004506833981810160405281019062000036919062000252565b335f73ffffffffffffffffffffffffffffffffffffffff168173ffffffffffffffffffffffffffffffffffffffff1603620000aa575f6040517f1e4fbdf7000000000000000000000000000000000000000000000000000000008152600401620000a19190620002a8565b60405180910390fd5b620000bb816200012c60201b60201c565b508173ffffffffffffffffffffffffffffffffffffffff1660808173ffffffffffffffffffffffffffffffffffffffff16815250508073ffffffffffffffffffffffffffffffffffffffff1660a08173ffffffffffffffffffffffffffffffffffffffff16815250505050620002c3565b5f805f9054906101000a900473ffffffffffffffffffffffffffffffffffffffff169050815f806101000a81548173ffffffffffffffffffffffffffffffffffffffff021916908373ffffffffffffffffffffffffffffffffffffffff1602179055508173ffffffffffffffffffffffffffffffffffffffff168173ffffffffffffffffffffffffffffffffffffffff167f8be0079c531659141344cd1fd0a4f28419497f9722a3daafe3b4186f6b6457e060405160405180910390a35050565b5f80fd5b5f73ffffffffffffffffffffffffffffffffffffffff82169050919050565b5f6200021c82620001f1565b9050919050565b6200022e8162000210565b811462000239575f80fd5b50565b5f815190506200024c8162000223565b92915050565b5f80604083850312156200026b576200026a620001ed565b5b5f6200027a858286016200023c565b92505060206200028d858286016200023c565b9150509250929050565b620002a28162000210565b82525050565b5f602082019050620002bd5f83018462000297565b92915050565b60805160a051614205620003015f395f818161156001528181611c770152611d9001525f8181610faf01528181611ac10152611e5f01526142055ff3fe6080604052600436106101ed575f3560e01c8063715018a61161010c578063bf158fd21161009f578063e4fef30c1161006e578063e4fef30c14610780578063ed56d5df146107bc578063f2fde38b146107f8578063f534474814610820578063fbc759a11461084a576101ed565b8063bf158fd2146106c8578063c6530e41146106f2578063c893b82f1461072e578063d2569ea714610756576101ed565b806391d768de116100db57806391d768de146105df5780639af3805d146106095780639baf1c971461064d5780639f2524ee1461068c576101ed565b8063715018a614610527578063718bf6c41461053d5780638da5cb5b1461057957806391425890146105a3576101ed565b80632a23f519116101845780634ae747e2116101535780634ae747e2146104375780634ddaaca0146104735780634f640e4d146104af5780636db860d4146104eb576101ed565b80632a23f51914610369578063359326f21461039357806339b3e43c146103bb57806340731c24146103fb576101ed565b806317906c2e116101c057806317906c2e146102bd5780631d583e0d146102e7578063291e21f51461030357806329530fcb1461032d576101ed565b806303e61b5f146101f1578063094cd5ee1461022d5780630ba96f191461025557806310df90591461027f575b5f80fd5b3480156101fc575f80fd5b5061021760048036038101906102129190612c47565b610886565b6040516102249190612c94565b60405180910390f35b348015610238575f80fd5b50610253600480360381019061024e9190612cad565b6108b1565b005b348015610260575f80fd5b50610269610aa2565b6040516102769190612c94565b60405180910390f35b34801561028a575f80fd5b506102a560048036038101906102a09190612cd8565b610aa7565b6040516102b493929190612d3f565b60405180910390f35b3480156102c8575f80fd5b506102d1610b12565b6040516102de9190612c94565b60405180910390f35b61030160048036038101906102fc9190612cad565b610b18565b005b34801561030e575f80fd5b50610317610bdf565b6040516103249190612c94565b60405180910390f35b348015610338575f80fd5b50610353600480360381019061034e9190612dd5565b610be4565b6040516103609190613054565b60405180910390f35b348015610374575f80fd5b5061037d610df3565b60405161038a9190612c94565b60405180910390f35b34801561039e575f80fd5b506103b960048036038101906103b49190612cad565b610df8565b005b3480156103c6575f80fd5b506103e160048036038101906103dc9190613074565b6112bd565b6040516103f29594939291906130b2565b60405180910390f35b348015610406575f80fd5b50610421600480360381019061041c9190612cad565b611306565b60405161042e91906131c5565b60405180910390f35b348015610442575f80fd5b5061045d60048036038101906104589190612cad565b61146c565b60405161046a9190612c94565b60405180910390f35b34801561047e575f80fd5b50610499600480360381019061049491906131e5565b611481565b6040516104a691906132b8565b60405180910390f35b3480156104ba575f80fd5b506104d560048036038101906104d09190612cd8565b611514565b6040516104e291906132d8565b60405180910390f35b3480156104f6575f80fd5b50610511600480360381019061050c9190613419565b61155c565b60405161051e9190612c94565b60405180910390f35b348015610532575f80fd5b5061053b6118e1565b005b348015610548575f80fd5b50610563600480360381019061055e9190612cad565b6118f4565b604051610570919061356d565b60405180910390f35b348015610584575f80fd5b5061058d6119d9565b60405161059a91906132d8565b60405180910390f35b3480156105ae575f80fd5b506105c960048036038101906105c4919061358d565b611a00565b6040516105d69190613692565b60405180910390f35b3480156105ea575f80fd5b506105f3611abf565b604051610600919061370d565b60405180910390f35b348015610614575f80fd5b5061062f600480360381019061062a9190612cad565b611ae3565b6040516106449998979695949392919061376e565b60405180910390f35b348015610658575f80fd5b50610673600480360381019061066e9190612cad565b611bde565b6040516106839493929190613800565b60405180910390f35b348015610697575f80fd5b506106b260048036038101906106ad9190612c47565b611c4b565b6040516106bf9190613843565b60405180910390f35b3480156106d3575f80fd5b506106dc611c75565b6040516106e9919061387c565b60405180910390f35b3480156106fd575f80fd5b5061071860048036038101906107139190612c47565b611c99565b6040516107259190613843565b60405180910390f35b348015610739575f80fd5b50610754600480360381019061074f9190612cad565b611f30565b005b348015610761575f80fd5b5061076a612390565b6040516107779190612c94565b60405180910390f35b34801561078b575f80fd5b506107a660048036038101906107a19190612cad565b612395565b6040516107b3919061393d565b60405180910390f35b3480156107c7575f80fd5b506107e260048036038101906107dd9190612cad565b612431565b6040516107ef919061393d565b60405180910390f35b348015610803575f80fd5b5061081e600480360381019061081991906131e5565b61255a565b005b34801561082b575f80fd5b506108346125de565b6040516108419190612c94565b60405180910390f35b348015610855575f80fd5b50610870600480360381019061086b9190613074565b6125e3565b60405161087d91906139c3565b60405180910390f35b6003602052815f5260405f20818154811061089f575f80fd5b905f5260205f20015f91509150505481565b5f60025f8381526020019081526020015f2090505f73ffffffffffffffffffffffffffffffffffffffff16816001015f9054906101000a900473ffffffffffffffffffffffffffffffffffffffff1673ffffffffffffffffffffffffffffffffffffffff160361094d576040517fbc1f089f00000000000000000000000000000000000000000000000000000000815260040160405180910390fd5b3373ffffffffffffffffffffffffffffffffffffffff16816001015f9054906101000a900473ffffffffffffffffffffffffffffffffffffffff1673ffffffffffffffffffffffffffffffffffffffff16146109d5576040517f82b4290000000000000000000000000000000000000000000000000000000000815260040160405180910390fd5b60025f8381526020019081526020015f205f8082015f9055600182015f6101000a81549073ffffffffffffffffffffffffffffffffffffffff0219169055600282015f9055600382015f610a299190612ac9565b600482015f9055600582015f6101000a81549060ff0219169055600682015f9055600782015f9055600882015f905550503373ffffffffffffffffffffffffffffffffffffffff16827f1da4a15b15417b54b8b3bea2ca87cfc4c94f0fee7d86702d0dab9e2906e7a7d360405160405180910390a35050565b600381565b6007602052815f5260405f208181548110610ac0575f80fd5b905f5260205f2090600302015f9150915050805f015f9054906101000a900473ffffffffffffffffffffffffffffffffffffffff1690806001015490806002015f9054906101000a900460ff16905083565b60015481565b5f60025f8381526020019081526020015f2090505f73ffffffffffffffffffffffffffffffffffffffff16816001015f9054906101000a900473ffffffffffffffffffffffffffffffffffffffff1673ffffffffffffffffffffffffffffffffffffffff1603610bb4576040517fbc1f089f00000000000000000000000000000000000000000000000000000000815260040160405180910390fd5b3460085f8481526020019081526020015f205f828254610bd49190613a09565b925050819055505050565b600181565b60605f8383905067ffffffffffffffff811115610c0457610c036132f5565b5b604051908082528060200260200182016040528015610c3d57816020015b610c2a612b06565b815260200190600190039081610c225790505b5090505f5b84849050811015610de85760025f868684818110610c6357610c62613a3c565b5b9050602002013581526020019081526020015f20604051806101200160405290815f8201548152602001600182015f9054906101000a900473ffffffffffffffffffffffffffffffffffffffff1673ffffffffffffffffffffffffffffffffffffffff1673ffffffffffffffffffffffffffffffffffffffff16815260200160028201548152602001600382018054610cfb90613a96565b80601f0160208091040260200160405190810160405280929190818152602001828054610d2790613a96565b8015610d725780601f10610d4957610100808354040283529160200191610d72565b820191905f5260205f20905b815481529060010190602001808311610d5557829003601f168201915b5050505050815260200160048201548152602001600582015f9054906101000a900460ff161515151581526020016006820154815260200160078201548152602001600882015481525050828281518110610dd057610dcf613a3c565b5b60200260200101819052508080600101915050610c42565b508091505092915050565b600281565b5f60025f8381526020019081526020015f2090505f73ffffffffffffffffffffffffffffffffffffffff16816001015f9054906101000a900473ffffffffffffffffffffffffffffffffffffffff1673ffffffffffffffffffffffffffffffffffffffff1603610e94576040517fbc1f089f00000000000000000000000000000000000000000000000000000000815260040160405180910390fd5b806005015f9054906101000a900460ff1615610edc576040517fa072c1e700000000000000000000000000000000000000000000000000000000815260040160405180910390fd5b60045f3373ffffffffffffffffffffffffffffffffffffffff1673ffffffffffffffffffffffffffffffffffffffff1681526020019081526020015f205f8381526020019081526020015f205f9054906101000a900460ff1615610f6c576040517f7c9a1cf900000000000000000000000000000000000000000000000000000000815260040160405180910390fd5b610f763383611c99565b610fac576040517fd7e0dc2700000000000000000000000000000000000000000000000000000000815260040160405180910390fd5b5f7f000000000000000000000000000000000000000000000000000000000000000073ffffffffffffffffffffffffffffffffffffffff16639c67180733846001015f9054906101000a900473ffffffffffffffffffffffffffffffffffffffff166040518363ffffffff1660e01b815260040161102b929190613ac6565b602060405180830381865afa158015611046573d5f803e3d5ffd5b505050506040513d601f19601f8201168201806040525081019061106a9190613b01565b90505f6110768261268b565b9050600160045f3373ffffffffffffffffffffffffffffffffffffffff1673ffffffffffffffffffffffffffffffffffffffff1681526020019081526020015f205f8681526020019081526020015f205f6101000a81548160ff0219169083151502179055505f600184600801546110ee9190613a09565b905080846008018190555081846006015f82825461110c9190613a09565b925050819055506040518060a001604052806001151581526020018281526020014281526020018481526020015f81525060055f8781526020019081526020015f205f3373ffffffffffffffffffffffffffffffffffffffff1673ffffffffffffffffffffffffffffffffffffffff1681526020019081526020015f205f820151815f015f6101000a81548160ff0219169083151502179055506020820151816001015560408201518160020155606082015181600301556080820151816004015590505060065f8681526020019081526020015f2033908060018154018082558091505060019003905f5260205f20015f9091909190916101000a81548173ffffffffffffffffffffffffffffffffffffffff021916908373ffffffffffffffffffffffffffffffffffffffff1602179055503373ffffffffffffffffffffffffffffffffffffffff16857f90f0670db9fae8661a830b902617d6f57a6cd68dde8d3777f74458299390f3978386886006015489600801546040516112959493929190613800565b60405180910390a383600701548460080154106112b6576112b5856126b8565b5b5050505050565b6005602052815f5260405f20602052805f5260405f205f9150915050805f015f9054906101000a900460ff16908060010154908060020154908060030154908060040154905085565b61130e612b06565b60025f8381526020019081526020015f20604051806101200160405290815f8201548152602001600182015f9054906101000a900473ffffffffffffffffffffffffffffffffffffffff1673ffffffffffffffffffffffffffffffffffffffff1673ffffffffffffffffffffffffffffffffffffffff168152602001600282015481526020016003820180546113a390613a96565b80601f01602080910402602001604051908101604052809291908181526020018280546113cf90613a96565b801561141a5780601f106113f15761010080835404028352916020019161141a565b820191905f5260205f20905b8154815290600101906020018083116113fd57829003601f168201915b5050505050815260200160048201548152602001600582015f9054906101000a900460ff1615151515815260200160068201548152602001600782015481526020016008820154815250509050919050565b6008602052805f5260405f205f915090505481565b606060035f8373ffffffffffffffffffffffffffffffffffffffff1673ffffffffffffffffffffffffffffffffffffffff1681526020019081526020015f2080548060200260200160405190810160405280929190818152602001828054801561150857602002820191905f5260205f20905b8154815260200190600101908083116114f4575b50505050509050919050565b6006602052815f5260405f20818154811061152d575f80fd5b905f5260205f20015f915091509054906101000a900473ffffffffffffffffffffffffffffffffffffffff1681565b5f807f000000000000000000000000000000000000000000000000000000000000000073ffffffffffffffffffffffffffffffffffffffff1663a0210309336040518263ffffffff1660e01b81526004016115b791906132d8565b5f60405180830381865afa1580156115d1573d5f803e3d5ffd5b505050506040513d5f823e3d601f19601f820116820180604052508101906115f99190613cfb565b90505f73ffffffffffffffffffffffffffffffffffffffff16815f015173ffffffffffffffffffffffffffffffffffffffff1603611663576040517f93687c0b00000000000000000000000000000000000000000000000000000000815260040160405180910390fd5b60018510806116725750600385115b156116a9576040517fd7e0dc2700000000000000000000000000000000000000000000000000000000815260040160405180910390fd5b5f83036116e2576040517faabd5a0900000000000000000000000000000000000000000000000000000000815260040160405180910390fd5b60015f8154809291906116f490613d42565b91905055505f60015490506040518061012001604052808281526020013373ffffffffffffffffffffffffffffffffffffffff1681526020018781526020018681526020014281526020015f151581526020015f81526020018581526020015f81525060025f8381526020019081526020015f205f820151815f01556020820151816001015f6101000a81548173ffffffffffffffffffffffffffffffffffffffff021916908373ffffffffffffffffffffffffffffffffffffffff1602179055506040820151816002015560608201518160030190816117d59190613f1d565b506080820151816004015560a0820151816005015f6101000a81548160ff02191690831515021790555060c0820151816006015560e08201518160070155610100820151816008015590505060035f3373ffffffffffffffffffffffffffffffffffffffff1673ffffffffffffffffffffffffffffffffffffffff1681526020019081526020015f2081908060018154018082558091505060019003905f5260205f20015f90919091909150553373ffffffffffffffffffffffffffffffffffffffff16817f67897d3000121ff916e70e6567948bbfd3d960742382e2883814067823aa3d2e8887896040516118cd93929190613fec565b60405180910390a380925050509392505050565b6118e9612739565b6118f25f6127c0565b565b606060075f8381526020019081526020015f20805480602002602001604051908101604052809291908181526020015f905b828210156119ce578382905f5260205f2090600302016040518060600160405290815f82015f9054906101000a900473ffffffffffffffffffffffffffffffffffffffff1673ffffffffffffffffffffffffffffffffffffffff1673ffffffffffffffffffffffffffffffffffffffff16815260200160018201548152602001600282015f9054906101000a900460ff16151515158152505081526020019060010190611926565b505050509050919050565b5f805f9054906101000a900473ffffffffffffffffffffffffffffffffffffffff16905090565b60605f8383905067ffffffffffffffff811115611a2057611a1f6132f5565b5b604051908082528060200260200182016040528015611a4e5781602001602082028036833780820191505090505b5090505f5b84849050811015611ab357611a8186868684818110611a7557611a74613a3c565b5b90506020020135611c99565b828281518110611a9457611a93613a3c565b5b6020026020010190151590811515815250508080600101915050611a53565b50809150509392505050565b7f000000000000000000000000000000000000000000000000000000000000000081565b6002602052805f5260405f205f91509050805f015490806001015f9054906101000a900473ffffffffffffffffffffffffffffffffffffffff1690806002015490806003018054611b3390613a96565b80601f0160208091040260200160405190810160405280929190818152602001828054611b5f90613a96565b8015611baa5780601f10611b8157610100808354040283529160200191611baa565b820191905f5260205f20905b815481529060010190602001808311611b8d57829003601f168201915b505050505090806004015490806005015f9054906101000a900460ff16908060060154908060070154908060080154905089565b5f805f805f60025f8781526020019081526020015f2090508060080154945080600701549350806006015492505f8403611c1a575f9150611c43565b83606486611c289190614028565b611c329190614096565b91506064821115611c4257606491505b5b509193509193565b6004602052815f5260405f20602052805f5260405f205f915091509054906101000a900460ff1681565b7f000000000000000000000000000000000000000000000000000000000000000081565b5f8060025f8481526020019081526020015f2090505f73ffffffffffffffffffffffffffffffffffffffff16816001015f9054906101000a900473ffffffffffffffffffffffffffffffffffffffff1673ffffffffffffffffffffffffffffffffffffffff1603611d0d575f915050611f2a565b806005015f9054906101000a900460ff1615611d2d576001915050611f2a565b806001015f9054906101000a900473ffffffffffffffffffffffffffffffffffffffff1673ffffffffffffffffffffffffffffffffffffffff168473ffffffffffffffffffffffffffffffffffffffff1603611d8d576001915050611f2a565b5f7f000000000000000000000000000000000000000000000000000000000000000073ffffffffffffffffffffffffffffffffffffffff1663b89d3b4886846001015f9054906101000a900473ffffffffffffffffffffffffffffffffffffffff166040518363ffffffff1660e01b8152600401611e0c929190613ac6565b602060405180830381865afa158015611e27573d5f803e3d5ffd5b505050506040513d601f19601f82011682018060405250810190611e4b91906140c6565b905080611e5c575f92505050611f2a565b5f7f000000000000000000000000000000000000000000000000000000000000000073ffffffffffffffffffffffffffffffffffffffff16639c67180787856001015f9054906101000a900473ffffffffffffffffffffffffffffffffffffffff166040518363ffffffff1660e01b8152600401611edb929190613ac6565b602060405180830381865afa158015611ef6573d5f803e3d5ffd5b505050506040513d601f19601f82011682018060405250810190611f1a9190613b01565b9050826002015481101593505050505b92915050565b5f60025f8381526020019081526020015f2090505f73ffffffffffffffffffffffffffffffffffffffff16816001015f9054906101000a900473ffffffffffffffffffffffffffffffffffffffff1673ffffffffffffffffffffffffffffffffffffffff1603611fcc576040517fbc1f089f00000000000000000000000000000000000000000000000000000000815260040160405180910390fd5b806005015f9054906101000a900460ff16612013576040517fbc1f089f00000000000000000000000000000000000000000000000000000000815260040160405180910390fd5b5f60055f8481526020019081526020015f205f3373ffffffffffffffffffffffffffffffffffffffff1673ffffffffffffffffffffffffffffffffffffffff1681526020019081526020015f209050805f015f9054906101000a900460ff166120a8576040517f5aa9184d00000000000000000000000000000000000000000000000000000000815260040160405180910390fd5b6003816001015411156120e7576040517f5aa9184d00000000000000000000000000000000000000000000000000000000815260040160405180910390fd5b5f60075f8581526020019081526020015f2090505f5b818054905081101561235a573373ffffffffffffffffffffffffffffffffffffffff1682828154811061213357612132613a3c565b5b905f5260205f2090600302015f015f9054906101000a900473ffffffffffffffffffffffffffffffffffffffff1673ffffffffffffffffffffffffffffffffffffffff160361234d5781818154811061218f5761218e613a3c565b5b905f5260205f2090600302016002015f9054906101000a900460ff16156121e2576040517fb3f8c0dc00000000000000000000000000000000000000000000000000000000815260040160405180910390fd5b5f8282815481106121f6576121f5613a3c565b5b905f5260205f209060030201600101549050600183838154811061221d5761221c613a3c565b5b905f5260205f2090600302016002015f6101000a81548160ff0219169083151502179055508084600401819055505f3373ffffffffffffffffffffffffffffffffffffffff16826040516122709061411e565b5f6040518083038185875af1925050503d805f81146122aa576040519150601f19603f3d011682016040523d82523d5f602084013e6122af565b606091505b50509050806122f3576040517f08c379a00000000000000000000000000000000000000000000000000000000081526004016122ea9061417c565b60405180910390fd5b3373ffffffffffffffffffffffffffffffffffffffff16877f24b5efa61dd1cfc659205a97fb8ed868f3cb8c81922bab2b96423e5de1de2cb78460405161233a9190612c94565b60405180910390a350505050505061238d565b80806001019150506120fd565b506040517f5aa9184d00000000000000000000000000000000000000000000000000000000815260040160405180910390fd5b50565b600381565b606060065f8381526020019081526020015f2080548060200260200160405190810160405280929190818152602001828054801561242557602002820191905f5260205f20905b815f9054906101000a900473ffffffffffffffffffffffffffffffffffffffff1673ffffffffffffffffffffffffffffffffffffffff16815260200190600101908083116123dc575b50505050509050919050565b60605f60065f8481526020019081526020015f2090505f600382805490501061245b576003612461565b81805490505b90505f8167ffffffffffffffff81111561247e5761247d6132f5565b5b6040519080825280602002602001820160405280156124ac5781602001602082028036833780820191505090505b5090505f5b8281101561254e578381815481106124cc576124cb613a3c565b5b905f5260205f20015f9054906101000a900473ffffffffffffffffffffffffffffffffffffffff1682828151811061250757612506613a3c565b5b602002602001019073ffffffffffffffffffffffffffffffffffffffff16908173ffffffffffffffffffffffffffffffffffffffff168152505080806001019150506124b1565b50809350505050919050565b612562612739565b5f73ffffffffffffffffffffffffffffffffffffffff168173ffffffffffffffffffffffffffffffffffffffff16036125d2575f6040517f1e4fbdf70000000000000000000000000000000000000000000000000000000081526004016125c991906132d8565b60405180910390fd5b6125db816127c0565b50565b606481565b6125eb612b62565b60055f8481526020019081526020015f205f8373ffffffffffffffffffffffffffffffffffffffff1673ffffffffffffffffffffffffffffffffffffffff1681526020019081526020015f206040518060a00160405290815f82015f9054906101000a900460ff16151515158152602001600182015481526020016002820154815260200160038201548152602001600482015481525050905092915050565b5f6003820361269d57600390506126b3565b600282036126ae57600290506126b3565b600190505b919050565b5f60025f8381526020019081526020015f2090506001816005015f6101000a81548160ff0219169083151502179055506126f182612881565b817f236f55f6e508758fae24ae7e4261a8afaa2ecc1d5ffdb665ac42974b718353d1428360080154846006015460405161272d9392919061419a565b60405180910390a25050565b612741612ac2565b73ffffffffffffffffffffffffffffffffffffffff1661275f6119d9565b73ffffffffffffffffffffffffffffffffffffffff16146127be57612782612ac2565b6040517f118cdaa70000000000000000000000000000000000000000000000000000000081526004016127b591906132d8565b60405180910390fd5b565b5f805f9054906101000a900473ffffffffffffffffffffffffffffffffffffffff169050815f806101000a81548173ffffffffffffffffffffffffffffffffffffffff021916908373ffffffffffffffffffffffffffffffffffffffff1602179055508173ffffffffffffffffffffffffffffffffffffffff168173ffffffffffffffffffffffffffffffffffffffff167f8be0079c531659141344cd1fd0a4f28419497f9722a3daafe3b4186f6b6457e060405160405180910390a35050565b5f60065f8381526020019081526020015f2090505f60085f8481526020019081526020015f205490505f8114806128bb57505f8280549050145b156128c7575050612abf565b5f60405180606001604052806113888152602001610bb881526020016107d081525090505f60038480549050106128ff576003612905565b83805490505b90505f5b81811015612ab9575f85828154811061292557612924613a3c565b5b905f5260205f20015f9054906101000a900473ffffffffffffffffffffffffffffffffffffffff1690505f61271085846003811061296657612965613a3c565b5b6020020151876129769190614028565b6129809190614096565b905060075f8981526020019081526020015f2060405180606001604052808473ffffffffffffffffffffffffffffffffffffffff1681526020018381526020015f1515815250908060018154018082558091505060019003905f5260205f2090600302015f909190919091505f820151815f015f6101000a81548173ffffffffffffffffffffffffffffffffffffffff021916908373ffffffffffffffffffffffffffffffffffffffff160217905550602082015181600101556040820151816002015f6101000a81548160ff02191690831515021790555050508173ffffffffffffffffffffffffffffffffffffffff16887fb6ff52d9840ea201ad6de6ede9dd778e50af8327fb0872c6561bae608258d6ce83604051612aa29190612c94565b60405180910390a350508080600101915050612909565b50505050505b50565b5f33905090565b508054612ad590613a96565b5f825580601f10612ae65750612b03565b601f0160209004905f5260205f2090810190612b029190612b8e565b5b50565b6040518061012001604052805f81526020015f73ffffffffffffffffffffffffffffffffffffffff1681526020015f8152602001606081526020015f81526020015f151581526020015f81526020015f81526020015f81525090565b6040518060a001604052805f151581526020015f81526020015f81526020015f81526020015f81525090565b5b80821115612ba5575f815f905550600101612b8f565b5090565b5f604051905090565b5f80fd5b5f80fd5b5f73ffffffffffffffffffffffffffffffffffffffff82169050919050565b5f612be382612bba565b9050919050565b612bf381612bd9565b8114612bfd575f80fd5b50565b5f81359050612c0e81612bea565b92915050565b5f819050919050565b612c2681612c14565b8114612c30575f80fd5b50565b5f81359050612c4181612c1d565b92915050565b5f8060408385031215612c5d57612c5c612bb2565b5b5f612c6a85828601612c00565b9250506020612c7b85828601612c33565b9150509250929050565b612c8e81612c14565b82525050565b5f602082019050612ca75f830184612c85565b92915050565b5f60208284031215612cc257612cc1612bb2565b5b5f612ccf84828501612c33565b91505092915050565b5f8060408385031215612cee57612ced612bb2565b5b5f612cfb85828601612c33565b9250506020612d0c85828601612c33565b9150509250929050565b612d1f81612bd9565b82525050565b5f8115159050919050565b612d3981612d25565b82525050565b5f606082019050612d525f830186612d16565b612d5f6020830185612c85565b612d6c6040830184612d30565b949350505050565b5f80fd5b5f80fd5b5f80fd5b5f8083601f840112612d9557612d94612d74565b5b8235905067ffffffffffffffff811115612db257612db1612d78565b5b602083019150836020820283011115612dce57612dcd612d7c565b5b9250929050565b5f8060208385031215612deb57612dea612bb2565b5b5f83013567ffffffffffffffff811115612e0857612e07612bb6565b5b612e1485828601612d80565b92509250509250929050565b5f81519050919050565b5f82825260208201905092915050565b5f819050602082019050919050565b612e5281612c14565b82525050565b612e6181612bd9565b82525050565b5f81519050919050565b5f82825260208201905092915050565b5f5b83811015612e9e578082015181840152602081019050612e83565b5f8484015250505050565b5f601f19601f8301169050919050565b5f612ec382612e67565b612ecd8185612e71565b9350612edd818560208601612e81565b612ee681612ea9565b840191505092915050565b612efa81612d25565b82525050565b5f61012083015f830151612f165f860182612e49565b506020830151612f296020860182612e58565b506040830151612f3c6040860182612e49565b5060608301518482036060860152612f548282612eb9565b9150506080830151612f696080860182612e49565b5060a0830151612f7c60a0860182612ef1565b5060c0830151612f8f60c0860182612e49565b5060e0830151612fa260e0860182612e49565b50610100830151612fb7610100860182612e49565b508091505092915050565b5f612fcd8383612f00565b905092915050565b5f602082019050919050565b5f612feb82612e20565b612ff58185612e2a565b93508360208202850161300785612e3a565b805f5b8581101561304257848403895281516130238582612fc2565b945061302e83612fd5565b925060208a0199505060018101905061300a565b50829750879550505050505092915050565b5f6020820190508181035f83015261306c8184612fe1565b905092915050565b5f806040838503121561308a57613089612bb2565b5b5f61309785828601612c33565b92505060206130a885828601612c00565b9150509250929050565b5f60a0820190506130c55f830188612d30565b6130d26020830187612c85565b6130df6040830186612c85565b6130ec6060830185612c85565b6130f96080830184612c85565b9695505050505050565b5f61012083015f8301516131195f860182612e49565b50602083015161312c6020860182612e58565b50604083015161313f6040860182612e49565b50606083015184820360608601526131578282612eb9565b915050608083015161316c6080860182612e49565b5060a083015161317f60a0860182612ef1565b5060c083015161319260c0860182612e49565b5060e08301516131a560e0860182612e49565b506101008301516131ba610100860182612e49565b508091505092915050565b5f6020820190508181035f8301526131dd8184613103565b905092915050565b5f602082840312156131fa576131f9612bb2565b5b5f61320784828501612c00565b91505092915050565b5f81519050919050565b5f82825260208201905092915050565b5f819050602082019050919050565b5f6132448383612e49565b60208301905092915050565b5f602082019050919050565b5f61326682613210565b613270818561321a565b935061327b8361322a565b805f5b838110156132ab5781516132928882613239565b975061329d83613250565b92505060018101905061327e565b5085935050505092915050565b5f6020820190508181035f8301526132d0818461325c565b905092915050565b5f6020820190506132eb5f830184612d16565b92915050565b5f80fd5b7f4e487b71000000000000000000000000000000000000000000000000000000005f52604160045260245ffd5b61332b82612ea9565b810181811067ffffffffffffffff8211171561334a576133496132f5565b5b80604052505050565b5f61335c612ba9565b90506133688282613322565b919050565b5f67ffffffffffffffff821115613387576133866132f5565b5b61339082612ea9565b9050602081019050919050565b828183375f83830152505050565b5f6133bd6133b88461336d565b613353565b9050828152602081018484840111156133d9576133d86132f1565b5b6133e484828561339d565b509392505050565b5f82601f830112613400576133ff612d74565b5b81356134108482602086016133ab565b91505092915050565b5f805f606084860312156134305761342f612bb2565b5b5f61343d86828701612c33565b935050602084013567ffffffffffffffff81111561345e5761345d612bb6565b5b61346a868287016133ec565b925050604061347b86828701612c33565b9150509250925092565b5f81519050919050565b5f82825260208201905092915050565b5f819050602082019050919050565b606082015f8201516134c25f850182612e58565b5060208201516134d56020850182612e49565b5060408201516134e86040850182612ef1565b50505050565b5f6134f983836134ae565b60608301905092915050565b5f602082019050919050565b5f61351b82613485565b613525818561348f565b93506135308361349f565b805f5b8381101561356057815161354788826134ee565b975061355283613505565b925050600181019050613533565b5085935050505092915050565b5f6020820190508181035f8301526135858184613511565b905092915050565b5f805f604084860312156135a4576135a3612bb2565b5b5f6135b186828701612c00565b935050602084013567ffffffffffffffff8111156135d2576135d1612bb6565b5b6135de86828701612d80565b92509250509250925092565b5f81519050919050565b5f82825260208201905092915050565b5f819050602082019050919050565b5f61361e8383612ef1565b60208301905092915050565b5f602082019050919050565b5f613640826135ea565b61364a81856135f4565b935061365583613604565b805f5b8381101561368557815161366c8882613613565b97506136778361362a565b925050600181019050613658565b5085935050505092915050565b5f6020820190508181035f8301526136aa8184613636565b905092915050565b5f819050919050565b5f6136d56136d06136cb84612bba565b6136b2565b612bba565b9050919050565b5f6136e6826136bb565b9050919050565b5f6136f7826136dc565b9050919050565b613707816136ed565b82525050565b5f6020820190506137205f8301846136fe565b92915050565b5f82825260208201905092915050565b5f61374082612e67565b61374a8185613726565b935061375a818560208601612e81565b61376381612ea9565b840191505092915050565b5f610120820190506137825f83018c612c85565b61378f602083018b612d16565b61379c604083018a612c85565b81810360608301526137ae8189613736565b90506137bd6080830188612c85565b6137ca60a0830187612d30565b6137d760c0830186612c85565b6137e460e0830185612c85565b6137f2610100830184612c85565b9a9950505050505050505050565b5f6080820190506138135f830187612c85565b6138206020830186612c85565b61382d6040830185612c85565b61383a6060830184612c85565b95945050505050565b5f6020820190506138565f830184612d30565b92915050565b5f613866826136dc565b9050919050565b6138768161385c565b82525050565b5f60208201905061388f5f83018461386d565b92915050565b5f81519050919050565b5f82825260208201905092915050565b5f819050602082019050919050565b5f6138c98383612e58565b60208301905092915050565b5f602082019050919050565b5f6138eb82613895565b6138f5818561389f565b9350613900836138af565b805f5b8381101561393057815161391788826138be565b9750613922836138d5565b925050600181019050613903565b5085935050505092915050565b5f6020820190508181035f83015261395581846138e1565b905092915050565b60a082015f8201516139715f850182612ef1565b5060208201516139846020850182612e49565b5060408201516139976040850182612e49565b5060608201516139aa6060850182612e49565b5060808201516139bd6080850182612e49565b50505050565b5f60a0820190506139d65f83018461395d565b92915050565b7f4e487b71000000000000000000000000000000000000000000000000000000005f52601160045260245ffd5b5f613a1382612c14565b9150613a1e83612c14565b9250828201905080821115613a3657613a356139dc565b5b92915050565b7f4e487b71000000000000000000000000000000000000000000000000000000005f52603260045260245ffd5b7f4e487b71000000000000000000000000000000000000000000000000000000005f52602260045260245ffd5b5f6002820490506001821680613aad57607f821691505b602082108103613ac057613abf613a69565b5b50919050565b5f604082019050613ad95f830185612d16565b613ae66020830184612d16565b9392505050565b5f81519050613afb81612c1d565b92915050565b5f60208284031215613b1657613b15612bb2565b5b5f613b2384828501613aed565b91505092915050565b5f80fd5b5f80fd5b5f81519050613b4281612bea565b92915050565b5f613b5a613b558461336d565b613353565b905082815260208101848484011115613b7657613b756132f1565b5b613b81848285612e81565b509392505050565b5f82601f830112613b9d57613b9c612d74565b5b8151613bad848260208601613b48565b91505092915050565b613bbf81612d25565b8114613bc9575f80fd5b50565b5f81519050613bda81613bb6565b92915050565b5f6101008284031215613bf657613bf5613b2c565b5b613c01610100613353565b90505f613c1084828501613b34565b5f83015250602082015167ffffffffffffffff811115613c3357613c32613b30565b5b613c3f84828501613b89565b602083015250604082015167ffffffffffffffff811115613c6357613c62613b30565b5b613c6f84828501613b89565b604083015250606082015167ffffffffffffffff811115613c9357613c92613b30565b5b613c9f84828501613b89565b6060830152506080613cb384828501613aed565b60808301525060a0613cc784828501613bcc565b60a08301525060c0613cdb84828501613aed565b60c08301525060e0613cef84828501613aed565b60e08301525092915050565b5f60208284031215613d1057613d0f612bb2565b5b5f82015167ffffffffffffffff811115613d2d57613d2c612bb6565b5b613d3984828501613be0565b91505092915050565b5f613d4c82612c14565b91507fffffffffffffffffffffffffffffffffffffffffffffffffffffffffffffffff8203613d7e57613d7d6139dc565b5b600182019050919050565b5f819050815f5260205f209050919050565b5f6020601f8301049050919050565b5f82821b905092915050565b5f60088302613de57fffffffffffffffffffffffffffffffffffffffffffffffffffffffffffffffff82613daa565b613def8683613daa565b95508019841693508086168417925050509392505050565b5f613e21613e1c613e1784612c14565b6136b2565b612c14565b9050919050565b5f819050919050565b613e3a83613e07565b613e4e613e4682613e28565b848454613db6565b825550505050565b5f90565b613e62613e56565b613e6d818484613e31565b505050565b5b81811015613e9057613e855f82613e5a565b600181019050613e73565b5050565b601f821115613ed557613ea681613d89565b613eaf84613d9b565b81016020851015613ebe578190505b613ed2613eca85613d9b565b830182613e72565b50505b505050565b5f82821c905092915050565b5f613ef55f1984600802613eda565b1980831691505092915050565b5f613f0d8383613ee6565b9150826002028217905092915050565b613f2682612e67565b67ffffffffffffffff811115613f3f57613f3e6132f5565b5b613f498254613a96565b613f54828285613e94565b5f60209050601f831160018114613f85575f8415613f73578287015190505b613f7d8582613f02565b865550613fe4565b601f198416613f9386613d89565b5f5b82811015613fba57848901518255600182019150602085019450602081019050613f95565b86831015613fd75784890151613fd3601f891682613ee6565b8355505b6001600288020188555050505b505050505050565b5f606082019050613fff5f830186612c85565b61400c6020830185612c85565b818103604083015261401e8184613736565b9050949350505050565b5f61403282612c14565b915061403d83612c14565b925082820261404b81612c14565b91508282048414831517614062576140616139dc565b5b5092915050565b7f4e487b71000000000000000000000000000000000000000000000000000000005f52601260045260245ffd5b5f6140a082612c14565b91506140ab83612c14565b9250826140bb576140ba614069565b5b828204905092915050565b5f602082840312156140db576140da612bb2565b5b5f6140e884828501613bcc565b91505092915050565b5f81905092915050565b50565b5f6141095f836140f1565b9150614114826140fb565b5f82019050919050565b5f614128826140fe565b9150819050919050565b7f5472616e73666572206661696c656400000000000000000000000000000000005f82015250565b5f614166600f83613726565b915061417182614132565b602082019050919050565b5f6020820190508181035f8301526141938161415a565b9050919050565b5f6060820190506141ad5f830186612c85565b6141ba6020830185612c85565b6141c76040830184612c85565b94935050505056fea2646970667358221220315e688667e40ae2f6036159e81fe95f3ec9bec6340d504c6fb0b68cae3bf95164736f6c63430008180033","linkReferences":{}},"methodIdentifiers":{"BRONZE_VOTE_WEIGHT()":"291e21f5","EARLY_VOTER_REWARD_BPS()":"f5344748","EARLY_VOTER_SLOTS()":"0ba96f19","GOLD_VOTE_WEIGHT()":"d2569ea7","SILVER_VOTE_WEIGHT()":"2a23f519","badge()":"91d768de","claimVoterReward(uint256)":"c893b82f","createExclusivePost(uint256,string,uint256)":"6db860d4","creatorPosts(address,uint256)":"03e61b5f","deletePost(uint256)":"094cd5ee","earlyVoterRewards(uint256,uint256)":"10df9059","exclusivePosts(uint256)":"9af3805d","fundRewardPool(uint256)":"1d583e0d","getCreatorPosts(address)":"4ddaaca0","getEarlyVoterRewards(uint256)":"718bf6c4","getEarlyVoters(uint256)":"ed56d5df","getPost(uint256)":"40731c24","getPostVoters(uint256)":"e4fef30c","getPosts(uint256[])":"29530fcb","getVoterInfo(uint256,address)":"fbc759a1","getVotingProgress(uint256)":"9baf1c97","hasAccess(address,uint256)":"c6530e41","hasAccessBatch(address,uint256[])":"91425890","owner()":"8da5cb5b","postCount()":"17906c2e","postRewardPool(uint256)":"4ae747e2","postVoters(uint256,uint256)":"4f640e4d","renounceOwnership()":"715018a6","subscriptionManager()":"bf158fd2","transferOwnership(address)":"f2fde38b","voteForPublicRelease(uint256)":"359326f2","voterInfo(uint256,address)":"39b3e43c","votes(address,uint256)":"9f2524ee"},"id":41}