{"abi":[{"type":"constructor","inputs":[{"name":"_badge","type":"address","internalType":"address"},{"name":"_feeRecipient","type":"address","internalType":"address"}],"stateMutability":"nonpayable"},{"type":"function","name":"TIER_BRONZE","inputs":[],"outputs":[{"name":"","type":"uint256","internalType":"uint256"}],"stateMutability":"view"},{"type":"function","name":"TIER_GOLD","inputs":[],"outputs":[{"name":"","type":"uint256","internalType":"uint256"}],"stateMutability":"view"},{"type":"function","name":"TIER_SILVER","inputs":[],"outputs":[{"name":"","type":"uint256","internalType":"uint256"}],"stateMutability":"view"},{"type":"function","name":"badge","inputs":[],"outputs":[{"name":"","type":"address","internalType":"contract TieredBadge"}],"stateMutability":"view"},{"type":"function","name":"cancelSubscription","inputs":[{"name":"creator","type":"address","internalType":"address"}],"outputs":[],"stateMutability":"nonpayable"},{"type":"function","name":"checkAccess","inputs":[{"name":"_creator","type":"address","internalType":"address"},{"name":"_subscriber","type":"address","internalType":"address"},{"name":"_postId","type":"uint256","internalType":"uint256"}],"outputs":[{"name":"","type":"bool","internalType":"bool"}],"stateMutability":"view"},{"type":"function","name":"configureTiers","inputs":[{"name":"bronzePrice","type":"uint256","internalType":"uint256"},{"name":"silverPrice","type":"uint256","internalType":"uint256"},{"name":"goldPrice","type":"uint256","internalType":"uint256"}],"outputs":[],"stateMutability":"nonpayable"},{"type":"function","name":"creatorByIndex","inputs":[{"name":"","type":"uint256","internalType":"uint256"}],"outputs":[{"name":"","type":"address","internalType":"address"}],"stateMutability":"view"},{"type":"function","name":"creatorCount","inputs":[],"outputs":[{"name":"","type":"uint256","internalType":"uint256"}],"stateMutability":"view"},{"type":"function","name":"creatorRevenue","inputs":[{"name":"","type":"address","internalType":"address"}],"outputs":[{"name":"","type":"uint256","internalType":"uint256"}],"stateMutability":"view"},{"type":"function","name":"creators","inputs":[{"name":"","type":"address","internalType":"address"}],"outputs":[{"name":"wallet","type":"address","internalType":"address"},{"name":"handle","type":"string","internalType":"string"},{"name":"name","type":"string","internalType":"string"},{"name":"profileURI","type":"string","internalType":"string"},{"name":"tierIds","type":"uint256","internalType":"uint256"},{"name":"isActive","type":"bool","internalType":"bool"},{"name":"totalSubscribers","type":"uint256","internalType":"uint256"},{"name":"creatorIndex","type":"uint256","internalType":"uint256"}],"stateMutability":"view"},{"type":"function","name":"deactivateCreator","inputs":[{"name":"creator","type":"address","internalType":"address"}],"outputs":[],"stateMutability":"nonpayable"},{"type":"function","name":"deactivateTier","inputs":[{"name":"tier","type":"uint256","internalType":"uint256"}],"outputs":[],"stateMutability":"nonpayable"},{"type":"function","name":"feeRecipient","inputs":[],"outputs":[{"name":"","type":"address","internalType":"address"}],"stateMutability":"view"},{"type":"function","name":"getCreator","inputs":[{"name":"creator","type":"address","internalType":"address"}],"outputs":[{"name":"","type":"tuple","internalType":"struct SubscriptionManager.Creator","components":[{"name":"wallet","type":"address","internalType":"address"},{"name":"handle","type":"string","internalType":"string"},{"name":"name","type":"string","internalType":"string"},{"name":"profileURI","type":"string","internalType":"string"},{"name":"tierIds","type":"uint256","internalType":"uint256"},{"name":"isActive","type":"bool","internalType":"bool"},{"name":"totalSubscribers","type":"uint256","internalType":"uint256"},{"name":"creatorIndex","type":"uint256","internalType":"uint256"}]}],"stateMutability":"view"},{"type":"function","name":"getCreatorByHandle","inputs":[{"name":"handle","type":"string","internalType":"string"}],"outputs":[{"name":"","type":"address","internalType":"address"}],"stateMutability":"view"},{"type":"function","name":"getCreatorRevenue","inputs":[{"name":"creator","type":"address","internalType":"address"}],"outputs":[{"name":"","type":"uint256","internalType":"uint256"}],"stateMutability":"view"},{"type":"function","name":"getPendingWithdraw","inputs":[{"name":"creator","type":"address","internalType":"address"}],"outputs":[{"name":"","type":"uint256","internalType":"uint256"}],"stateMutability":"view"},{"type":"function","name":"getSubscription","inputs":[{"name":"creator","type":"address","internalType":"address"},{"name":"subscriber","type":"address","internalType":"address"}],"outputs":[{"name":"","type":"tuple","internalType":"struct SubscriptionManager.Subscription","components":[{"name":"subscriber","type":"address","internalType":"address"},{"name":"tierId","type":"uint256","internalType":"uint256"},{"name":"startDate","type":"uint256","internalType":"uint256"},{"name":"renewalDate","type":"uint256","internalType":"uint256"},{"name":"isActive","type":"bool","internalType":"bool"}]}],"stateMutability":"view"},{"type":"function","name":"getSubscriptionTier","inputs":[{"name":"user","type":"address","internalType":"address"},{"name":"creator","type":"address","internalType":"address"}],"outputs":[{"name":"","type":"uint256","internalType":"uint256"}],"stateMutability":"view"},{"type":"function","name":"getTierConfig","inputs":[{"name":"creator","type":"address","internalType":"address"},{"name":"tier","type":"uint256","internalType":"uint256"}],"outputs":[{"name":"","type":"tuple","internalType":"struct SubscriptionManager.TierConfig","components":[{"name":"name","type":"string","internalType":"string"},{"name":"price","type":"uint256","internalType":"uint256"},{"name":"duration","type":"uint256","internalType":"uint256"},{"name":"isActive","type":"bool","internalType":"bool"},{"name":"metadataURI","type":"string","internalType":"string"},{"name":"maxSupply","type":"uint256","internalType":"uint256"},{"name":"minHoldTime","type":"uint256","internalType":"uint256"}]}],"stateMutability":"view"},{"type":"function","name":"handleToCreator","inputs":[{"name":"","type":"string","internalType":"string"}],"outputs":[{"name":"","type":"address","internalType":"address"}],"stateMutability":"view"},{"type":"function","name":"hasActiveSubscription","inputs":[{"name":"user","type":"address","internalType":"address"},{"name":"creator","type":"address","internalType":"address"}],"outputs":[{"name":"","type":"bool","internalType":"bool"}],"stateMutability":"view"},{"type":"function","name":"owner","inputs":[],"outputs":[{"name":"","type":"address","internalType":"address"}],"stateMutability":"view"},{"type":"function","name":"pendingPlatformFees","inputs":[],"outputs":[{"name":"","type":"uint256","internalType":"uint256"}],"stateMutability":"view"},{"type":"function","name":"pendingWithdraw","inputs":[{"name":"","type":"address","internalType":"address"}],"outputs":[{"name":"","type":"uint256","internalType":"uint256"}],"stateMutability":"view"},{"type":"function","name":"platformFeeBps","inputs":[],"outputs":[{"name":"","type":"uint256","internalType":"uint256"}],"stateMutability":"view"},{"type":"function","name":"registerCreator","inputs":[{"name":"_handle","type":"string","internalType":"string"},{"name":"_name","type":"string","internalType":"string"},{"name":"_profileURI","type":"string","internalType":"string"}],"outputs":[],"stateMutability":"nonpayable"},{"type":"function","name":"renewSubscription","inputs":[{"name":"_creator","type":"address","internalType":"address"}],"outputs":[],"stateMutability":"payable"},{"type":"function","name":"renounceOwnership","inputs":[],"outputs":[],"stateMutability":"nonpayable"},{"type":"function","name":"setFeeRecipient","inputs":[{"name":"newRecipient","type":"address","internalType":"address"}],"outputs":[],"stateMutability":"nonpayable"},{"type":"function","name":"setPlatformFee","inputs":[{"name":"newFeeBps","type":"uint256","internalType":"uint256"}],"outputs":[],"stateMutability":"nonpayable"},{"type":"function","name":"subscribe","inputs":[{"name":"_creator","type":"address","internalType":"address"},{"name":"_tierId","type":"uint256","internalType":"uint256"}],"outputs":[],"stateMutability":"payable"},{"type":"function","name":"subscriptions","inputs":[{"name":"","type":"address","internalType":"address"},{"name":"","type":"address","internalType":"address"}],"outputs":[{"name":"subscriber","type":"address","internalType":"address"},{"name":"tierId","type":"uint256","internalType":"uint256"},{"name":"startDate","type":"uint256","internalType":"uint256"},{"name":"renewalDate","type":"uint256","internalType":"uint256"},{"name":"isActive","type":"bool","internalType":"bool"}],"stateMutability":"view"},{"type":"function","name":"tierConfigs","inputs":[{"name":"","type":"address","internalType":"address"},{"name":"","type":"uint256","internalType":"uint256"}],"outputs":[{"name":"name","type":"string","internalType":"string"},{"name":"price","type":"uint256","internalType":"uint256"},{"name":"duration","type":"uint256","internalType":"uint256"},{"name":"isActive","type":"bool","internalType":"bool"},{"name":"metadataURI","type":"string","internalType":"string"},{"name":"maxSupply","type":"uint256","internalType":"uint256"},{"name":"minHoldTime","type":"uint256","internalType":"uint256"}],"stateMutability":"view"},{"type":"function","name":"transferOwnership","inputs":[{"name":"newOwner","type":"address","internalType":"address"}],"outputs":[],"stateMutability":"nonpayable"},{"type":"function","name":"upgradeSubscription","inputs":[{"name":"_creator","type":"address","internalType":"address"},{"name":"_newTierId","type":"uint256","internalType":"uint256"}],"outputs":[],"stateMutability":"payable"},{"type":"function","name":"withdraw","inputs":[],"outputs":[],"stateMutability":"nonpayable"},{"type":"function","name":"withdrawPlatformFees","inputs":[],"outputs":[],"stateMutability":"nonpayable"},{"type":"event","name":"ContentUnlocked","inputs":[{"name":"creator","type":"address","indexed":true,"internalType":"address"},{"name":"postId","type":"uint256","indexed":false,"internalType":"uint256"},{"name":"subscriber","type":"address","indexed":true,"internalType":"address"}],"anonymous":false},{"type":"event","name":"CreatorRegistered","inputs":[{"name":"creator","type":"address","indexed":true,"internalType":"address"},{"name":"handle","type":"string","indexed":false,"internalType":"string"},{"name":"creatorIndex","type":"uint256","indexed":true,"internalType":"uint256"}],"anonymous":false},{"type":"event","name":"OwnershipTransferred","inputs":[{"name":"previousOwner","type":"address","indexed":true,"internalType":"address"},{"name":"newOwner","type":"address","indexed":true,"internalType":"address"}],"anonymous":false},{"type":"event","name":"PlatformFeesWithdrawn","inputs":[{"name":"recipient","type":"address","indexed":true,"internalType":"address"},{"name":"amount","type":"uint256","indexed":false,"internalType":"uint256"}],"anonymous":false},{"type":"event","name":"Subscribed","inputs":[{"name":"creator","type":"address","indexed":true,"internalType":"address"},{"name":"subscriber","type":"address","indexed":true,"internalType":"address"},{"name":"tierId","type":"uint256","indexed":false,"internalType":"uint256"},{"name":"startDate","type":"uint256","indexed":false,"internalType":"uint256"},{"name":"renewalDate","type":"uint256","indexed":false,"internalType":"uint256"},{"name":"amount","type":"uint256","indexed":false,"internalType":"uint256"}],"anonymous":false},{"type":"event","name":"SubscriptionCancelled","inputs":[{"name":"creator","type":"address","indexed":true,"internalType":"address"},{"name":"subscriber","type":"address","indexed":true,"internalType":"address"}],"anonymous":false},{"type":"event","name":"SubscriptionRenewed","inputs":[{"name":"creator","type":"address","indexed":true,"internalType":"address"},{"name":"subscriber","type":"address","indexed":true,"internalType":"address"},{"name":"newRenewalDate","type":"uint256","indexed":false,"internalType":"uint256"}],"anonymous":false},{"type":"event","name":"SubscriptionUpgraded","inputs":[{"name":"creator","type":"address","indexed":true,"internalType":"address"},{"name":"subscriber","type":"address","indexed":true,"internalType":"address"},{"name":"oldTier","type":"uint256","indexed":false,"internalType":"uint256"},{"name":"newTier","type":"uint256","indexed":false,"internalType":"uint256"}],"anonymous":false},{"type":"event","name":"TierConfigured","inputs":[{"name":"creator","type":"address","indexed":true,"internalType":"address"},{"name":"tier","type":"uint256","indexed":true,"internalType":"uint256"},{"name":"name","type":"string","indexed":false,"internalType":"string"},{"name":"price","type":"uint256","indexed":false,"internalType":"uint256"},{"name":"duration","type":"uint256","indexed":false,"internalType":"uint256"}],"anonymous":false},{"type":"event","name":"Withdrawn","inputs":[{"name":"creator","type":"address","indexed":true,"internalType":"address"},{"name":"amount","type":"uint256","indexed":false,"internalType":"uint256"}],"anonymous":false},{"type":"error","name":"AlreadySubscribed","inputs":[]},{"type":"error","name":"CannotDowngrade","inputs":[]},{"type":"error","name":"CreatorAlreadyRegistered","inputs":[]},{"type":"error","name":"CreatorNotActive","inputs":[]},{"type":"error","name":"CreatorNotFound","inputs":[]},{"type":"error","name":"HandleAlreadyTaken","inputs":[]},{"type":"error","name":"HandleTooLong","inputs":[]},{"type":"error","name":"HandleTooShort","inputs":[]},{"type":"error","name":"InsufficientPayment","inputs":[]},{"type":"error","name":"InvalidTier","inputs":[]},{"type":"error","name":"NotSubscribed","inputs":[]},{"type":"error","name":"NothingToWithdraw","inputs":[]},{"type":"error","name":"OwnableInvalidOwner","inputs":[{"name":"owner","type":"address","internalType":"address"}]},{"type":"error","name":"OwnableUnauthorizedAccount","inputs":[{"name":"account","type":"address","internalType":"address"}]},{"type":"error","name":"SameTier","inputs":[]},{"type":"error","name":"SubscriptionExpired","inputs":[]},{"type":"error","name":"TierNotConfigured","inputs":[]},{"type":"error","name":"WithdrawFailed","inputs":[]}],"bytecode":{"object":"0x60a06040526101f460025534801562000016575f80fd5b506040516200567f3803806200567f83398181016040528101906200003c919062000264565b335f73ffffffffffffffffffffffffffffffffffffffff168173ffffffffffffffffffffffffffffffffffffffff1603620000b0575f6040517f1e4fbdf7000000000000000000000000000000000000000000000000000000008152600401620000a79190620002ba565b60405180910390fd5b620000c1816200013e60201b60201c565b508173ffffffffffffffffffffffffffffffffffffffff1660808173ffffffffffffffffffffffffffffffffffffffff16815250508060035f6101000a81548173ffffffffffffffffffffffffffffffffffffffff021916908373ffffffffffffffffffffffffffffffffffffffff1602179055505050620002d5565b5f805f9054906101000a900473ffffffffffffffffffffffffffffffffffffffff169050815f806101000a81548173ffffffffffffffffffffffffffffffffffffffff021916908373ffffffffffffffffffffffffffffffffffffffff1602179055508173ffffffffffffffffffffffffffffffffffffffff168173ffffffffffffffffffffffffffffffffffffffff167f8be0079c531659141344cd1fd0a4f28419497f9722a3daafe3b4186f6b6457e060405160405180910390a35050565b5f80fd5b5f73ffffffffffffffffffffffffffffffffffffffff82169050919050565b5f6200022e8262000203565b9050919050565b620002408162000222565b81146200024b575f80fd5b50565b5f815190506200025e8162000235565b92915050565b5f80604083850312156200027d576200027c620001ff565b5b5f6200028c858286016200024e565b92505060206200029f858286016200024e565b9150509250929050565b620002b48162000222565b82525050565b5f602082019050620002cf5f830184620002a9565b92915050565b6080516153606200031f5f395f8181610e0a0152818161153b015281816115ca01528181611659015281816124360152818161267301528181612a2101526131f601526153605ff3fe60806040526004361061022f575f3560e01c80638da5cb5b1161012d578063d027aab4116100aa578063e3d3f8431161006e578063e3d3f84314610862578063e74b981b1461088c578063f2fde38b146108b4578063f308cfca146108dc578063f37d65af146109185761022f565b8063d027aab41461078e578063d0b7830b146107ca578063d82faa48146107e0578063da1a8a6a1461080a578063e02eb109146108465761022f565b80639a46e412116100f15780639a46e412146106885780639ef7dace146106b2578063a0210309146106ee578063a1c864e91461072a578063b89d3b48146107525761022f565b80638da5cb5b146105ad5780638de69284146105d757806391d768de146105f3578063933166e11461061d57806393d81d58146106605761022f565b806346904840116101bb5780636d571b6a1161017f5780636d571b6a146104b55780636d65834c146104f1578063715018a61461052d5780637a0c934b146105435780638bd684ee146105855761022f565b806346904840146103975780634d29aa98146103c15780634e02fbbf146103fd5780635b75dd8d146104395780636207d31b146104755761022f565b806324d85b191161020257806324d85b19146102dd5780632f98c9e8146103055780633771f1e71461032f5780633c0847f5146103575780633ccfd60b146103815761022f565b80630f3038c21461023357806312e8e2c31461024f5780631bbfbb571461027757806322dcd13e146102b3575b5f80fd5b61024d60048036038101906102489190613f3f565b610954565b005b34801561025a575f80fd5b5061027560048036038101906102709190613f7d565b610f13565b005b348015610282575f80fd5b5061029d60048036038101906102989190613fa8565b610f6a565b6040516102aa9190614012565b60405180910390f35b3480156102be575f80fd5b506102c761104d565b6040516102d4919061403a565b60405180910390f35b3480156102e8575f80fd5b5061030360048036038101906102fe9190614053565b611053565b005b348015610310575f80fd5b506103196110b5565b604051610326919061403a565b60405180910390f35b34801561033a575f80fd5b506103556004803603810190610350919061407e565b6110bb565b005b348015610362575f80fd5b5061036b6117e2565b604051610378919061403a565b60405180910390f35b34801561038c575f80fd5b506103956117e7565b005b3480156103a2575f80fd5b506103ab611a17565b6040516103b891906140dd565b60405180910390f35b3480156103cc575f80fd5b506103e760048036038101906103e291906140f6565b611a3c565b6040516103f4919061403a565b60405180910390f35b348015610408575f80fd5b50610423600480360381019061041e9190614270565b611af6565b60405161043091906140dd565b60405180910390f35b348015610444575f80fd5b5061045f600480360381019061045a91906140f6565b611b3c565b60405161046c919061434a565b60405180910390f35b348015610480575f80fd5b5061049b600480360381019061049691906140f6565b611c5b565b6040516104ac959493929190614363565b60405180910390f35b3480156104c0575f80fd5b506104db60048036038101906104d69190613f7d565b611cc3565b6040516104e891906140dd565b60405180910390f35b3480156104fc575f80fd5b5061051760048036038101906105129190614053565b611cf3565b604051610524919061403a565b60405180910390f35b348015610538575f80fd5b50610541611d39565b005b34801561054e575f80fd5b5061056960048036038101906105649190613f3f565b611d4c565b60405161057c979695949392919061442e565b60405180910390f35b348015610590575f80fd5b506105ab60048036038101906105a69190613f7d565b611ead565b005b3480156105b8575f80fd5b506105c1611fe1565b6040516105ce91906140dd565b60405180910390f35b6105f160048036038101906105ec9190613f3f565b612008565b005b3480156105fe575f80fd5b50610607612671565b6040516106149190614504565b60405180910390f35b348015610628575f80fd5b50610643600480360381019061063e9190614053565b612695565b60405161065798979695949392919061451d565b60405180910390f35b34801561066b575f80fd5b5061068660048036038101906106819190614053565b612896565b005b348015610693575f80fd5b5061069c612b49565b6040516106a9919061403a565b60405180910390f35b3480156106bd575f80fd5b506106d860048036038101906106d39190614053565b612b4e565b6040516106e5919061403a565b60405180910390f35b3480156106f9575f80fd5b50610714600480360381019061070f9190614053565b612b63565b60405161072191906146b1565b60405180910390f35b348015610735575f80fd5b50610750600480360381019061074b91906146d1565b612df7565b005b34801561075d575f80fd5b50610778600480360381019061077391906140f6565b6132d5565b6040516107859190614012565b60405180910390f35b348015610799575f80fd5b506107b460048036038101906107af9190613f3f565b61337a565b6040516107c19190614815565b60405180910390f35b3480156107d5575f80fd5b506107de613542565b005b3480156107eb575f80fd5b506107f46136d5565b604051610801919061403a565b60405180910390f35b348015610815575f80fd5b50610830600480360381019061082b9190614053565b6136db565b60405161083d919061403a565b60405180910390f35b610860600480360381019061085b9190614053565b613721565b005b34801561086d575f80fd5b50610876613adf565b604051610883919061403a565b60405180910390f35b348015610897575f80fd5b506108b260048036038101906108ad9190614053565b613ae4565b005b3480156108bf575f80fd5b506108da60048036038101906108d59190614053565b613b9d565b005b3480156108e7575f80fd5b5061090260048036038101906108fd9190614053565b613c21565b60405161090f919061403a565b60405180910390f35b348015610923575f80fd5b5061093e60048036038101906109399190614270565b613c36565b60405161094b91906140dd565b60405180910390f35b8060018110806109645750600381115b1561099b576040517fe142361700000000000000000000000000000000000000000000000000000000815260040160405180910390fd5b5f60055f8573ffffffffffffffffffffffffffffffffffffffff1673ffffffffffffffffffffffffffffffffffffffff1681526020019081526020015f2090505f73ffffffffffffffffffffffffffffffffffffffff16815f015f9054906101000a900473ffffffffffffffffffffffffffffffffffffffff1673ffffffffffffffffffffffffffffffffffffffff1603610a62576040517f93a3b41600000000000000000000000000000000000000000000000000000000815260040160405180910390fd5b5f60085f8673ffffffffffffffffffffffffffffffffffffffff1673ffffffffffffffffffffffffffffffffffffffff1681526020019081526020015f205f3373ffffffffffffffffffffffffffffffffffffffff1673ffffffffffffffffffffffffffffffffffffffff1681526020019081526020015f209050806004015f9054906101000a900460ff16610b24576040517f237e6c2800000000000000000000000000000000000000000000000000000000815260040160405180910390fd5b42816003015411610b61576040517f893dcecf00000000000000000000000000000000000000000000000000000000815260040160405180910390fd5b80600101548411610b9e576040517f5666717d00000000000000000000000000000000000000000000000000000000815260040160405180910390fd5b80600101548403610bdb576040517f4f31e02400000000000000000000000000000000000000000000000000000000815260040160405180910390fd5b5f600b5f8773ffffffffffffffffffffffffffffffffffffffff1673ffffffffffffffffffffffffffffffffffffffff1681526020019081526020015f205f8681526020019081526020015f209050806003015f9054906101000a900460ff16610c71576040517f07a9209500000000000000000000000000000000000000000000000000000000815260040160405180910390fd5b5f600b5f8873ffffffffffffffffffffffffffffffffffffffff1673ffffffffffffffffffffffffffffffffffffffff1681526020019081526020015f205f846001015481526020019081526020015f2090505f81600101548360010154610cd99190614862565b905080341015610d15576040517fcd1c886700000000000000000000000000000000000000000000000000000000815260040160405180910390fd5b5f61271060025434610d279190614895565b610d319190614903565b90505f8134610d409190614862565b90508160045f828254610d539190614933565b925050819055508060095f8c73ffffffffffffffffffffffffffffffffffffffff1673ffffffffffffffffffffffffffffffffffffffff1681526020019081526020015f205f828254610da69190614933565b9250508190555080600a5f8c73ffffffffffffffffffffffffffffffffffffffff1673ffffffffffffffffffffffffffffffffffffffff1681526020019081526020015f205f828254610df99190614933565b925050819055505f866001015490507f000000000000000000000000000000000000000000000000000000000000000073ffffffffffffffffffffffffffffffffffffffff166337201fe68c89600101548d6040518463ffffffff1660e01b8152600401610e6993929190614966565b5f604051808303815f87803b158015610e80575f80fd5b505af1158015610e92573d5f803e3d5ffd5b505050508987600101819055503373ffffffffffffffffffffffffffffffffffffffff168b73ffffffffffffffffffffffffffffffffffffffff167fe03b7ecf6d4cbfb407971a905628826ca89b04d4b413c2c8c178fbf88ebcf57d838d604051610efe92919061499b565b60405180910390a35050505050505050505050565b610f1b613c7e565b6103e8811115610f60576040517f08c379a0000000000000000000000000000000000000000000000000000000008152600401610f5790614a0c565b60405180910390fd5b8060028190555050565b5f8373ffffffffffffffffffffffffffffffffffffffff168373ffffffffffffffffffffffffffffffffffffffff1603610fa75760019050611046565b5f60085f8673ffffffffffffffffffffffffffffffffffffffff1673ffffffffffffffffffffffffffffffffffffffff1681526020019081526020015f205f8573ffffffffffffffffffffffffffffffffffffffff1673ffffffffffffffffffffffffffffffffffffffff1681526020019081526020015f209050806004015f9054906101000a900460ff1680156110425750428160030154115b9150505b9392505050565b60025481565b61105b613c7e565b5f60055f8373ffffffffffffffffffffffffffffffffffffffff1673ffffffffffffffffffffffffffffffffffffffff1681526020019081526020015f206005015f6101000a81548160ff02191690831515021790555050565b60045481565b60055f3373ffffffffffffffffffffffffffffffffffffffff1673ffffffffffffffffffffffffffffffffffffffff1681526020019081526020015f206005015f9054906101000a900460ff1661113e576040517f849908c500000000000000000000000000000000000000000000000000000000815260040160405180910390fd5b5f62278d0090506040518060e001604052806040518060400160405280600681526020017f42726f6e7a650000000000000000000000000000000000000000000000000000815250815260200185815260200182815260200160011515815260200160405180602001604052805f81525081526020015f81526020015f815250600b5f3373ffffffffffffffffffffffffffffffffffffffff1673ffffffffffffffffffffffffffffffffffffffff1681526020019081526020015f205f600181526020019081526020015f205f820151815f01908161121e9190614c1b565b5060208201518160010155604082015181600201556060820151816003015f6101000a81548160ff02191690831515021790555060808201518160040190816112679190614c1b565b5060a0820151816005015560c082015181600601559050506040518060e001604052806040518060400160405280600681526020017f53696c7665720000000000000000000000000000000000000000000000000000815250815260200184815260200182815260200160011515815260200160405180602001604052805f81525081526020015f81526020015f815250600b5f3373ffffffffffffffffffffffffffffffffffffffff1673ffffffffffffffffffffffffffffffffffffffff1681526020019081526020015f205f600281526020019081526020015f205f820151815f0190816113589190614c1b565b5060208201518160010155604082015181600201556060820151816003015f6101000a81548160ff02191690831515021790555060808201518160040190816113a19190614c1b565b5060a0820151816005015560c082015181600601559050506040518060e001604052806040518060400160405280600481526020017f476f6c6400000000000000000000000000000000000000000000000000000000815250815260200183815260200182815260200160011515815260200160405180602001604052805f81525081526020015f81526020015f815250600b5f3373ffffffffffffffffffffffffffffffffffffffff1673ffffffffffffffffffffffffffffffffffffffff1681526020019081526020015f205f600381526020019081526020015f205f820151815f0190816114929190614c1b565b5060208201518160010155604082015181600201556060820151816003015f6101000a81548160ff02191690831515021790555060808201518160040190816114db9190614c1b565b5060a0820151816005015560c08201518160060155905050600e60055f3373ffffffffffffffffffffffffffffffffffffffff1673ffffffffffffffffffffffffffffffffffffffff1681526020019081526020015f20600401819055507f000000000000000000000000000000000000000000000000000000000000000073ffffffffffffffffffffffffffffffffffffffff16639ab45a45336001875f806040518663ffffffff1660e01b815260040161159b959493929190614d90565b5f604051808303815f87803b1580156115b2575f80fd5b505af11580156115c4573d5f803e3d5ffd5b505050507f000000000000000000000000000000000000000000000000000000000000000073ffffffffffffffffffffffffffffffffffffffff16639ab45a45336002865f806040518663ffffffff1660e01b815260040161162a959493929190614e51565b5f604051808303815f87803b158015611641575f80fd5b505af1158015611653573d5f803e3d5ffd5b505050507f000000000000000000000000000000000000000000000000000000000000000073ffffffffffffffffffffffffffffffffffffffff16639ab45a45336003855f806040518663ffffffff1660e01b81526004016116b9959493929190614f12565b5f604051808303815f87803b1580156116d0575f80fd5b505af11580156116e2573d5f803e3d5ffd5b5050505060013373ffffffffffffffffffffffffffffffffffffffff167ff98041cd1747bf8adcefe538728e3baa58fd21d68ee5d785787afc87001dde0c8684604051611730929190614f89565b60405180910390a360023373ffffffffffffffffffffffffffffffffffffffff167ff98041cd1747bf8adcefe538728e3baa58fd21d68ee5d785787afc87001dde0c8584604051611782929190614fc3565b60405180910390a360033373ffffffffffffffffffffffffffffffffffffffff167ff98041cd1747bf8adcefe538728e3baa58fd21d68ee5d785787afc87001dde0c84846040516117d4929190614ffd565b60405180910390a350505050565b600181565b60055f3373ffffffffffffffffffffffffffffffffffffffff1673ffffffffffffffffffffffffffffffffffffffff1681526020019081526020015f206005015f9054906101000a900460ff1661186a576040517f849908c500000000000000000000000000000000000000000000000000000000815260040160405180910390fd5b5f600a5f3373ffffffffffffffffffffffffffffffffffffffff1673ffffffffffffffffffffffffffffffffffffffff1681526020019081526020015f205490505f81036118e4576040517fd0d04f6000000000000000000000000000000000000000000000000000000000815260040160405180910390fd5b5f600a5f3373ffffffffffffffffffffffffffffffffffffffff1673ffffffffffffffffffffffffffffffffffffffff1681526020019081526020015f20819055505f3373ffffffffffffffffffffffffffffffffffffffff168260405161194b90615061565b5f6040518083038185875af1925050503d805f8114611985576040519150601f19603f3d011682016040523d82523d5f602084013e61198a565b606091505b50509050806119c5576040517f750b219c00000000000000000000000000000000000000000000000000000000815260040160405180910390fd5b3373ffffffffffffffffffffffffffffffffffffffff167f7084f5476618d8e60b11ef0d7d3f06914655adb8793e28ff7f018d4c76d505d583604051611a0b919061403a565b60405180910390a25050565b60035f9054906101000a900473ffffffffffffffffffffffffffffffffffffffff1681565b5f8060085f8473ffffffffffffffffffffffffffffffffffffffff1673ffffffffffffffffffffffffffffffffffffffff1681526020019081526020015f205f8573ffffffffffffffffffffffffffffffffffffffff1673ffffffffffffffffffffffffffffffffffffffff1681526020019081526020015f209050806004015f9054906101000a900460ff161580611ad9575042816003015411155b15611ae7575f915050611af0565b80600101549150505b92915050565b5f600682604051611b0791906150af565b90815260200160405180910390205f9054906101000a900473ffffffffffffffffffffffffffffffffffffffff169050919050565b611b44613dcd565b60085f8473ffffffffffffffffffffffffffffffffffffffff1673ffffffffffffffffffffffffffffffffffffffff1681526020019081526020015f205f8373ffffffffffffffffffffffffffffffffffffffff1673ffffffffffffffffffffffffffffffffffffffff1681526020019081526020015f206040518060a00160405290815f82015f9054906101000a900473ffffffffffffffffffffffffffffffffffffffff1673ffffffffffffffffffffffffffffffffffffffff1673ffffffffffffffffffffffffffffffffffffffff168152602001600182015481526020016002820154815260200160038201548152602001600482015f9054906101000a900460ff161515151581525050905092915050565b6008602052815f5260405f20602052805f5260405f205f9150915050805f015f9054906101000a900473ffffffffffffffffffffffffffffffffffffffff1690806001015490806002015490806003015490806004015f9054906101000a900460ff16905085565b6007602052805f5260405f205f915054906101000a900473ffffffffffffffffffffffffffffffffffffffff1681565b5f60095f8373ffffffffffffffffffffffffffffffffffffffff1673ffffffffffffffffffffffffffffffffffffffff1681526020019081526020015f20549050919050565b611d41613c7e565b611d4a5f613d05565b565b600b602052815f5260405f20602052805f5260405f205f9150915050805f018054611d7690614a57565b80601f0160208091040260200160405190810160405280929190818152602001828054611da290614a57565b8015611ded5780601f10611dc457610100808354040283529160200191611ded565b820191905f5260205f20905b815481529060010190602001808311611dd057829003601f168201915b505050505090806001015490806002015490806003015f9054906101000a900460ff1690806004018054611e2090614a57565b80601f0160208091040260200160405190810160405280929190818152602001828054611e4c90614a57565b8015611e975780601f10611e6e57610100808354040283529160200191611e97565b820191905f5260205f20905b815481529060010190602001808311611e7a57829003601f168201915b5050505050908060050154908060060154905087565b60055f3373ffffffffffffffffffffffffffffffffffffffff1673ffffffffffffffffffffffffffffffffffffffff1681526020019081526020015f206005015f9054906101000a900460ff16611f30576040517f849908c500000000000000000000000000000000000000000000000000000000815260040160405180910390fd5b806001811080611f405750600381115b15611f77576040517fe142361700000000000000000000000000000000000000000000000000000000815260040160405180910390fd5b5f600b5f3373ffffffffffffffffffffffffffffffffffffffff1673ffffffffffffffffffffffffffffffffffffffff1681526020019081526020015f205f8481526020019081526020015f206003015f6101000a81548160ff0219169083151502179055505050565b5f805f9054906101000a900473ffffffffffffffffffffffffffffffffffffffff16905090565b8060018110806120185750600381115b1561204f576040517fe142361700000000000000000000000000000000000000000000000000000000815260040160405180910390fd5b5f60055f8573ffffffffffffffffffffffffffffffffffffffff1673ffffffffffffffffffffffffffffffffffffffff1681526020019081526020015f2090505f73ffffffffffffffffffffffffffffffffffffffff16815f015f9054906101000a900473ffffffffffffffffffffffffffffffffffffffff1673ffffffffffffffffffffffffffffffffffffffff1603612116576040517f93a3b41600000000000000000000000000000000000000000000000000000000815260040160405180910390fd5b806005015f9054906101000a900460ff1661215d576040517f849908c500000000000000000000000000000000000000000000000000000000815260040160405180910390fd5b5f600b5f8673ffffffffffffffffffffffffffffffffffffffff1673ffffffffffffffffffffffffffffffffffffffff1681526020019081526020015f205f8581526020019081526020015f209050806003015f9054906101000a900460ff166121f3576040517f07a9209500000000000000000000000000000000000000000000000000000000815260040160405180910390fd5b8060010154341015612231576040517fcd1c886700000000000000000000000000000000000000000000000000000000815260040160405180910390fd5b5f60085f8773ffffffffffffffffffffffffffffffffffffffff1673ffffffffffffffffffffffffffffffffffffffff1681526020019081526020015f205f3373ffffffffffffffffffffffffffffffffffffffff1673ffffffffffffffffffffffffffffffffffffffff1681526020019081526020015f209050806004015f9054906101000a900460ff1680156122cc5750428160030154115b15612303576040517f5fd8a13200000000000000000000000000000000000000000000000000000000815260040160405180910390fd5b5f612710600254346123159190614895565b61231f9190614903565b90505f813461232e9190614862565b90508160045f8282546123419190614933565b925050819055508060095f8a73ffffffffffffffffffffffffffffffffffffffff1673ffffffffffffffffffffffffffffffffffffffff1681526020019081526020015f205f8282546123949190614933565b9250508190555080600a5f8a73ffffffffffffffffffffffffffffffffffffffff1673ffffffffffffffffffffffffffffffffffffffff1681526020019081526020015f205f8282546123e79190614933565b92505081905550826004015f9054906101000a900460ff1661241d57846006015f815480929190612417906150c5565b91905055505b5f4290505f8560020154426124329190614933565b90507f000000000000000000000000000000000000000000000000000000000000000073ffffffffffffffffffffffffffffffffffffffff1663e714bb5f338c8c6040518463ffffffff1660e01b81526004016124919392919061510c565b5f604051808303815f87803b1580156124a8575f80fd5b505af11580156124ba573d5f803e3d5ffd5b505050506040518060a001604052803373ffffffffffffffffffffffffffffffffffffffff1681526020018a81526020018381526020018281526020016001151581525060085f8c73ffffffffffffffffffffffffffffffffffffffff1673ffffffffffffffffffffffffffffffffffffffff1681526020019081526020015f205f3373ffffffffffffffffffffffffffffffffffffffff1673ffffffffffffffffffffffffffffffffffffffff1681526020019081526020015f205f820151815f015f6101000a81548173ffffffffffffffffffffffffffffffffffffffff021916908373ffffffffffffffffffffffffffffffffffffffff1602179055506020820151816001015560408201518160020155606082015181600301556080820151816004015f6101000a81548160ff0219169083151502179055509050503373ffffffffffffffffffffffffffffffffffffffff168a73ffffffffffffffffffffffffffffffffffffffff167f1913e17d5784005a914657f9e879fcc261644776365f1d84aeb45afcb6da48648b85853460405161265d9493929190615141565b60405180910390a350505050505050505050565b7f000000000000000000000000000000000000000000000000000000000000000081565b6005602052805f5260405f205f91509050805f015f9054906101000a900473ffffffffffffffffffffffffffffffffffffffff16908060010180546126d990614a57565b80601f016020809104026020016040519081016040528092919081815260200182805461270590614a57565b80156127505780601f1061272757610100808354040283529160200191612750565b820191905f5260205f20905b81548152906001019060200180831161273357829003601f168201915b50505050509080600201805461276590614a57565b80601f016020809104026020016040519081016040528092919081815260200182805461279190614a57565b80156127dc5780601f106127b3576101008083540402835291602001916127dc565b820191905f5260205f20905b8154815290600101906020018083116127bf57829003601f168201915b5050505050908060030180546127f190614a57565b80601f016020809104026020016040519081016040528092919081815260200182805461281d90614a57565b80156128685780601f1061283f57610100808354040283529160200191612868565b820191905f5260205f20905b81548152906001019060200180831161284b57829003601f168201915b505050505090806004015490806005015f9054906101000a900460ff16908060060154908060070154905088565b5f60055f8373ffffffffffffffffffffffffffffffffffffffff1673ffffffffffffffffffffffffffffffffffffffff1681526020019081526020015f2090505f73ffffffffffffffffffffffffffffffffffffffff16815f015f9054906101000a900473ffffffffffffffffffffffffffffffffffffffff1673ffffffffffffffffffffffffffffffffffffffff160361295d576040517f93a3b41600000000000000000000000000000000000000000000000000000000815260040160405180910390fd5b5f60085f8473ffffffffffffffffffffffffffffffffffffffff1673ffffffffffffffffffffffffffffffffffffffff1681526020019081526020015f205f3373ffffffffffffffffffffffffffffffffffffffff1673ffffffffffffffffffffffffffffffffffffffff1681526020019081526020015f209050806004015f9054906101000a900460ff16612a1f576040517f237e6c2800000000000000000000000000000000000000000000000000000000815260040160405180910390fd5b7f000000000000000000000000000000000000000000000000000000000000000073ffffffffffffffffffffffffffffffffffffffff16634c274d45338584600101546040518463ffffffff1660e01b8152600401612a809392919061510c565b5f604051808303815f87803b158015612a97575f80fd5b505af1158015612aa9573d5f803e3d5ffd5b505050505f816004015f6101000a81548160ff021916908315150217905550428160030181905550816006015f815480929190612ae590615184565b91905055503373ffffffffffffffffffffffffffffffffffffffff168373ffffffffffffffffffffffffffffffffffffffff167f4f63ff9c987ba9233a93b549bdb283252838f696fe1349ef76a85e2ae7f822e360405160405180910390a3505050565b600281565b6009602052805f5260405f205f915090505481565b612b6b613e0f565b60055f8373ffffffffffffffffffffffffffffffffffffffff1673ffffffffffffffffffffffffffffffffffffffff1681526020019081526020015f20604051806101000160405290815f82015f9054906101000a900473ffffffffffffffffffffffffffffffffffffffff1673ffffffffffffffffffffffffffffffffffffffff1673ffffffffffffffffffffffffffffffffffffffff168152602001600182018054612c1890614a57565b80601f0160208091040260200160405190810160405280929190818152602001828054612c4490614a57565b8015612c8f5780601f10612c6657610100808354040283529160200191612c8f565b820191905f5260205f20905b815481529060010190602001808311612c7257829003601f168201915b50505050508152602001600282018054612ca890614a57565b80601f0160208091040260200160405190810160405280929190818152602001828054612cd490614a57565b8015612d1f5780601f10612cf657610100808354040283529160200191612d1f565b820191905f5260205f20905b815481529060010190602001808311612d0257829003601f168201915b50505050508152602001600382018054612d3890614a57565b80601f0160208091040260200160405190810160405280929190818152602001828054612d6490614a57565b8015612daf5780601f10612d8657610100808354040283529160200191612daf565b820191905f5260205f20905b815481529060010190602001808311612d9257829003601f168201915b5050505050815260200160048201548152602001600582015f9054906101000a900460ff16151515158152602001600682015481526020016007820154815250509050919050565b5f73ffffffffffffffffffffffffffffffffffffffff1660055f3373ffffffffffffffffffffffffffffffffffffffff1673ffffffffffffffffffffffffffffffffffffffff1681526020019081526020015f205f015f9054906101000a900473ffffffffffffffffffffffffffffffffffffffff1673ffffffffffffffffffffffffffffffffffffffff1614612eba576040517f779e9ca200000000000000000000000000000000000000000000000000000000815260040160405180910390fd5b5f839050600381511015612efa576040517f7d5cd9c800000000000000000000000000000000000000000000000000000000815260040160405180910390fd5b602081511115612f36576040517f3064322000000000000000000000000000000000000000000000000000000000815260040160405180910390fd5b5f73ffffffffffffffffffffffffffffffffffffffff16600685604051612f5d91906150af565b90815260200160405180910390205f9054906101000a900473ffffffffffffffffffffffffffffffffffffffff1673ffffffffffffffffffffffffffffffffffffffff1614612fd8576040517f723a42fb00000000000000000000000000000000000000000000000000000000815260040160405180910390fd5b60015f815480929190612fea906150c5565b91905055506040518061010001604052803373ffffffffffffffffffffffffffffffffffffffff1681526020018581526020018481526020018381526020015f81526020016001151581526020015f815260200160015481525060055f3373ffffffffffffffffffffffffffffffffffffffff1673ffffffffffffffffffffffffffffffffffffffff1681526020019081526020015f205f820151815f015f6101000a81548173ffffffffffffffffffffffffffffffffffffffff021916908373ffffffffffffffffffffffffffffffffffffffff16021790555060208201518160010190816130da9190614c1b565b5060408201518160020190816130f09190614c1b565b5060608201518160030190816131069190614c1b565b506080820151816004015560a0820151816005015f6101000a81548160ff02191690831515021790555060c0820151816006015560e082015181600701559050503360068560405161315891906150af565b90815260200160405180910390205f6101000a81548173ffffffffffffffffffffffffffffffffffffffff021916908373ffffffffffffffffffffffffffffffffffffffff1602179055503360075f60015481526020019081526020015f205f6101000a81548173ffffffffffffffffffffffffffffffffffffffff021916908373ffffffffffffffffffffffffffffffffffffffff1602179055507f000000000000000000000000000000000000000000000000000000000000000073ffffffffffffffffffffffffffffffffffffffff16632768a9b6336001546040518363ffffffff1660e01b81526004016132519291906151ab565b5f604051808303815f87803b158015613268575f80fd5b505af115801561327a573d5f803e3d5ffd5b505050506001543373ffffffffffffffffffffffffffffffffffffffff167fbf620853fd890bc166209817a64206f57de9aa2bc196bd5bab92d17a38d6515d866040516132c791906151d2565b60405180910390a350505050565b5f8060085f8473ffffffffffffffffffffffffffffffffffffffff1673ffffffffffffffffffffffffffffffffffffffff1681526020019081526020015f205f8573ffffffffffffffffffffffffffffffffffffffff1673ffffffffffffffffffffffffffffffffffffffff1681526020019081526020015f209050806004015f9054906101000a900460ff1680156133715750428160030154115b91505092915050565b613382613e67565b600b5f8473ffffffffffffffffffffffffffffffffffffffff1673ffffffffffffffffffffffffffffffffffffffff1681526020019081526020015f205f8381526020019081526020015f206040518060e00160405290815f820180546133e890614a57565b80601f016020809104026020016040519081016040528092919081815260200182805461341490614a57565b801561345f5780601f106134365761010080835404028352916020019161345f565b820191905f5260205f20905b81548152906001019060200180831161344257829003601f168201915b505050505081526020016001820154815260200160028201548152602001600382015f9054906101000a900460ff161515151581526020016004820180546134a690614a57565b80601f01602080910402602001604051908101604052809291908181526020018280546134d290614a57565b801561351d5780601f106134f45761010080835404028352916020019161351d565b820191905f5260205f20905b81548152906001019060200180831161350057829003601f168201915b5050505050815260200160058201548152602001600682015481525050905092915050565b61354a613c7e565b5f60045490505f8111613592576040517f08c379a00000000000000000000000000000000000000000000000000000000081526004016135899061523c565b60405180910390fd5b5f6004819055505f60035f9054906101000a900473ffffffffffffffffffffffffffffffffffffffff1673ffffffffffffffffffffffffffffffffffffffff16826040516135df90615061565b5f6040518083038185875af1925050503d805f8114613619576040519150601f19603f3d011682016040523d82523d5f602084013e61361e565b606091505b5050905080613662576040517f08c379a0000000000000000000000000000000000000000000000000000000008152600401613659906152a4565b60405180910390fd5b60035f9054906101000a900473ffffffffffffffffffffffffffffffffffffffff1673ffffffffffffffffffffffffffffffffffffffff167ffc7ad544ff6a06d6499925723d25b6fe70457a42939995b1d3d6f560fe336333836040516136c9919061403a565b60405180910390a25050565b60015481565b5f600a5f8373ffffffffffffffffffffffffffffffffffffffff1673ffffffffffffffffffffffffffffffffffffffff1681526020019081526020015f20549050919050565b5f60055f8373ffffffffffffffffffffffffffffffffffffffff1673ffffffffffffffffffffffffffffffffffffffff1681526020019081526020015f2090505f73ffffffffffffffffffffffffffffffffffffffff16815f015f9054906101000a900473ffffffffffffffffffffffffffffffffffffffff1673ffffffffffffffffffffffffffffffffffffffff16036137e8576040517f93a3b41600000000000000000000000000000000000000000000000000000000815260040160405180910390fd5b5f60085f8473ffffffffffffffffffffffffffffffffffffffff1673ffffffffffffffffffffffffffffffffffffffff1681526020019081526020015f205f3373ffffffffffffffffffffffffffffffffffffffff1673ffffffffffffffffffffffffffffffffffffffff1681526020019081526020015f209050806004015f9054906101000a900460ff166138aa576040517f237e6c2800000000000000000000000000000000000000000000000000000000815260040160405180910390fd5b5f600b5f8573ffffffffffffffffffffffffffffffffffffffff1673ffffffffffffffffffffffffffffffffffffffff1681526020019081526020015f205f836001015481526020019081526020015f209050806001015434101561393b576040517fcd1c886700000000000000000000000000000000000000000000000000000000815260040160405180910390fd5b5f6127106002543461394d9190614895565b6139579190614903565b90505f81346139669190614862565b90508160045f8282546139799190614933565b925050819055508060095f8873ffffffffffffffffffffffffffffffffffffffff1673ffffffffffffffffffffffffffffffffffffffff1681526020019081526020015f205f8282546139cc9190614933565b9250508190555080600a5f8873ffffffffffffffffffffffffffffffffffffffff1673ffffffffffffffffffffffffffffffffffffffff1681526020019081526020015f205f828254613a1f9190614933565b925050819055504284600301541115613a55578260020154846003015f828254613a499190614933565b92505081905550613a6e565b826002015442613a659190614933565b84600301819055505b3373ffffffffffffffffffffffffffffffffffffffff168673ffffffffffffffffffffffffffffffffffffffff167f2b956d6196f460d042bd64fb7aa1d23596fcd80b7277ea28bb620c5d02381d8e8660030154604051613acf919061403a565b60405180910390a3505050505050565b600381565b613aec613c7e565b5f73ffffffffffffffffffffffffffffffffffffffff168173ffffffffffffffffffffffffffffffffffffffff1603613b5a576040517f08c379a0000000000000000000000000000000000000000000000000000000008152600401613b519061530c565b60405180910390fd5b8060035f6101000a81548173ffffffffffffffffffffffffffffffffffffffff021916908373ffffffffffffffffffffffffffffffffffffffff16021790555050565b613ba5613c7e565b5f73ffffffffffffffffffffffffffffffffffffffff168173ffffffffffffffffffffffffffffffffffffffff1603613c15575f6040517f1e4fbdf7000000000000000000000000000000000000000000000000000000008152600401613c0c91906140dd565b60405180910390fd5b613c1e81613d05565b50565b600a602052805f5260405f205f915090505481565b6006818051602081018201805184825260208301602085012081835280955050505050505f915054906101000a900473ffffffffffffffffffffffffffffffffffffffff1681565b613c86613dc6565b73ffffffffffffffffffffffffffffffffffffffff16613ca4611fe1565b73ffffffffffffffffffffffffffffffffffffffff1614613d0357613cc7613dc6565b6040517f118cdaa7000000000000000000000000000000000000000000000000000000008152600401613cfa91906140dd565b60405180910390fd5b565b5f805f9054906101000a900473ffffffffffffffffffffffffffffffffffffffff169050815f806101000a81548173ffffffffffffffffffffffffffffffffffffffff021916908373ffffffffffffffffffffffffffffffffffffffff1602179055508173ffffffffffffffffffffffffffffffffffffffff168173ffffffffffffffffffffffffffffffffffffffff167f8be0079c531659141344cd1fd0a4f28419497f9722a3daafe3b4186f6b6457e060405160405180910390a35050565b5f33905090565b6040518060a001604052805f73ffffffffffffffffffffffffffffffffffffffff1681526020015f81526020015f81526020015f81526020015f151581525090565b6040518061010001604052805f73ffffffffffffffffffffffffffffffffffffffff1681526020016060815260200160608152602001606081526020015f81526020015f151581526020015f81526020015f81525090565b6040518060e00160405280606081526020015f81526020015f81526020015f15158152602001606081526020015f81526020015f81525090565b5f604051905090565b5f80fd5b5f80fd5b5f73ffffffffffffffffffffffffffffffffffffffff82169050919050565b5f613edb82613eb2565b9050919050565b613eeb81613ed1565b8114613ef5575f80fd5b50565b5f81359050613f0681613ee2565b92915050565b5f819050919050565b613f1e81613f0c565b8114613f28575f80fd5b50565b5f81359050613f3981613f15565b92915050565b5f8060408385031215613f5557613f54613eaa565b5b5f613f6285828601613ef8565b9250506020613f7385828601613f2b565b9150509250929050565b5f60208284031215613f9257613f91613eaa565b5b5f613f9f84828501613f2b565b91505092915050565b5f805f60608486031215613fbf57613fbe613eaa565b5b5f613fcc86828701613ef8565b9350506020613fdd86828701613ef8565b9250506040613fee86828701613f2b565b9150509250925092565b5f8115159050919050565b61400c81613ff8565b82525050565b5f6020820190506140255f830184614003565b92915050565b61403481613f0c565b82525050565b5f60208201905061404d5f83018461402b565b92915050565b5f6020828403121561406857614067613eaa565b5b5f61407584828501613ef8565b91505092915050565b5f805f6060848603121561409557614094613eaa565b5b5f6140a286828701613f2b565b93505060206140b386828701613f2b565b92505060406140c486828701613f2b565b9150509250925092565b6140d781613ed1565b82525050565b5f6020820190506140f05f8301846140ce565b92915050565b5f806040838503121561410c5761410b613eaa565b5b5f61411985828601613ef8565b925050602061412a85828601613ef8565b9150509250929050565b5f80fd5b5f80fd5b5f601f19601f8301169050919050565b7f4e487b71000000000000000000000000000000000000000000000000000000005f52604160045260245ffd5b6141828261413c565b810181811067ffffffffffffffff821117156141a1576141a061414c565b5b80604052505050565b5f6141b3613ea1565b90506141bf8282614179565b919050565b5f67ffffffffffffffff8211156141de576141dd61414c565b5b6141e78261413c565b9050602081019050919050565b828183375f83830152505050565b5f61421461420f846141c4565b6141aa565b9050828152602081018484840111156142305761422f614138565b5b61423b8482856141f4565b509392505050565b5f82601f83011261425757614256614134565b5b8135614267848260208601614202565b91505092915050565b5f6020828403121561428557614284613eaa565b5b5f82013567ffffffffffffffff8111156142a2576142a1613eae565b5b6142ae84828501614243565b91505092915050565b6142c081613ed1565b82525050565b6142cf81613f0c565b82525050565b6142de81613ff8565b82525050565b60a082015f8201516142f85f8501826142b7565b50602082015161430b60208501826142c6565b50604082015161431e60408501826142c6565b50606082015161433160608501826142c6565b50608082015161434460808501826142d5565b50505050565b5f60a08201905061435d5f8301846142e4565b92915050565b5f60a0820190506143765f8301886140ce565b614383602083018761402b565b614390604083018661402b565b61439d606083018561402b565b6143aa6080830184614003565b9695505050505050565b5f81519050919050565b5f82825260208201905092915050565b5f5b838110156143eb5780820151818401526020810190506143d0565b5f8484015250505050565b5f614400826143b4565b61440a81856143be565b935061441a8185602086016143ce565b6144238161413c565b840191505092915050565b5f60e0820190508181035f830152614446818a6143f6565b9050614455602083018961402b565b614462604083018861402b565b61446f6060830187614003565b818103608083015261448181866143f6565b905061449060a083018561402b565b61449d60c083018461402b565b98975050505050505050565b5f819050919050565b5f6144cc6144c76144c284613eb2565b6144a9565b613eb2565b9050919050565b5f6144dd826144b2565b9050919050565b5f6144ee826144d3565b9050919050565b6144fe816144e4565b82525050565b5f6020820190506145175f8301846144f5565b92915050565b5f610100820190506145315f83018b6140ce565b8181036020830152614543818a6143f6565b9050818103604083015261455781896143f6565b9050818103606083015261456b81886143f6565b905061457a608083018761402b565b61458760a0830186614003565b61459460c083018561402b565b6145a160e083018461402b565b9998505050505050505050565b5f82825260208201905092915050565b5f6145c8826143b4565b6145d281856145ae565b93506145e28185602086016143ce565b6145eb8161413c565b840191505092915050565b5f61010083015f83015161460c5f8601826142b7565b506020830151848203602086015261462482826145be565b9150506040830151848203604086015261463e82826145be565b9150506060830151848203606086015261465882826145be565b915050608083015161466d60808601826142c6565b5060a083015161468060a08601826142d5565b5060c083015161469360c08601826142c6565b5060e08301516146a660e08601826142c6565b508091505092915050565b5f6020820190508181035f8301526146c981846145f6565b905092915050565b5f805f606084860312156146e8576146e7613eaa565b5b5f84013567ffffffffffffffff81111561470557614704613eae565b5b61471186828701614243565b935050602084013567ffffffffffffffff81111561473257614731613eae565b5b61473e86828701614243565b925050604084013567ffffffffffffffff81111561475f5761475e613eae565b5b61476b86828701614243565b9150509250925092565b5f60e083015f8301518482035f86015261478f82826145be565b91505060208301516147a460208601826142c6565b5060408301516147b760408601826142c6565b5060608301516147ca60608601826142d5565b50608083015184820360808601526147e282826145be565b91505060a08301516147f760a08601826142c6565b5060c083015161480a60c08601826142c6565b508091505092915050565b5f6020820190508181035f83015261482d8184614775565b905092915050565b7f4e487b71000000000000000000000000000000000000000000000000000000005f52601160045260245ffd5b5f61486c82613f0c565b915061487783613f0c565b925082820390508181111561488f5761488e614835565b5b92915050565b5f61489f82613f0c565b91506148aa83613f0c565b92508282026148b881613f0c565b915082820484148315176148cf576148ce614835565b5b5092915050565b7f4e487b71000000000000000000000000000000000000000000000000000000005f52601260045260245ffd5b5f61490d82613f0c565b915061491883613f0c565b925082614928576149276148d6565b5b828204905092915050565b5f61493d82613f0c565b915061494883613f0c565b92508282019050808211156149605761495f614835565b5b92915050565b5f6060820190506149795f8301866140ce565b614986602083018561402b565b614993604083018461402b565b949350505050565b5f6040820190506149ae5f83018561402b565b6149bb602083018461402b565b9392505050565b7f46656520746f6f206869676800000000000000000000000000000000000000005f82015250565b5f6149f6600c836143be565b9150614a01826149c2565b602082019050919050565b5f6020820190508181035f830152614a23816149ea565b9050919050565b7f4e487b71000000000000000000000000000000000000000000000000000000005f52602260045260245ffd5b5f6002820490506001821680614a6e57607f821691505b602082108103614a8157614a80614a2a565b5b50919050565b5f819050815f5260205f209050919050565b5f6020601f8301049050919050565b5f82821b905092915050565b5f60088302614ae37fffffffffffffffffffffffffffffffffffffffffffffffffffffffffffffffff82614aa8565b614aed8683614aa8565b95508019841693508086168417925050509392505050565b5f614b1f614b1a614b1584613f0c565b6144a9565b613f0c565b9050919050565b5f819050919050565b614b3883614b05565b614b4c614b4482614b26565b848454614ab4565b825550505050565b5f90565b614b60614b54565b614b6b818484614b2f565b505050565b5b81811015614b8e57614b835f82614b58565b600181019050614b71565b5050565b601f821115614bd357614ba481614a87565b614bad84614a99565b81016020851015614bbc578190505b614bd0614bc885614a99565b830182614b70565b50505b505050565b5f82821c905092915050565b5f614bf35f1984600802614bd8565b1980831691505092915050565b5f614c0b8383614be4565b9150826002028217905092915050565b614c24826143b4565b67ffffffffffffffff811115614c3d57614c3c61414c565b5b614c478254614a57565b614c52828285614b92565b5f60209050601f831160018114614c83575f8415614c71578287015190505b614c7b8582614c00565b865550614ce2565b601f198416614c9186614a87565b5f5b82811015614cb857848901518255600182019150602085019450602081019050614c93565b86831015614cd55784890151614cd1601f891682614be4565b8355505b6001600288020188555050505b505050505050565b7f42726f6e7a6500000000000000000000000000000000000000000000000000005f82015250565b5f614d1e6006836143be565b9150614d2982614cea565b602082019050919050565b50565b5f614d425f836143be565b9150614d4d82614d34565b5f82019050919050565b5f819050919050565b5f614d7a614d75614d7084614d57565b6144a9565b613f0c565b9050919050565b614d8a81614d60565b82525050565b5f60e082019050614da35f8301886140ce565b614db0602083018761402b565b8181036040830152614dc181614d12565b9050614dd0606083018661402b565b8181036080830152614de181614d37565b9050614df060a0830185614d81565b614dfd60c0830184614d81565b9695505050505050565b7f53696c76657200000000000000000000000000000000000000000000000000005f82015250565b5f614e3b6006836143be565b9150614e4682614e07565b602082019050919050565b5f60e082019050614e645f8301886140ce565b614e71602083018761402b565b8181036040830152614e8281614e2f565b9050614e91606083018661402b565b8181036080830152614ea281614d37565b9050614eb160a0830185614d81565b614ebe60c0830184614d81565b9695505050505050565b7f476f6c64000000000000000000000000000000000000000000000000000000005f82015250565b5f614efc6004836143be565b9150614f0782614ec8565b602082019050919050565b5f60e082019050614f255f8301886140ce565b614f32602083018761402b565b8181036040830152614f4381614ef0565b9050614f52606083018661402b565b8181036080830152614f6381614d37565b9050614f7260a0830185614d81565b614f7f60c0830184614d81565b9695505050505050565b5f6060820190508181035f830152614fa081614d12565b9050614faf602083018561402b565b614fbc604083018461402b565b9392505050565b5f6060820190508181035f830152614fda81614e2f565b9050614fe9602083018561402b565b614ff6604083018461402b565b9392505050565b5f6060820190508181035f83015261501481614ef0565b9050615023602083018561402b565b615030604083018461402b565b9392505050565b5f81905092915050565b5f61504c5f83615037565b915061505782614d34565b5f82019050919050565b5f61506b82615041565b9150819050919050565b5f81905092915050565b5f615089826143b4565b6150938185615075565b93506150a38185602086016143ce565b80840191505092915050565b5f6150ba828461507f565b915081905092915050565b5f6150cf82613f0c565b91507fffffffffffffffffffffffffffffffffffffffffffffffffffffffffffffffff820361510157615100614835565b5b600182019050919050565b5f60608201905061511f5f8301866140ce565b61512c60208301856140ce565b615139604083018461402b565b949350505050565b5f6080820190506151545f83018761402b565b615161602083018661402b565b61516e604083018561402b565b61517b606083018461402b565b95945050505050565b5f61518e82613f0c565b91505f82036151a05761519f614835565b5b600182039050919050565b5f6040820190506151be5f8301856140ce565b6151cb602083018461402b565b9392505050565b5f6020820190508181035f8301526151ea81846143f6565b905092915050565b7f4e6f7468696e6720746f207769746864726177000000000000000000000000005f82015250565b5f6152266013836143be565b9150615231826151f2565b602082019050919050565b5f6020820190508181035f8301526152538161521a565b9050919050565b7f5769746864726177206661696c656400000000000000000000000000000000005f82015250565b5f61528e600f836143be565b91506152998261525a565b602082019050919050565b5f6020820190508181035f8301526152bb81615282565b9050919050565b7f496e76616c6964206164647265737300000000000000000000000000000000005f82015250565b5f6152f6600f836143be565b9150615301826152c2565b602082019050919050565b5f6020820190508181035f830152615323816152ea565b905091905056fea2646970667358221220d0198daf67ae72c5a4c75032595f454a776a87cd5a529a67d55f9923be06f69464736f6c63430008180033","linkReferences":{}},"methodIdentifiers":{"TIER_BRONZE()":"3c0847f5","TIER_GOLD()":"e3d3f843","TIER_SILVER()":"9a46e412","badge()":"91d768de","cancelSubscription(address)":"93d81d58","checkAccess(address,address,uint256)":"1bbfbb57","configureTiers(uint256,uint256,uint256)":"3771f1e7","creatorByIndex(uint256)":"6d571b6a","creatorCount()":"d82faa48","creatorRevenue(address)":"9ef7dace","creators(address)":"933166e1","deactivateCreator(address)":"24d85b19","deactivateTier(uint256)":"8bd684ee","feeRecipient()":"46904840","getCreator(address)":"a0210309","getCreatorByHandle(string)":"4e02fbbf","getCreatorRevenue(address)":"6d65834c","getPendingWithdraw(address)":"da1a8a6a","getSubscription(address,address)":"5b75dd8d","getSubscriptionTier(address,address)":"4d29aa98","getTierConfig(address,uint256)":"d027aab4","handleToCreator(string)":"f37d65af","hasActiveSubscription(address,address)":"b89d3b48","owner()":"8da5cb5b","pendingPlatformFees()":"2f98c9e8","pendingWithdraw(address)":"f308cfca","platformFeeBps()":"22dcd13e","registerCreator(string,string,string)":"a1c864e9","renewSubscription(address)":"e02eb109","renounceOwnership()":"715018a6","setFeeRecipient(address)":"e74b981b","setPlatformFee(uint256)":"12e8e2c3","subscribe(address,uint256)":"8de69284","subscriptions(address,address)":"6207d31b","tierConfigs(address,uint256)":"7a0c934b","transferOwnership(address)":"f2fde38b","upgradeSubscription(address,uint256)":"0f3038c2","withdraw()":"3ccfd60b","withdrawPlatformFees()":"d0b7830b"},"id":42}